:100000000C943C030C9459030C9459030C9459031D
:100010000C9459030C9459030C9459030C945903F0
:100020000C9459030C9459030C94F1110C948116FF
:100030000C940D250C9459030C9459030C945903FA
:100040000C9459030C9459030C9459030C945903C0
:100050000C9459030C94C8120C9459030C94590332
:100060000C9459030C9459030C9459030C945903A0
:100070000C9459030C9459030C9459030C94590390
:100080000C9459030C9459030C9459030C94590380
:100090000C9459030C9459030C9459030C94590370
:1000A0000C9459030C9459030C94590305010980CD
:1000B000A101850319012AB700150126B700950192
:1000C00075108100C0050C0901A101850419012AE0
:1000D000A002150126A002950175108100C005013E
:1000E0000906A1018505050719E029E71500250185
:1000F0009508750181020507190029EF15002501F2
:1001000095F075018102050819012905950575010C
:100110009102950175039101C005010902A1010930
:1001200001A100050919012905150025019505758D
:10013000018102950175038101050109300931151D
:1001400081257F95027508810609381581257F95DF
:100150000175088106050C0A38021581257F950175
:1001600075088106C0C005010906A101050719E04F
:1001700029E715002501950875018102950175088B
:1001800081010507190029FF150026FF0095067556
:100190000881000508190129059505750191029549
:1001A0000175039101C0000101010101010101017B
:1001B0000202020202020202020303030303030318
:1001C00003040404040404040505050505060606E5
:1001D0000606070707070708080808090909090AA2
:1001E0000A0A0B0B0B0C0C0C0D0D0D0E0E0E0F0F47
:1001F0000F101011111112121313141415151616D5
:100200001717181819191A1A1B1B1C1D1D1E1E1F43
:100210002020212222232424252626272829292A92
:100220002B2C2D2D2E2F30313232333435363738BA
:10023000393A3B3C3D3E3F404142434445464748B6
:10024000494A4C4D4E4F50515354555658595A5B8C
:100250005D5E5F616264656668696B6C6D6F70722C
:10026000737577787A7B7D7E8082838587888A8C98
:100270008E8F91939596989A9C9EA0A2A3A5A7A9CC
:10028000ABADAFB1B3B5B7BABCBEC0C2C4C6C9CBC3
:10029000CDCFD1D4D6D8DBDDDFE2E4E7E9EBEEF079
:1002A000F3F5F8FAFDFFFFAA7F5540222325262803
:1002B000292A2C2D2F3032333536383A3B3D3E40FB
:1002C00042434547494A4C4E5051535557595A5C41
:1002D0005E6062646668696B6D6F71737577797B58
:1002E0007D7F81838587898A8C8E90929496989A57
:1002F0009C9E9FA1A3A5A7A8AAACAEAFB1B3B4B66C
:10030000B8B9BBBCBEBFC1C2C3C5C6C7C9CACBCCC6
:10031000CDCED0D1D2D2D3D4D5D6D7D7D8D9D9DA99
:10032000DADBDBDBDCDCDCDCDCDDDDDDDDDCDCDC0E
:10033000DCDCDBDBDBDADAD9D9D8D7D7D6D5D4D336
:10034000D2D2D1D0CECDCCCBCAC9C7C6C5C3C2C10B
:10035000BFBEBCBBB9B8B6B4B3B1AFAEACAAA8A768
:10036000A5A3A19F9E9C9A98969492908E8C8A8920
:10037000878583817F7D7B79777573716F6D6B69FD
:1003800068666462605E5C5A5957555351504E4CD2
:100390004A4947454342403E3D3B3A383635333281
:1003A000302F2D2C2A29282625232235002B002901
:1003B00041E100E00000001E00140004001D00E008
:1003C00000E2081F001A0016001B00010028002090
:1003D00000080007000600090CE3002100150009D1
:1003E000001900E200A800220017000A0005000022
:1003F00000AA002300500D0000500C0000A900A628
:10040000004F1D00004F1C0000AC0024001C000B1E
:100410000011000000AB00250018000D00100002C4
:1004200051AE0026000C000E00360001002C002703
:100430000012000F00370001002A002D00130033C6
:10044000003800E40028002E0031003400E50002EE
:100450005300002900010001000100010000001EFE
:1004600004010001000100010001001F040100015E
:1004700000010001002B0120042F022F00260201A1
:10048000002B03210430023000270201000100226A
:1004900004010001000100000069002304010000C4
:1004A00000010000006A00010001000000010000DE
:1004B0000001000100010001000100000001000135
:1004C0000001000100010001000100010001000124
:1004D00000010001004C18010001000100010001B1
:1004E000004C0001000100010001000100010001B9
:1004F00000010001000100010000000100010001F5
:1005000000010001000000010001000100010001E4
:100510000029000100F400F20001000100F40001D4
:1005200000F000F1000100E000E3000100F500F33D
:10053000000100E20001000100F900FA00010000E2
:1005400000010001000100000001000000010001A5
:100550000001000000010000000100010001000195
:100560000001000000010001000100500001000135
:1005700000010001005200510001000100010001D2
:100580000001004F00010001000100010001000115
:100590000001000100010001000100010001000153
:1005A00000000032190A00047F3F1F6432146432D5
:1005B00014783C1E1E140A0509025400030100A011
:1005C000FA090400000103010100092111010001E1
:1005D0002240000705810308000A09040100010305
:1005E000010200092111010001224D0007058203CB
:1005F00008000A090402000103000000092111019A
:100600000001226D000705830320000A1201000289
:100610000000000897327549010001020001220321
:100620004500720067006F0044006F0078002000F2
:1006300045005A0020005300680069006E00650004
:10064000000030035A0053004100200054006500B0
:10065000630068006E006F006C006F006700790037
:1006600020004C00610062007300200049006E0011
:10067000630000000403090411241FBECFEFDAE079
:10068000DEBFCDBF23E0A0E9B1E001C01D92AF34D1
:10069000B207E1F711E0A0E0B1E0E8E8F1E502C05F
:1006A00005900D92A039B107D9F70E945A210C94F8
:1006B00083280C940000E8EDF0E080818E7F808339
:1006C0001092E2001092DA001092E100A0EEB0E089
:1006D0008C9181608C9380818F77808319BCA7ED8A
:1006E000B0E08C918E7F8C9380818F7E808310927E
:1006F000190308952091E4003091E50095E6A901E1
:100700002091EC00822F817020FF06C08091E800CC
:1007100080FF06C080E008952091E80022FD1AC005
:1007200080913E03882389F0853089F08091EB0029
:1007300085FD0FC02091E4003091E500421753077A
:10074000F9F29150E1F684E0089582E0089583E0A3
:10075000089581E00895EF92FF920F931F93CF9336
:100760007C018B010E947A03C82F811117C08091F0
:10077000E80085FD0BC08091E8008E778093E8004B
:100780000E947A03882399F3C82F08C0F70181914A
:100790007F018093F1000150110949F78C2FCF910F
:1007A0001F910F91FF90EF9008958091400387FF74
:1007B00013C08091E80082FF06C08091E8008B772B
:1007C0008093E80004C080913E038111F2CF089528
:1007D00080913E038823D9F38091E80080FFF8CF11
:1007E0008091E8008E77ECCF982F9093E900242F2A
:1007F000762F50E0891731F07091EC002091ED00D8
:100800005091F00021FD07C09F5F973071F78093F2
:10081000E90081E008953091EB003E7F3093EB00DA
:100820003091ED003D7F3093ED003091EB00316071
:100830003093EB007093EC002093ED005093F000A8
:100840002091EE0027FDE0CF80E00895CF92DF9267
:10085000EF92FF920F931F93CF93DF93C8EDD0E0F9
:1008600088818F7E8883E7EDF0E0808181608083DE
:1008700084E082BF81E08093190388818E7F888322
:1008800002EE10E0F80110821092DA0081EEC82E1C
:10089000D12CF601108288818F77888388818068C7
:1008A000888388818F7D888319BC10923E031092C3
:1008B0003F0310923D0310923C0390EEE92EF12C81
:1008C000F70180818B7F808388818160888342E00B
:1008D00060E080E00E94F403F60180818E7F8083D7
:1008E000F801808181608083808188608083F70146
:1008F00080818E7F8083888180618883DF91CF9122
:100900001F910F91FF90EF90DF90CF900895FC0121
:10091000809146039091470386179707A0F06115D1
:10092000710529F49091E8009E779093E80090E09B
:100930006115710551F4911108C08091E80082FFA2
:1009400034C080E00895BC01F2CF80913E0388233B
:10095000C1F18530C1F18091E80083FD30C0809104
:10096000E80082FDEACF8091E80080FFE1CF80912E
:10097000F3002091F200382F6115710519F028302D
:10098000310558F091E02830310509F090E02091D0
:10099000E8002E772093E800CBCF81918093F1007F
:1009A000615071092F5F3F4FE7CF80913E0388234D
:1009B00041F0853041F08091E80083FFBECF81E0B7
:1009C000089582E0089583E00895089580911B03BF
:1009D000089590910503803F59F48091060387FFA5
:1009E0000DC01092060391110BC01092010308C0B4
:1009F000813F81F48091060318169CF3992381F0BE
:100A00008091070390910803892B09F064C010922C
:100A1000FE020895823F49F497FFF0CF109205033C
:100A2000809106038111ECCFE0CF833F19F41916B2
:100A3000ACF3E4CF20910703893F29F41216F4F6B2
:100A400010920703DBCF8A3F19F427FFD7CFF8CFE7
:100A5000209108038B3F29F427FFD0CF1092080381
:100A6000CDCF8C3F19F41216CCF3C8CF843F31F4AC
:100A7000809104038E7F80930403C0CF853F21F4CF
:100A8000809104038D7FF7CF863F21F4809104038A
:100A90008B7FF1CF873F21F480910403877FEBCFD9
:100AA000883F21F4809104038F7EE5CF8D3F31F4A0
:100AB0008091C2028E7F8093C202A0CF8E3F21F42C
:100AC0008091C2028D7FF7CF8F3F09F097CF809141
:100AD000C2028B7FF0CF089581E008958091C20219
:100AE00080FD14C081FD14C082FD16C080910103F9
:100AF000882381F08E3180F42DE2829FC001112481
:100B00006EE170E00E941B26862F08958BE0089509
:100B100086E1089585E008958DE20895803F31F4DF
:100B20000E946E058195809306030895813F19F414
:100B30000E946E05F8CF823F31F40E946E058195C8
:100B4000809305030895833F19F40E946E05F8CF42
:100B5000893F29F40E946C058093070308958A3F1A
:100B600021F40E946C058195F7CF8B3F31F40E94F0
:100B70006C0581958093080308958C3F19F40E94B9
:100B80006C05F8CF843F31F4809104038160809339
:100B900004030895853F21F4809104038260F7CF18
:100BA000863F21F4809104038460F1CF873F21F4D4
:100BB000809104038860EBCF883F21F48091040387
:100BC0008061E5CF8D3F31F48091C20281608093D6
:100BD000C20208958E3F21F48091C2028260F7CF55
:100BE0008F3FB9F78091C2028460F1CF9C014FB76B
:100BF000F8948091BE029091BF02A091C002B09182
:100C0000C1024FBF821B930B089520912401222320
:100C1000C9F02091D70227FF15C0E62FE695E6958B
:100C2000E695EE31D8F4E80FF92FF11D677021E059
:100C300030E001C0220F6A95EAF7209582812823CF
:100C400022830895FC01329608962191621303C015
:100C5000DF0111971C92E817F907B9F70895209161
:100C600024012223C1F02091D70227FF14C0E62FD0
:100C7000E695E695E695EE31F8F4E80FF92FF11DCB
:100C8000677021E030E001C0220F6A95EAF78281A7
:100C9000822B82830895FC0132962FEF30E0419140
:100CA000641751F02F3F19F4411101C0232F3F5F0A
:100CB0003630A9F72F3F09F40895820F911D27FDC3
:100CC0009A95FC01628308958091B9028111109276
:100CD000B90208958091B8029091B702892B909142
:100CE000B602892B809390019091B9029923A1F0CB
:100CF000892B8093900180912401882341F1809178
:100D0000D70287FF24C08EE1E2E9F1E090E0815054
:100D100000F591110E946406E091DE02F091DF027D
:100D20003097E1F080912401882359F08091D70217
:100D300087FF07C0809190018093910185E08093A7
:100D400090010280F381E02D80E991E0099486E032
:100D5000DBCF21912223D9F29F5FD9CF0895E92FCC
:100D6000EE0FE90FEE0F8E0F982F977086958695F0
:100D7000869525E0829FF0011124E258FD4F50E056
:100D800040E080E0219130E0092E02C036952795A1
:100D90000A94E2F721703327042E01C0220F0A942F
:100DA000EAF7822B4F5F5F4F4530510559F70895A1
:100DB000E92FEE0FE90FEE0F8E0F982F977041E09D
:100DC00001C0440F9A95EAF786958695869595E039
:100DD000899FF0011124E258FD4F30E020E070E0DF
:100DE0005191DF011197CB01022E02C09695879594
:100DF0000A94E2F7817081958527842385278C9357
:100E00002F5F3F4F2530310559F7089580917D02BE
:100E100090914C02981301C008958F5F8770FACFAC
:100E2000882341F080959091B80289238093B8027D
:100E30000C946A060895882339F09091B802982B93
:100E40009093B8020C946A06089520914302309161
:100E500044022817390771F09093440280934302AB
:100E6000E091DE02F091DF02309721F00084F185FD
:100E7000E02D0994089520914102309142022817F3
:100E8000390771F09093420280934102E091DE02B3
:100E9000F091DF02309721F00680F781E02D099470
:100EA0000895E091DE02F091DF02309721F0019089
:100EB000F081E02D099480E00895FA01811101C0CC
:100EC000FB0109948091F702982F9E7F29F481708D
:100ED00082608093F70208958635E8F38170846517
:100EE000F8CFAF92BF92DF92EF92FF920F931F93D2
:100EF000CF93DF93082F162FE901E42FF0E0EA5596
:100F0000FE4F611111C0E4915E2F4E2F4983E8839B
:100F10005A831B82DF91CF911F910F91FF90EF9029
:100F2000DF90BF90AF900895E62EF12C4491D42E1F
:100F3000E42FF0E026E0829FC00111242FEF30E083
:100F4000B9010E940726802F90E0880F991F55E570
:100F5000569FD001579FB00D11248A1B9B0B982FD1
:100F6000990F890F5901AE18BF08AE9ED001AF9EF0
:100F7000B00DBE9EB00D11245B2F189F800111246F
:100F8000012F11275901A01AB10AAE9E8001AF9E10
:100F9000100DBE9E100D11245901A81AB108AE9C67
:100FA000C001AF9C900DBE9C900D1124892F9927F4
:100FB000281B390B2E9FC0012F9F900D3E9F900D37
:100FC0001124E92F62307105A1F050F4611571050B
:100FD00009F49CCF6130710581F0EB2F512F96CF32
:100FE0006430710569F080F06630710509F48ECFC8
:100FF000F4CFE42F4B2F592F89CFE42F412F86CFE9
:10100000EB2F542F492F82CF4B2F5D2DE12F7ECF19
:101010009091D70292FF06C0282F28712830F9F44A
:10102000877F846093FF06C0282F28712831F1F450
:10103000877E84612091D80220FF06C0382F387146
:101040003830D9F4877F816021FF06C0282F2871AE
:101050002831D1F4877E816194FD877E0895282F01
:1010600024712430F9F68B7F8860DCCF282F24711F
:10107000243101F78B7E8861DDCF382F317131301B
:1010800019F78E7F8860E0CF282F2171213121F759
:101090008E7E8861E1CFCF93DF93972F70E026E0BB
:1010A000929F600D711D1124FB0134E5839FE00DBB
:1010B000F11D1124EE0FFF1FE555FC4FC591D49192
:1010C000CE01C238D105B9F1E8F5C133D10509F433
:1010D00099C050F5C932D10509F48DC0CA32D10585
:1010E00009F497C0C11521E5D20708F0BFC0C115AA
:1010F00030E5D30708F016C1C83ED10508F09DC001
:10110000C03ED10568F5C83AD10508F089C0C53A96
:10111000D10508F0FFC0C130D10511F1209709F4C5
:1011200043C02497E8F440C0C533D10509F45CC03E
:10113000C933D105B9F62091D702237089F080EE2A
:1011400090E00EC0C33ED10591F168F4C03ED105D8
:10115000F9F0C23ED10531F62091D70222FD20C020
:10116000DF91CF910895C63ED10561F1C73ED1050B
:1011700081F1C43ED10509F0B5CF2091D80221FFFD
:10118000EFCF8091D70284FD0FC087EE90E0E8CFCB
:101190002091D70220FD12C13091D80230FFE0CF5C
:1011A00083EE90E024FFDCCF90E080E0D9CF209167
:1011B000D70222FD06C13091D80230FDC0CF24FFF6
:1011C000CFCFF2CF2091D70223FFCACF24FDECCF9F
:1011D000DCCF2091D70223FDF7C03091D80231FF38
:1011E000EECF84EE90E0BCCF2091D70225FFB8CFA0
:1011F00089E290E0B5CF2091D70225FFB1CF85E3FA
:1012000090E0AECF2091D70226FFAACF8AE290E0ED
:10121000A7CF2091D70226FFA3CF81E390E0A0CFF4
:10122000CF3BD10508F6C85AD0E0CC0FDD1FCD5A10
:10123000DE4F88819981946493CFC11520E2D20753
:1012400060F4C11531E0D30708F08ACFCE01906574
:10125000C03FD10508F084CFA7CFC11580E4D807DF
:1012600008F4A2CFCE019F70906A7ACFC11595E5A0
:10127000D90710F5C11524E5D20708F088C0C115BB
:1012800033E5D30708F06FC0C11582E5D80708F42D
:1012900065C09E012370332781E090E002C0880F73
:1012A000991F2A95E2F7C695C69520E2C29FE001F4
:1012B00011248C2B9D2B50C0C11599E5D907A0F4A2
:1012C000C11528E5D20708F067C0C11536E5D30778
:1012D00008F06ACF8C2F0E94080890E0982F88278A
:1012E00088279F7190623CCFC1158AE5D80708F422
:1012F00058C0CE0190568115904208F055CF8D2FE1
:101300008F710E94080890E0982F882788279F7186
:101310008C2BE8CFC55AD0E0C05BDE4F888190E0CF
:1013200090641ECF9E01E4E036952795EA95E1F79B
:1013300023708C2F86958695837030E2839FC00141
:101340001124922BC37021E030E002C0220F331F22
:10135000CA95E2F7822B932B9C6802CF9C2F88279B
:10136000816F906AFDCE9E012370332781E090E06B
:1013700002C0880F991F2A95E2F7C695C69530E2FC
:10138000C39FE00111248C2B9D2B9A68E9CE9C2FE2
:101390008827846F906AE4CE9C2F8827806F906A9C
:1013A000DFCE8C2F8F700E94080834E0D695C79549
:1013B0003A95E1F7CF709C2F9069D2CE89E390E007
:1013C000CFCE82EE90E0CCCE86EE90E0C9CEBF923A
:1013D000CF92DF92EF92FF920F931F93CF93DF9301
:1013E0008C01C090DA02D090DB02E090DC02F09039
:1013F000DD028091BA029091BB02A091BC02B09133
:10140000BD02C82AD92AEA2AFB2ACFE1D0E0BC2EA5
:10141000D701C6010C2E04C0B695A7959795879560
:101420000A94D2F780FD0EC0219788F7B12C8B2D3E
:10143000DF91CF911F910F91FF90EF90DF90CF90B0
:10144000BF900895B8018C2F0E944B08019761F35B
:10145000EECFCF93DF93EC010E94E709BE01DF914D
:10146000CF910C944B080E94290A292F2F70929536
:101470009F7092509E3078F4E92FF0E0EB57F74DD3
:101480000C942F26803F19F020F4883E20F481E050
:101490000895843FE1F380E00895883EC0F3813FE2
:1014A000D1F7F5CF822F8695869586950895279852
:1014B0002F98089526982E98089525982D98089588
:1014C00056985E980895279A2F9A0895269A2E9AEC
:1014D0000895259A2D9A0895CF92DF92EF92FF9268
:1014E000CF936B017C01C701AA27BB27C0E10097FE
:1014F000A105B10519F4D701CB01C0E0492F5A2F3E
:101500006B2F7727411551056105710519F0C85FEB
:10151000DB01CA01AC01BD01E4E076956795579502
:101520004795EA95D1F7411551056105710519F007
:10153000CC5FDB01CA01AC01BD0132E07695679555
:10154000579547953A95D1F74115510561057105B4
:1015500019F0CE5FDB01CA01B695A79597958795DF
:10156000892B8A2B8B2B09F0CF5F0E94600A0E9487
:101570005D0A0E945A0A0E94570AC150C73040F4BF
:10158000EC2FF0E0ED56F74D0C942F260E94690ADF
:10159000C701B601CF91FF90EF90DF90CF900895F3
:1015A0000E94690A0E94660AF3CF0E94690A0E949B
:1015B000630AEECF0E94690A0E94660AF8CF20985B
:1015C00028982198299822982A9823982B985298FD
:1015D0005A9853985B983E98469808958098889AB0
:1015E0008198899A84988C9A85988D9A86988E9AF3
:1015F00087988F9A0895CF93DF9300D00F92CDB73D
:10160000DEB790913E03943019F589837B836A831A
:1016100083E08093E9008FEF9091E800815095FD81
:1016200006C095ED9A95F1F700008111F5CF8091F4
:10163000E80085FF0DC050E040E063E070E0CE01BF
:1016400001960E94AB038091E8008E778093E800BA
:101650000F900F900F90DF91CF910895BC0184E01F
:101660000C94FB0ABC0183E00C94FB0A9C0182E011
:101670008093E9009FEF8091E800915085FD06C0BE
:1016800085ED8A95F1F700009111F5CF8091E80082
:1016900085FF0CC050E040E065E070E0C9010E94A9
:1016A000AB038091E8008E778093E8000895CF9394
:1016B000DF93EC01809124018823B1F18091D7025E
:1016C00087FF32C060E283E08093E9008FEF909162
:1016D000E800815095FD06C095ED9A95F1F7000060
:1016E0008111F5CF8091E80085FF1BC08091240116
:1016F00070E050E040E0811104C050E040E068E05C
:1017000070E0CE010E94AB038091E8008E77809359
:10171000E80080E2FE01ACE1B3E001900D928A9511
:10172000E1F7DF91CF91089568E081E0CDCFEF92AE
:10173000FF920F931F93CF93DF930E94600A0E9442
:101740005D0A0E945A0A0E94570A88E8E82EF12C86
:101750008FEF90E0F701918380830AE810E0F801B1
:1017600091838083CCE8D0E0998388830E94690AC2
:10177000FFEF20E782E0F15020408040E1F700C019
:1017800000000E94660A9FEFE0E7F2E09150E0401F
:10179000F040E1F700C000000E94630A2FEF80E7ED
:1017A00092E0215080409040E1F700C000000E948C
:1017B0005D0AEFEFF0E722E0E150F0402040E1F772
:1017C00000C000000E945A0A8FEF90E7E2E08150CB
:1017D0009040E040E1F700C000000E94570A80916D
:1017E000C5028770FFEF8F9FC001112495958795E3
:1017F000959587959927F70191838083F8019183C7
:101800008083998388830E94600A0E945D0A0E94F7
:101810005A0ADF91CF911F910F91FF90EF900C9496
:10182000570ACF9384E090E00E94D827C82F81E226
:1018300090E00E94D827982F8C2FCF910895CF92B7
:10184000DF92EF92FF926B017C010E946207B70169
:10185000A60188E090E0FF90EF90DF90CF900C948D
:10186000FE278091FB02882319F081508093FB02B0
:101870006091F7027091F8028091F9029091FA025A
:101880000C941F0C8091FB02833018F48F5F8093BF
:10189000FB026091F7027091F8028091F902909139
:1018A000FA020C941F0CE7EFF2E083E080831182D0
:1018B0008FEF82838383148260817181828193811F
:1018C0000C941F0C6FEE7EEF90E080E00E940A28DF
:1018D00060E082E090E00E94EC2760E083E090E02E
:1018E0000E94EC271092BA021092BB021092BC0226
:1018F0001092BD0260E084E090E00E94EC2760E07E
:1019000081E290E00E94EC2760E085E090E00E9498
:10191000EC2760E086E090E00E94EC276FEF87E024
:1019200090E00E94EC2740E050E0BA0188E090E0AF
:101930000E94FE2760E08DE090E00E94EC2740E0EE
:1019400050E0BA0188E190E00E94FE2760E087E164
:1019500090E00E94EC2740E050E0BA018CE190E07A
:101960000E94FE2760E080E290E00E94EC2740E0C9
:1019700050E0BA0188E190E00E94FE271092C50273
:101980001092C6021092C7021092C80284E08061D1
:101990008093C5024091C5025091C6026091C70272
:1019A0007091C8028FE090E00E94FE2740E050E076
:1019B000BA0183E190E00C94FE27CF93C82F8730C3
:1019C00070F58091180190911901892B89F564E6D1
:1019D00070E080E40E943A259093190180931801E9
:1019E000892BD1F464E670E082E10E949625909301
:1019F000190180931801892B79F481E090E001C0EE
:101A0000880FCA95EAF764E670E080950E949625F3
:101A10009093190180931801CF910C94E9258A3095
:101A2000B9F040F4883071F0893079F0209A289824
:101A3000CF9108958C3091F070F08D30B9F73E9AC7
:101A40004698F6CF219A2998F3CF229A2A98F0CF78
:101A5000239A2B98EDCF529A5A98EACF539A5B98D3
:101A6000E7CFCF93DF938091F70280FD0BC0EAEBC5
:101A7000F1E01182108212821382349651E0E63F27
:101A8000F507B9F7CAEBD1E0FE01928120813181DF
:101A9000892F291708F4822F381708F4832F83839E
:101AA000381B3183281B2083981B9283349681E056
:101AB000E63FF80751F70E94342564E670E084E8B9
:101AC0000E943A2564E670E088810E94962564E6CB
:101AD00070E089810E94962564E670E08A810E9408
:101AE000962564E670E08B810E949625249691E00D
:101AF000C63FD90739F70E94E925579A3BB13F778E
:101B00002BB120684FB7F8948AEB91E0FC0151911A
:101B1000CF0168E02BB9000000C057FF3BB9550F5B
:101B2000000000C000C000C03BB900C06A9591F73A
:101B3000F1E0863F9F0751F74FBF8FE594E0019793
:101B4000F1F700C00000DF91CF9108958F929F922E
:101B5000AF92BF92CF92DF92EF92FF920F931F93BB
:101B6000CF93DF93FC01B280948081E08483C6EF41
:101B7000D1E00AEB11E08BE4A82E88248394EE24B4
:101B8000EA94F12C2BE4C22ED12C91101DC01B82A3
:101B90001A8298014A81698188810E94710725967D
:101BA0000C5F1F4F82E0C134D80779F7DF91CF91E6
:101BB0001F910F91FF90EF90DF90CF90BF90AF906B
:101BC0009F908F900C94310D2B81222309F121508D
:101BD0002B833C818A2D821B311101C0822F909171
:101BE000FA02899FC0011124B6010E9407266A8368
:101BF000211104C0332311F01C82AB8222E02B158B
:101C000040F28091F80288838091F9028983C1CFE4
:101C10000E949026823091400CF0BBCF82E08B1561
:101C2000C0F40E949026B7010E941B26888322E000
:101C30002B1590F40E9490262091F9022695622F90
:101C400070E00E941B26280F29831A82AB828C82A7
:101C5000A0CF8091F802EACF2091F902F5CFEF9260
:101C6000FF921F93CF93DF93EC018AEBE82E81E084
:101C7000F82E10E08C8197014091FA026091F902F0
:101C8000810F0E9471071F5E84E0E80EF11C1F3F68
:101C900089F70E94310D9A818C8190FF08C08F5F77
:101CA0008C83DF91CF911F91FF90EF900895815029
:101CB000F7CFBF92CF92DF92EF92FF920F931F93D5
:101CC000CF93DF93FC018281DD24DA9480FD02C092
:101CD000DD24D3940AEB11E0D0E0C0E02FE0B22E77
:101CE000F801118210821282138294E0E92EF12C05
:101CF000C12C8091B7018C0D80310CF43DC06B2D4F
:101D00000E94F925892F082E000C990B8C179D072E
:101D100091F48091FA028E9DA0018F9D500D1124A7
:101D2000559547955595479598016091F902809191
:101D3000F8020E947107CD0CF1E0EF1AF108C9F624
:101D400021960C5F1F4FCF30D10551F60E94310D07
:101D50008091B70191E0D91215C0811111C08EE0B8
:101D60008093B701DF91CF911F910F91FF90EF907A
:101D7000DF90CF90BF90089587FFC5CF815FC3CF1D
:101D80008150EECF90E00196BE010E941B26E8CF65
:101D90000F931F93CF93DF93CAEBD1E0FE01118223
:101DA000108212821382349681E0E63FF807B9F779
:101DB00010E000E08091B801082E000C990B081784
:101DC00019078CF180911601082E000C990B8017D1
:101DD00091074CF19E014091FA026091F9028091C5
:101DE000F8020E9471070F5F1F4F24960F301105F4
:101DF00009F70E94310D809115019091B801980F5B
:101E00009093B80120911601280F20931601121605
:101E100014F49E301CF0819580931501DF91CF91D1
:101E20001F910F910895198218821A821B82DBCFAD
:101E30008F929F92AF92BF92CF92DF92EF92FF92DA
:101E40000F931F93CF93DF93EC014C81042F10E08D
:101E50009801D8010E9474289B01AC010E943F2880
:101E60004B015C01E0E2F0E0E01BF10BA5E5B0E026
:101E7000AC019B010E943F286B017C019F01DF01A7
:101E80000E9435269B01AC010E944A289B01AC01AF
:101E9000280D391D4A1D5B1DC701B6010E9452283D
:101EA000F22E822F90E039E23F15D8F143E0249FD3
:101EB0009001112435952795122F10959AEBC92E74
:101EC00091E0D92E00E085E5E82EEF188E2D01FD7A
:101ED0008F2D9601412F6091F9020E9471070F5FCB
:101EE00054E0C50ED11C0F3089F70E94310D9C8142
:101EF00081E0992319F0903219F48FEF8093170144
:101F000080911701890F8C83DF91CF911F910F91E1
:101F1000FF90EF90DF90CF90BF90AF909F908F9009
:101F2000089525E530E0A901481B590BCA019A0123
:101F3000220F331F280F391F37FFBCCF2F5F3F4FB2
:101F4000B9CFEF92FF920F931F93CF93DF938C0142
:101F5000CAEBD1E0F12CE12CF80194816091F902F7
:101F60008091F802F7E0EF16F104FCF49923F9F000
:101F70009E014091FA020E9471072FEFE21AF20AC5
:101F800024968FE0E816F10439F70E94310DF8012C
:101F9000848190E00196817099278483DF91CF91AD
:101FA0001F910F91FF90EF900895992309F39E01DF
:101FB00040E0E1CF9091F70290FF0DC0EAEBF1E035
:101FC0008183608342831382349691E0E63FF90770
:101FD000B9F70C94310D08950F931F93CF93DF93AE
:101FE00000D000D0CDB7DEB78C018091B90181114E
:101FF0000AC09E012F5F3F4F4FEF6FEF0E947107A6
:102000008A818093B901F8016481613069F080911F
:10201000B90140E0662361F040E0623011F4409184
:10202000B90180E060E004C06091B90140E080E067
:102030000E94DA0FF801848190E0019663E070E07D
:102040000E941B2684830F900F900F900F90DF91BA
:10205000CF911F910F910895CF93DF9300D000D0BF
:10206000CDB7DEB79091F70290FF0AC09E012F5FB7
:102070003F4F0E9471074B8169818A810E94DA0F6C
:102080000F900F900F900F90DF91CF910895CF9305
:10209000DF93EC01EC81F0E0E555FD4F4491E7EF73
:1020A000F2E0628181810E942C108C818F5F8C8391
:1020B000DF91CF910895CF93DF93EC01E7EFF2E04A
:1020C000438162818C810E942C108C818F5F8C8374
:1020D000DF91CF9108955F926F927F928F929F923E
:1020E000AF92BF92CF92DF92EF92FF920F931F9326
:1020F000CF93DF9300D000D0CDB7DEB7182F762E68
:10210000042F622E9091F70290FF29C0E92FE695E7
:10211000AE2FB0E0AB5DBE4F8C918093FC029E7FF2
:10212000923089F59E012F5F3F4F812F0E947107EA
:102130004B8169818A810E94DA0F1093F8027092B4
:10214000F9020093FA02662051F06091F702709153
:10215000F8028091F9029091FA020E941F0C0F90F0
:102160000F900F900F90DF91CF911F910F91FF90E3
:10217000EF90DF90CF90BF90AF909F908F907F9027
:102180006F905F900895823019F40091FA02D5CFD4
:10219000863019F41091F802D0CF8930D9F3893103
:1021A00061F6E9518E2F8170582EE695F0E0EA55E0
:1021B000FD4FA590B490BB248AEBE82E81E0F82E69
:1021C000D12CC12C9FE0892E912CC601B4010E9414
:1021D0000726812F511013C0860F9701402F672DBE
:1021E0000E947107CA0CDB1C84E0E80EF11C86EF2C
:1021F000E81681E0F80649F70E94310D9ECF861B54
:10220000ECCFE7EFF2E043812CE0421B08F440E022
:1022100021E0628181810C946B10E7EFF2E0438151
:102220002CE0420F08F44FEF21E0628181810C9491
:102230006B10E7EFF2E062812FEF621B08F460E0C1
:1022400021E0438181810C946B10E7EFF2E0628121
:102250002FEF620F08F46FEF21E0438181810C942E
:102260006B10E7EFF2E0818121E0438162818C50C5
:102270000C946B10E7EFF2E0818121E043816281F1
:10228000845F0C946B1080E290E09093190180932E
:1022900018018091B00181110EC00E94342581E0A7
:1022A0008093B0012FEF83ED90E321508040904068
:1022B000E1F700C0000064E670E080E40E943A2587
:1022C0009093190180931801892B09F04EC064E6A0
:1022D00070E080E00E949625909319018093180188
:1022E000892B09F042C064E670E080E00E949625E8
:1022F0009093190180931801892BB9F564E670E079
:102300008FE30E9496259093190180931801892BE1
:1023100061F50E94E92564E670E080E40E943A25B8
:102320009093190180931801892BF9F464E670E009
:102330008CE00E9496259093190180931801892BB7
:10234000A1F464E670E080E00E9496259093190164
:1023500080931801892B49F464E670E08FE30E94B2
:10236000962590931901809318010E94E925809188
:1023700018010895CF93873050F5809118019091FE
:102380001901C0E0892B71F464E670E081E40E94D9
:102390003A259093190180931801892B31F0C0E000
:1023A0000E94E9258C2FCF91089584E690E00E9449
:1023B000C52597FF05C09093190180931801EFCFB1
:1023C000C82FC0951092190110921801E9CFCFB112
:1023D0008FB1869586958C73C3708C2BC82FC09552
:1023E000E1CF1F920F920FB60F9211242F933F93BC
:1023F0004F935F936F937F938F939F93AF93BF930D
:10240000EF93FF938091E10082FF09C08091E20089
:1024100082FF05C08091E1008B7F8093E100809175
:10242000DA0080FF24C08091D80080FF20C0809116
:10243000DA008E7F8093DA008091D90080FF9BC004
:1024400080E189BD82E189BD09B400FEFDCF81E054
:1024500080933E0380911903811109C00E945B03A0
:102460000E9426048091E20084608093E2008091C3
:10247000E10080FF17C08091E20080FF13C08091CF
:10248000E2008E7F8093E2008091E2008061809381
:10249000E2008091D80080628093D80019BC85E06A
:1024A00080933E038091E10084FF29C08091E20087
:1024B00084FF25C080E189BD82E189BD89B5982F5F
:1024C000917080FFFBCF8091D8008F7D8093D800E2
:1024D0008091E1008F7E8093E1008091E2008F7E09
:1024E0008093E2008091E20081608093E20080911D
:1024F0003F03882309F445C084E080933E03809124
:10250000E10083FF27C08091E20083FF23C0809118
:10251000E100877F8093E10082E080933E03109288
:102520003F038091E1008E7F8093E1008091E20083
:102530008E7F8093E2008091E20080618093E200D0
:1025400042E060E080E00E94F4038091F000886047
:102550008093F000FF91EF91BF91AF919F918F9188
:102560007F916F915F914F913F912F910F900FBE8F
:102570000F901F90189519BC10923E0310921903EA
:1025800076CF8091E30087FD93E090933E03B7CF31
:1025900078941F921FB61F9211248F939F93AF932D
:1025A000BF938091BE029091BF02A091C002B091F2
:1025B000C1020196A11DB11D8093BE029093BF027E
:1025C000A093C002B093C102BF91AF919F918F9130
:1025D0001F901FBE1F9018952FB7F8948091BE02D0
:1025E0009091BF02A091C002B091C1022FBF089587
:1025F0000E94EC129C019091050380910603982B98
:1026000021F03093030320930203909107038091FC
:102610000803982B21F0309300032093FF02E091F0
:10262000DE02F091DF02309731F00480F581E02D79
:1026300084E093E0099408951092B7021092B602D4
:102640000E946A0685E0E4E0F3E0DF011D928A95CE
:10265000E9F7109201031092FE021092C2020E944A
:10266000F81290E080E00E943B0790E080E00C943C
:1026700025070E946C0A6093DA027093DB02809354
:10268000DC029093DD020C941C130F931F9341E026
:1026900050E060E070E004C0440F551F661F771FD4
:1026A0008A95D2F7CB01BA01609570958095909587
:1026B0000091DA021091DB022091DC023091DD0200
:1026C00060237123822393231F910F910C9439135C
:1026D0009091B502809589238093B502282F2770A9
:1026E00071F4282F082E000C330B9217130639F0C3
:1026F0008595859585950E9445131092B50208959C
:102700000F931F9341E050E060E070E004C0440F7D
:10271000551F661F771F8A95D2F78091DA02909134
:10272000DB02A091DC02B091DD028A019B01082B43
:10273000192B2A2B3B2BC901B8011F910F910C9427
:1027400039136093BA027093BB028093BC029093DA
:10275000BD020C941C131092B80280912401E2E98E
:10276000F1E0882359F08091D70287FF07C08EE1FE
:10277000DF011D928A95E9F70C941C1386E0F8CFCF
:102780001F93CF93DF93CDB7DEB7AA970FB6F89418
:10279000DEBF0FBECDBF80E493E02091F100DC01ED
:1027A0002D93CD01B3E088349B07B9F780914103A5
:1027B000833009F471C0B8F4813009F448C0823024
:1027C00009F4B2C08091E80083FF83C28091400386
:1027D000909141039A3008F07CC2E92FF0E0E65670
:1027E000F74D0C942F268A3009F48DC08B3009F4F4
:1027F00070C0893039F780914003813219F7809198
:10280000440390914503009711F00297D9F6809107
:10281000E800877F8093E8008091E80082FF37C05E
:102820009091F3008091F200029729F48091F100D9
:102830008B7F813021F48091F10080931B03809184
:10284000E8008B778093E8000E94D503BBCF80918E
:102850004003813A09F0B6CF8091E800877F8093EA
:10286000E8008091440390914503892B61F460E274
:102870008CE193E070E00E9487048091E8008B7700
:102880008093E8009FCF60E090E080E0F3CF8091FC
:102890003E038111C1CF96CF80914003813A09F068
:1028A00091CF8091440390914503892B09F08ACF01
:1028B0008091E800877F8093E8008091E80080FFA6
:1028C000FCCF809124018093F1008091E8008E7705
:1028D000B9CF80914003813209F074CF80914403D5
:1028E00090914503892B09F06DCF8091E800877F97
:1028F0008093E8000E94D5038091420380932401D5
:102900000E94AB135FCF80914003813209F05ACF10
:102910008091E800877F8093E8000E94D503809132
:10292000430380931A034ECF80914003813A09F00C
:1029300049CF8091E800877F8093E8008091E8008C
:1029400080FFFCCF80911A03BECF803899F0823887
:1029500009F0BFC1809144038F70873008F0B9C17E
:102960008093E9008091EB0085FB882780F9109225
:10297000E90006C080913C0390913D039111826073
:102980009091E800977F9093E8008093F100109277
:10299000F1008091E8008E7798C1882309F486C100
:1029A000823009F096C180914203811189C18091E2
:1029B00044038F702FEF280F263008F08AC18093D0
:1029C000E9002091EB0020FF7BC1933031F480912E
:1029D000EB0080628093EB0073C19091EB009061FB
:1029E0009093EB0021E030E001C0220F8A95EAF7D6
:1029F0002093EA001092EA008091EB008860EACF11
:102A0000811167C1109142031F778091E3008078A4
:102A1000812B8093E3008091E800877F8093E8001A
:102A20000E94D5038091E80080FFFCCF8091E300F5
:102A300080688093E30082E0111183E080933E037D
:102A400048C18058823008F044C12091420330913F
:102A500043032C3DE3E03E07A1F583E08A838AE24D
:102A600089834FB7F894DE01139620E03EE051E2EF
:102A7000E32FF0E050935700E49120FF03C0E2956C
:102A8000EF703F5FEF708E2F90E0EA30C0F0C79696
:102A90008D939D932F5F243159F74FBF8091E800AC
:102AA000877F8093E8006AE270E0CE0101960E9481
:102AB00087048091E8008B778093E8000AC1C09674
:102AC000E7CF8091440390914503432F552743302E
:102AD000510509F44AC078F54130510509F47AC02E
:102AE00084E590E0E8EBF5E04230510509F0F1C0F3
:102AF0002091E800277F2093E80020914603309141
:102B000047038217930708F49C0140E02115310523
:102B100009F065C0411163C08091E80082FDC9CF12
:102B200080913E03882329F2853019F28091E800D4
:102B300083FFF2CFBECF4132510509F43CC042328F
:102B4000510509F0C6C08330910508F0C2C0FC01F0
:102B5000EE0FFF1FEC57FE4F0190F081E02D8F57D5
:102B60009E4FDC018C9190E01AC033272130310553
:102B7000D1F02115310561F02230310509F0A9C0ED
:102B8000EEE1F6E0E4918E2F90E0EEE1F6E007C092
:102B9000E4E7F6E0E4918E2F90E0E4E7F6E00097BA
:102BA00009F497C0A5CFE2E4F6E0E4918E2F90E01F
:102BB000E2E4F6E0F4CF8330910508F08AC0880F94
:102BC000991FFC01E657FE4F0190F081E02D89E04E
:102BD00090E08ECF82E190E0ECE0F6E089CF80914A
:102BE0003E03882309F465CF853009F462CF8091D4
:102BF000E80083FD5ECF8091E80082FD8DCF80915B
:102C0000E80080FF83CF9091F3008091F2002115BE
:102C1000310519F08830910550F041E0089709F02E
:102C200040E08091E8008E778093E8006FCF449178
:102C30004093F1003196215031090196E8CF803858
:102C400009F047C08091E800877F8093E800809179
:102C50003F038093F1009DCE81113BC01091420350
:102C60001230B8F58091E800877F8093E8001093D8
:102C70003F030E94D503112311F084E005C0809129
:102C8000E30087FDFACF81E080933E0342E061ECF0
:102C900081E00E94F40342E061EC82E00E94F403D0
:102CA00042E261EC83E00E94F40313C0809142038E
:102CB000813079F481E0933009F080E080933D0326
:102CC0001092E9008091E800877F8093E8000E94DD
:102CD000D5038091E80083FF0AC08091E800877FD8
:102CE0008093E8008091EB0080628093EB00AA96CD
:102CF0000FB6F894DEBF0FBECDBFDF91CF911F910D
:102D000008951F920F920FB60F9211242F933F93A5
:102D10004F935F936F937F938F939F93AF93BF93E3
:102D2000CF93DF93EF93FF93D091E900DF70809111
:102D3000EC00C82FC17080FDC0E81092E9008091BE
:102D4000F000877F8093F00078940E94C013109267
:102D5000E9008091F00088608093F000CD2BCF7067
:102D6000C093E900FF91EF91DF91CF91BF91AF91B7
:102D70009F918F917F916F915F914F913F912F9193
:102D80000F900FBE0F901F9018958823B1F19CEF04
:102D9000980F913A38F4682F80E991E00E94050677
:102DA0000C946A0690E2980F983088F4877021E0BE
:102DB00030E0A90102C0440F551F8A95E2F7CA010D
:102DC00080959091B80289238093B802E9CF9BE562
:102DD000980F933020F490E080E00C943B0798E546
:102DE000980F973120F490E080E00C942507803F05
:102DF00020F00E94E9040C94F8120895CF93C82F94
:102E0000882309F46EC08CEF8C0F813AB8F580915D
:102E10002401882311F18091D70287FF1EC0EC2F77
:102E2000E695E695E695F0E0E057FE4F828190E06A
:102E30004C2F477021E030E002C0220F331F4A952B
:102E4000E2F782239323892B89F06C2F80E991E0AC
:102E50000E9405060E946A0609C0E2E9F1E081913C
:102E6000C81799F381E0E839F807C9F76C2F80E9B2
:102E700091E00E942F06CF910C946A0680E28C0F9D
:102E8000883068F4C77021E030E001C0220FCA9595
:102E9000EAF78091B802822B8093B802ECCFEBE581
:102EA000EC0FE33040F4F0E0E05BFE4F808190E017
:102EB000CF910C943B07E8E5EC0FE73150F4F0E0DC
:102EC000EE0FFF1FED5AFE4F80819181CF910C9440
:102ED0002507C03F30F08C2F0E948E05CF910C94B7
:102EE000F812CF9108950F931F93CF93DF93C62FBE
:102EF000D42F022FFC0182818823A1F060934A0322
:102F00000E94EC129093490380934803C77081E0BC
:102F100001C0880FCA95EAF7DF91CF911F910F91F9
:102F20000C941B0780914A03681338C080914803B2
:102F3000909149030E94F6058937910578F510E2D2
:102F40001D0FCD17B9F080E28C0F883040F4C770A8
:102F500081E001C0880FCA95EAF70E941007183077
:102F600048F481E09D2F977001C0880F9A95EAF789
:102F70000E941B07802F0E94FE16802F0E94C516FC
:102F8000183098F4D77081E001C0880FDA95EAF71D
:102F9000DF91CF911F910F910C941007C77081E0C2
:102FA00001C0880FCA95EAF7F3CFDF91CF911F9147
:102FB0000F9108956091F702669570E04BE050E044
:102FC0008AE091E00E94CB27892B19F481E080935D
:102FD000FD020E94EC129093F2028093F102089598
:102FE0009091F70290FF36C09170811129C09260D4
:102FF0009093F702662351F06091F7027091F80206
:103000008091F9029091FA020E941F0C6091F702E0
:10301000669570E04BE050E08AE091E00E94CB279B
:10302000892BA9F01092FD0281E08093F40220E048
:103030004091FA026091F9028091F8020C946B10B1
:103040008B3210F09465D4CF880F982BD1CF0E948B
:10305000DA17EACF08958091F7028695815009F436
:103060008AE261E00C94F0178091F70286958F5FF9
:103070008B3208F081E061E00C94F0179091F70238
:1030800090FF07C09695981720F0961710F40C94AF
:10309000341861E00C94F0174F925F926F927F9218
:1030A0008F929F92AF92BF92CF92DF92EF92FF9258
:1030B0000F931F93CF93DF9300D000D00F92CDB723
:1030C000DEB77C01FC0183819481892B39F010816A
:1030D000D180812F8D218F3F09F073C50F900F9004
:1030E0000F900F900F90DF91CF911F910F91FF9054
:1030F000EF90DF90CF90BF90AF909F908F907F9098
:103100006F905F904F9008950E94E709082F682FF5
:1031100089819A810E94D806E12FF0E026E0D29EB4
:10312000E00DF11D112434E5039FE00DF11D112484
:10313000EE0FFF1FE555FC4F059114910A328DE506
:10314000180709F088C0F70182818823C9F18091AE
:10315000C50291E0980F9770887F953008F4892B0D
:103160008093C5028091C5028770FFEF8F9FC001D9
:103170001124959587959595879599279093890022
:103180008093880090938B0080938A0090938D00A9
:1031900080938C004091C5025091C6026091C70295
:1031A0007091C8028FE090E00E94FE276091DA02E1
:1031B0007091DB028091DC029091DD020E946C0A2A
:1031C000F7019281992309F40DC510924A03023048
:1031D000FCE51F0708F484C106312CE5120738F01E
:1031E00098012B5F3C452730310508F079C10E94DA
:1031F000110C9093D8028093D7020F303CE513074F
:1032000009F44FC108F0C9C008309CE5190709F45A
:1032100032C108F09EC00430FCE51F0709F41FC14D
:1032200008F084C002303CE5130709F410C10330F4
:103230001C4509F410C16091D7021091D80284E0B6
:1032400090E00E94EC27612F81E290E00E94EC2741
:103250000E94AB132FC00C322DE5120709F44CC0AD
:10326000043F3CE5130709F452C098F4093D9CE57E
:10327000190709F448C00A3DECE51E0709F453C0DC
:10328000083DFCE51F0709F09BCF26E241EE61EE09
:103290000EC0063F2CE5120709F441C0E0F127E219
:1032A00045EE66EE073F8CE5180709F089CFC701A8
:1032B0000E9473178091B502877009F40FCFF70150
:1032C0008281882309F40ACF82E00F900F900F903B
:1032D0000F900F90DF91CF911F910F91FF90EF9082
:1032E000DF90CF90BF90AF909F908F907F906F9026
:1032F0005F904F900C946813F70182818823D1F27C
:1033000061E081E028C127E245EE65EED0CF26E2FC
:1033100041EE60EECCCF27E245EE64EEC8CF26E268
:1033200041EE62EEC4CF28E241E0EFCF8091D702B8
:10333000806106309CE5190709F447C08091D702E7
:10334000886007301C4508F440C08091D702806235
:103350003CC00B30FCE51F0709F49BC068F4093042
:103360003CE5130709F48BC00A301C4509F063CF14
:103370008091D7028C6029C08091D7028B7F0D305D
:103380009CE5190711F18091D7028D7F0E301C4505
:10339000E0F08091D702877F18C00B3FFCE51F0744
:1033A00009F461C060F502313CE5130709F481C0FE
:1033B00078F400319CE5190709F477C08091D702B1
:1033C0008F7B01311C4509F036CF8093D70233CF74
:1033D0000431FCE51F0709F47AC008F470C0053118
:1033E0001C4509F028CF8091D70282FB992790F9DC
:1033F00021E0922790FB82F990FB83F9E6CF0E3F04
:103400008CE5180709F449C070F40C3FECE51E0781
:1034100071F18091D8028E7F0D3F1C4509F00BCFD2
:103420008093D80208CF01152DE5120709F44BC08F
:1034300060F101301D4509F0FECE8091D802982F31
:10344000909591708E7F892B90FB81F9E9CF8091C7
:10345000D7028160BACF8091D7028260B6CF8091C7
:10346000D7028460B2CF8091D8028160D9CF809199
:10347000D8028260D5CF8091D7028064A6CF0E9407
:10348000AB138091D7028068A0CF8091D80283606F
:10349000C7CF8091D7028E7F98CF8091D8028D7F41
:1034A000BFCF8091D7028F7E90CF8091D7028F7D42
:1034B0008CCF0E94AB138091D7028F7786CF8091FB
:1034C000D702837F82CF8091D8028C7FA9CF0E94C0
:1034D000AB139091D702892F97FB87F9805875CF4E
:1034E0008091B8020631ECE51E0709F089C38A7A9B
:1034F00091E009F490E09093450269E2811165E35F
:1035000080E991E00E942F060E946A06D3CE809146
:10351000F70280FF1BC08E7F8093F7026091F70255
:103520007091F8028091F9029091FA020E941F0CAA
:103530001092FD02FFEF20E732E0F15020403040D2
:10354000E1F700C000000E94310DB4CE816080938D
:10355000F70261E086950E94F017ACCE4BE258E18D
:1035600064E378E10E945D07A5CE44E358E16BE295
:1035700078E1F8CF41E351E16AE371E1F3CF4AE347
:1035800051E161E371E1EECF49E151E165E271E1C1
:10359000E9CF45E251E169E171E1E4CF41E051E178
:1035A0006DE071E1DFCF4DE051E161E071E1DACF33
:1035B00041E35CE062E47CE0D5CF42E45CE061E3BF
:1035C0007CE0D0CF65E082E00E943E1873CE68E0D8
:1035D00086E0FACF6EE089E0F7CF64E18FE0F4CFC8
:1035E00067E185E1F1CF61E088E1B5CF62E289E191
:1035F000EBCF61E083E2AFCF01158CE5180709F44A
:1036000047C00F3D1C4509F480C0F70100811181BE
:10361000992309F47DC0C8010E94E709D82E682FBC
:10362000C8010E94D806B8018D2D0E944B088C015C
:10363000882EF701A580A2944FE0A422D280D11059
:103640001092B7028091B502877099F0DD2089F061
:10365000812F807F803421F080E2800F883048F015
:1036600082E00E9468138091B5028770CC24C394D5
:103670008111C12CB12EB2943FE0B322FBE0FB15C7
:1036800008F480C0EB2DF0E0EC55F74D0C942F269C
:103690000E94AB13FFEF24E33CE0F15020403040A8
:1036A000E1F700C00000F89481E08093E00080E240
:1036B0008093D8001092C9008FE19EE40197F1F742
:1036C00000C000001DBA109268001CBC10BE1FBADA
:1036D00010927A0010926E0010926F00109271009A
:1036E000109272001092C9001092BC0014B817B862
:1036F0001AB81DB810BA1092BC0015B818B81BB88B
:103700001EB811BA0C94003FD5CD0E94620CD2CDE8
:10371000C8010E94AF06D82E86CF212F2F70A22E6F
:10372000107F19F0A29420EFA222DD20C9F0AA2078
:1037300069F080E2800F883010F081100BC080911A
:10374000B802A82AA092B8020E946A06802F0E949E
:10375000FE1618C08091B702A82AA092B702F4CF33
:10376000802F0E94C516AA2069F0A094005E083040
:1037700010F0811046C08091B802A822A092B80231
:103780000E946A062B2D2850330B2430310510F48B
:103790000E945107CC20A9F08091B50280FD11C094
:1037A000F70112828595859585950E948013C70142
:1037B0000E944C188091B5028595859585950E944B
:1037C000451385E0F701DE01119601900D928A956F
:1037D000E1F789819A810E94AF069A81E981F0E040
:1037E00026E0929FE00DF11D112434E5839FE00D4A
:1037F000F11D1124EE0FFF1FE555FC4F85919491AB
:103800006DCC8091B702A822A092B702B9CF312F18
:103810003F70932E107F103219F0929490EF9922FE
:10382000882041F081E0881631F1DD2079F1AA206D
:1038300041F18CCFDD2091F09091B902892D892B37
:10384000A11003C00E941B079DCFE1E0AE12FACF8A
:10385000981709F497CF8093B90294CFA11006C0AE
:103860000E946406892D0E9410078CCFF1E0AF16EC
:1038700009F488CFF5CFDD2031F021E02A1508F4D6
:1038800081CF892DDFCFA1107DCFECCFAA2051F3BE
:1038900039E383128FC18FEF97EEE3E081509040C0
:1038A000E040E1F700C0000085C1812F8695869534
:1038B000837061F0813009F065CFC8019370D11039
:1038C00002C090E080E00E9425075CCFC8019370A1
:1038D000D11002C090E080E00E943B0753CF802FC0
:1038E000DD2029F00E948E050E94F8124BCF0E9425
:1038F000E904FACF812F837009F066C0D11042CF5E
:10390000802F829586958770880F880F602F6F7043
:10391000462E512C712C612C082E04C0440C551CD1
:10392000661C771C0A94D2F740E050E0BA0104FF0D
:103930000FC04FE050E060E070E004C0440F551F3E
:10394000661F771F8A95D2F74095509560957095C0
:10395000812F869586958370823019F1D8F4009175
:10396000BA021091BB022091BC023091BD0281309D
:1039700069F04429552966297729CB01BA016023CA
:103980007123822393230E94A113FCCE402A512A43
:10399000622A732ACB01BA016429752986299729DD
:1039A000F2CF44295529662977290091BA0210914E
:1039B000BB022091BC023091BD02CB01BA0160274D
:1039C000712782279327DFCF8695DD2011F0812F85
:1039D0008170882309F4D6CE802F829586958770D2
:1039E000880F880F602F6F70462E512C712C612C20
:1039F000082E04C0440C551C661C771C0A94D2F790
:103A000040E050E0BA0104FF0FC04FE050E060E03A
:103A100070E004C0440F551F661F771F8A95D2F7C8
:103A20004095509560957095812F86958695837009
:103A3000823019F1D8F40091DA021091DB02209162
:103A4000DC023091DD02813069F044295529662974
:103A50007729CB01BA0160237123822393230E942B
:103A6000391390CE402A512A622A732ACB01BA0117
:103A70006429752986299729F2CF44295529662971
:103A800077290091DA021091DB022091DC0230915B
:103A9000DD02CB01BA016027712782279327DFCF90
:103AA0001F70DD2029F0812F0E948013802FCACE45
:103AB000802F0E941007812F0E94451363CE802F14
:103AC000F2EF8F1609F44EC0F81578F020EF821649
:103AD00019F131EF831609F43DC0DD2009F465C00A
:103AE000A11034CE812F8F713AC093EF891609F45B
:103AF0003EC0E4EF8E12F1CFDD2009F44BC01F7100
:103B0000812F0E94801328E0129FC001112483603E
:103B10008093B502812F23C0DD20B9F0A11032CEF1
:103B20001F7161E070E080E090E004C0660F771FD5
:103B3000881F991F1A95D2F70091DA021091DB02C3
:103B40002091DC023091DD02A6CFF1E0FA1508F4F5
:103B500019CEE6CF812F8F71DD2009F4ADCF0E9401
:103B6000801310CE812F8F71DD20C9F3A5CF60E0C7
:103B700070E0CB01DD2009F472CF1F7161E070E0CD
:103B800080E090E004C0660F771F881F991F1A9588
:103B9000D2F765CF81E00E94681331E03A1508F052
:103BA000F1CD82E00E946813EDCDAA2039F089336F
:103BB00009F471CE802F0E94C516E4CD812F8F713C
:103BC0007BCF85E0DE01119601900D928A95E1F799
:103BD000F701228189819A81211196CA0E94AF063C
:103BE000082F9ACA06311C4509F00FCD8091450275
:103BF00069E2811165E380E991E00E94050684CCC9
:103C00008272F801E35CFC45E431F10508F0F4CC84
:103C1000E055F74D0C942F261F93CF93DF9380919F
:103C20004B02807FA9F480914802882389F080911B
:103C30007D02D0914C026091460270914702A091A2
:103C40004902B0914A02C62FC72316E0D81304C018
:103C5000DF91CF911F91089590E0109711F0CF3F21
:103C600019F401968770F2CF189F9001199F300DBB
:103C70001124F901E35BFD4F41814713F2CF4081ED
:103C80004613EFCF42814111ECCF438154814A1B4F
:103C90005B0B4937510528F780914B028F7080618B
:103CA00080934B02F901EE5AFD4F80818F70806145
:103CB000808386E492E00E944C18DF91CF911F919F
:103CC0000C940607AF92BF92CF92DF92EF92FF92D1
:103CD0000F931F93CF93DF93CDB7DEB761970FB6E6
:103CE000F894DEBF0FBECDBF8C0185E0F801DE0188
:103CF0001D9601900D928A95E1F7F80180819181DE
:103D0000E28026E4A22E22E0B22E60914902709158
:103D10004A026115710509F43EC130914602409195
:103D20004702232F24232F3F09F435C1C380D480B9
:103D3000F0904802F601E61BF70BFF2009F4FBC0E8
:103D400020914B02522F507FE937F10508F0BBC09C
:103D5000511178C0FE2C491321C038131FC0E11047
:103D60001DC02F70206120934B02C5010E944C188A
:103D700080914B02F80185838F2D61960FB6F894E0
:103D8000DEBF0FBECDBFDF91CF911F910F91FF908E
:103D9000EF90DF90CF90BF90AF900895CD2829F09D
:103DA000282F29232F3F09F014C120E0F22FF170B2
:103DB000DF2E20FF3DC020917D0240914C0256E055
:103DC000241315C08D879E878D859E850E94290AA4
:103DD000292F22952F702230F8F0243020F59F7083
:103DE000F9F0F8019581907FD9F4D12C1FC030E013
:103DF000529FF001539FF00D1124E35BFD4F618151
:103E0000961306C06081861303C06281E61210C05B
:103E10002F5F3F4F2770D4CF9F7011F0882329F375
:103E2000805E883010F3C8010E944C18FD2CA4CF8E
:103E3000EE2009F4A1CF80914B02816080934B0268
:103E4000F12C9ACF491312C0381310C0E1100EC0E4
:103E5000F8012583C8010E944C1886E0F801A6E409
:103E6000B2E001900D928A95E1F786CF8D879E870B
:103E70008D859E850E94330A882309F1EE20F9F092
:103E800080914B02803270F02091460230914702BF
:103E900038872F831986DB86CA868C87CE010796E2
:103EA0000E944C1886E0F801A6E4B2E001900D9261
:103EB0008A95E1F70E940C1EFF24F3945DCFC801A0
:103EC0000E944C18F9CF51110AC086E492E00E947A
:103ED0004C1886E0F50111928A95E9F7B1CF4913A4
:103EE0000FC038130DC0E1100BC0F8012583C801C5
:103EF0000E944C1886E0F50111928A95E9F73CCFB3
:103F00008D879E878D859E850E94330A8823B9F20E
:103F1000EE20A9F280914B02803220F220914602DD
:103F2000309147023A8329831B82DD82CC828E83C3
:103F3000CE010196B5CFE937F105E0F6FE2CEE2073
:103F400009F4BDCF491316C0381314C080914B0239
:103F500080FD83CF982F907F09F47FCFF801858370
:103F6000903F09F477CF982F907F905F8F70892BC7
:103F7000858370CF8D879E878D859E850E94330AAD
:103F8000811190CF80914B02816080934B02C801D8
:103F90000E944C18F1CEEE2009F491CF8D879E87B8
:103FA0008D859E850E94330AF82E882309F487CFD9
:103FB00086E0F801A6E4B2E001900D928A95E1F75F
:103FC00080914602909147020E94290A0E940C1E8D
:103FD000D3CE21E02E25EACE1F93CF93DF93CDB72A
:103FE000DEB767970FB6F894DEBF0FBECDBF4B8B21
:103FF0005C8B6D8B7E8B8F8B1A8A198A85E0FE0114
:104000007396DE011D9601900D928A95E1F786E088
:10401000FE013D96DE01179601900D928A95E1F71B
:10402000CE0107960E94621E811112C086E0FE0139
:104030003796DE01119601900D928A95E1F78A85F7
:104040009B85892B29F08F81988589238F3FB1F536
:1040500016E080917D0290914C0289131DC06796F5
:104060000FB6F894DEBF0FBECDBFDF91CF911F9189
:10407000089596E0929FD001939FB00D1124A35B09
:10408000BD4FFE01319601900D929A95E1F7809314
:104090004C020E940607DCCF819FC0011124835B84
:1040A0009D4F0E94621E8823D1F280917D0290E094
:1040B00001968770992780937D02CBCF20914C0287
:1040C00030E0C90101968770992740917D02481719
:1040D000190679F60E94AB1310924C0210927D02E1
:1040E00086E0E6E4F2E0DF011D928A95E9F7B0CFC1
:1040F0008F929F92BF92CF92DF92EF92FF920F9397
:104100001F93CF93DF938091180190911901892B10
:1041100091F08091B1018F5F8093B10181110BC04B
:104120000E94431190E09093190180931801892B0C
:1041300011F40E94970B29EC822E22E0922E74013A
:1041400010E000E097E0C92EC00E802F0E94DD0C29
:104150008C2D0E94DD0C802F0E94BA11E7019991ED
:104160007E01D12C891729F0FE0131978083DD244F
:10417000D3948C2D0E94BA11F7019681891709F406
:104180007AC0868381E08D29182B0E94DF0A0F5F99
:104190000730C1F60E94EC126091B3017091B40136
:1041A0009093B4018093B3012091B20130E0261BBB
:1041B000370B820F931F6BEF70E00E940726E82EEB
:1041C000392F082F8093B201F090B601FF2009F437
:1041D0005EC01092B601E091C302F091C402AF013B
:1041E000425F5F4F20E08BEFB82E6BEF70E0A19144
:1041F000AB3F99F0CA2ED12C8E2D932F0A17E8F1E0
:104200008C199D09092E000CAA0BBB0B4E97A1051A
:10421000B105C8F1DF011197BC924E175F0739F75E
:104220002093B601111102C0211133C01092B501C3
:10423000A091C302B091C4029091B601E3EEF2E006
:1042400080E03191E40129914E01321751F03C9107
:104250003B3FD9F40C93AF0141505109EA01288347
:1042600091E01196D2E0E13FFD0759F79093B60136
:104270008093B50112C080E086CFDB01AC19BD0987
:104280008A0F9B1FBFCF2F2DC8CF81E0EACF11111E
:10429000CDCF8091B5018111C9CF812FDF91CF9111
:1042A0001F910F91FF90EF90DF90CF90BF909F9064
:1042B0008F900895CDB7DEB72F970FB6F894DEBF75
:1042C0000FBECDBF84B7877F84BF0FB6F894A89583
:1042D00080916000886180936000109260000FBE42
:1042E00080E890E00FB6F8948093610090936100AD
:1042F0000FBE85B7806885BF85B7806885BF0E947F
:104300005B030E9426048091E20084608093E200B7
:10431000789480913E038823A1F01091E9001F70EA
:104320009091EC00892F817090FD80E8182B1092FD
:10433000E9008091E80083FD0E94C0131F70109374
:10434000E90082E084BD93E095BD9AEF97BD80932C
:104350006E000E94431190E0909319018093180120
:104360000E94DF0A0E94EE0AE9ECF2E0A3EEB2E05E
:1043700011921D9222E0E73DF207D1F78EE090E026
:104380000E94A0268093C3029093C402FC010E9663
:104390002BEF2193E817F907E1F790E080E00E9406
:1043A000E6278F3E9E4F11F00E94620C89EA8093AF
:1043B000800089E08093810024982C983F988AB1EE
:1043C0008F7C8AB96E98479A8BB180638BB9769A45
:1043D0008FE090E00E94E0276093C5027093C602D0
:1043E0008093C7029093C80267708FEF689FB001F7
:1043F0001124759567957595679577277093890052
:104400006093880070938B0060938A0070938D0096
:1044100060938C000E94970B90E080E00E94E6275A
:104420008F3E9E4F11F00E94620C82E090E00E944D
:10443000D82780930A030E94110C9093D80280938E
:10444000D70283E090E00E94D827682F70E090E0C8
:1044500080E00E94A1136091DA027091DB028091EA
:10446000DC029091DD020E946C0A8091D9028111D8
:1044700036C090E080E00E94E6278F3E9E4F21F0FC
:104480000E94620C0E94530C88E090E00E94E0279A
:104490006093F7027093F8028093F9029093FA0206
:1044A0006E7F71F40E94530C88E090E00E94E02738
:1044B0006093F7027093F8028093F9029093FA02E6
:1044C0000E9462071092FD028091F70280FF04C0F3
:1044D00060E086950E94F01781E08093D902609198
:1044E000DA027091DB028091DC029091DD020E9481
:1044F0006C0A8AE191E09093DF028093DE02A8E1EA
:10450000EA2EF12CB0E4CB2E83EE92E01EE0D12E09
:10451000D80E80913E03BB24B39400E112E18530B4
:1045200009F4AAC10E947820EBE0F3E0A3EEB2E028
:1045300010E000E0302F8D912191281709F4BCC1C3
:1045400090E0BB24B3942827422F4B2109F4AFC13C
:104550009E833F838B2191E009F490E098870E942D
:10456000EC128160782F9A8789874E815F816885F8
:104570008A850E94EC1FF801E55FFC4F8081B82618
:10458000B0828091FD02882309F441C08091FC0231
:10459000E091F702E695E81BE093F302823009F020
:1045A000A2C1F0E0EC54FA4FE4910E2F10E0F7E4D2
:1045B000AF2EF0E1BF2E8091F402882389F0109293
:1045C000F4020E94EC12980120953095820F931FFF
:1045D0009093F2028093F1021092F6021092F5028B
:1045E0008091F1029091F2020E94F60580179107E6
:1045F00070F0E091F102F091F2020E0F1F1F109384
:10460000F2020093F10281EF92E0F501099585E055
:10461000E4E0F3E0DE01119601900D928A95E1F756
:10462000B0900503A09006031091070300910803C2
:1046300010920503109206031092070310920803CC
:104640008B2D8A2909F448C08091020390910303BD
:104650000E94F6059C0190910103992309F4D9C1A8
:1046600020313105C8F19F3F19F09F5F90930103FE
:10467000BB2059F00E946E059FEF1B140CF491E0D3
:10468000899F802D112480930503AA2059F00E9450
:104690006E059FEF1A140CF491E0899F802D112470
:1046A00080930603309105033323B1F02091060374
:1046B000222391F045EB3403C0011124992309F41E
:1046C0007EC19093050345EB24039001112433230D
:1046D00009F479C130930603812F802B09F448C077
:1046E0008091FF02909100030E94F6059C01909139
:1046F000FE02992309F489C123333105C8F19F3F94
:1047000019F09F5F9093FE02112359F00E946C05EF
:104710009FEF11160CF491E0899F802D1124809356
:104720000703002359F00E946C059FEF10160CF44C
:1047300091E0899F802D1124809308033091070315
:104740003323B1F020910803222391F045EB340389
:10475000C0011124992309F43AC19093070345EB52
:10476000240390011124332309F435C13093080345
:104770008091050390910603892B90910703892B63
:1047800090910803892B11F00E94F81285E0FE0138
:104790003196A4E0B3E001900D928A95E1F70E9472
:1047A000510790910903891709F4B3CE0E9451076C
:1047B00080930903AECE80913E03843009F43DC05E
:1047C0001092E0020FB6F894A895E09260000FBE38
:1047D000C09260001092FD028091E202811116C029
:1047E000B092E2028091F702982F91709093E102CB
:1047F0008E7F8093F7022FEF40E782E02150404008
:104800008040E1F700C000000E94310D83B7817F36
:10481000846083BF83B7816083BF7894889583B7B2
:104820008E7F83BF0FB6F894A89580916000886151
:1048300080936000109260000FBE80913D0388233A
:10484000D9F00E94431190E09093190180931801D0
:104850000E94DF0A0E94EE0AE3EEF2E0119292E07B
:10486000E13FF907D9F70E947820E3EEF2E0819169
:104870008111B5C0DE12FBCF80913E03853009F473
:104880009ACF0E94AB130E9451071092E2028091CE
:10489000E102882349F08091F70281608093F7025A
:1048A00060E086950E94F0170E94DA173BCE9F5F6A
:1048B000BB0C963009F048CE0F5F1F4F0E3011052C
:1048C00009F038CE8FEF8B878C871D860E94EC1203
:1048D0008160782F9F878E874B855C856D858F855E
:1048E0000E94EC1F4ECE863059F4F0E0EF54FA4FA0
:1048F000E4910E2F10E0EBE5AE2EE0E1BE2E5BCE94
:10490000893061F4E695F0E0E255FA4FE4910E2F1C
:1049100010E07FE2A72E7EE0B72E4DCE8F3061F4FF
:10492000E695F0E0E555FA4FE4910E2F10E069E5C9
:10493000A62E6EE0B62E3FCE853159F4F0E0E85554
:10494000FA4FE4910E2F10E058ECA52E5EE0B52E44
:1049500032CE08E210E028E1A22E2FE0B22E8831FC
:1049600009F429CE833249F4E6EAF5E00591149181
:104970004CEEA42E4FE0B42E1ECE04EF11E091EACF
:10498000A92E9FE0B92E843209F415CE853281F428
:104990008E2F63E00E94ED25E92FF0E0ED55FA4FF0
:1049A000E4910E2F10E036EAA32E3DE0B32E03CEA5
:1049B00000ED17E085EEA82E84E0B82EFCCD81E056
:1049C0008093050380CE81E08093060385CE81E04D
:1049D00080930703C4CE81E080930803C9CE09BD4C
:1049E00019BD09B400FEFDCF8091D8008F7D809362
:1049F000D8008091E00082608093E0008091E00028
:104A000081FDFCCF0E94AB1337CF232B09F079CE69
:104A1000AFCE232B09F029CE5FCE1F921FB61F9277
:104A200011248F939F93AF93BF938091E0028111E4
:104A300013C08091BE029091BF02A091C002B091BC
:104A4000C1024196A11DB11D8093BE029093BF0289
:104A5000A093C002B093C102BF91AF919F918F917B
:104A60001F901FBE1F9018951092B9008CE0809384
:104A7000B8000895EF92FF920F931F93CF93DF93A7
:104A8000182FEB011092BC0084EA8093BC000E94B6
:104A9000EC127C018091BC0087FF27C08091B90097
:104AA000887F883029F08091B900887F8031D9F5DE
:104AB0001093BB0084E88093BC000E94EC128C0130
:104AC0008091BC0087FF24C02091B900287F90E02E
:104AD00080E02831B1F081E090E0203411F490E0E2
:104AE00080E09195819591090CC0CF3FDC0791F250
:104AF0000E94EC128E199F098C179D0758F28EEFB9
:104B00009FEFDF91CF911F910F91FF90EF9008954C
:104B1000CF3FDC07A9F20E94EC12801B910B8C178F
:104B20009D0770F2ECCF8FEF9FEFEBCF0F931F93AA
:104B3000CF93DF93EB018093BB0084E88093BC00AC
:104B40000E94EC128C018091BC0087FF11C0209163
:104B5000B900287F81E090E0283211F490E080E0F5
:104B6000919581959109DF91CF911F910F910895B2
:104B7000CF3FDC0741F30E94EC12801B910B8C1796
:104B80009D0708F38EEF9FEFEECF0F931F93CF9308
:104B9000DF93EC0184E88093BC000E94EC128C014E
:104BA0008091BC0087FF08C08091BB0090E0DF913E
:104BB000CF911F910F910895CF3FDC0789F30E9499
:104BC000EC12801B910B8C179D0750F38EEF9FEF1B
:104BD000EECF84E98093BC000895991B79E004C06E
:104BE000991F961708F0961B881F7A95C9F780952C
:104BF000089587FB082E062687FD819567FD619540
:104C00000E94ED250EF4919507FC81950895AA1B4D
:104C1000BB1B51E107C0AA1FBB1FA617B70710F0A7
:104C2000A61BB70B881F991F5A95A9F780959095D9
:104C3000BC01CD01089597FB072E16F4009407D010
:104C400077FD09D00E94072607FC05D03EF4909519
:104C500081959F4F0895709561957F4F0895EE0F50
:104C6000FF1F0590F491E02D09940E9474283323CE
:104C700012F48A1B9B0B0C943F260E947428B7FFEA
:104C80000895821B930B08958F929F92AF92BF92CB
:104C9000CF92DF92EF92FF92CF93DF93EC01688186
:104CA00079818A819B81611571058105910521F4C6
:104CB00064E279ED8BE597E02DE133EF41E050E0E0
:104CC0000E94202849015A019B01AC01A7EAB1E4E6
:104CD0000E943F286B017C01ACEEB4EFA50194016A
:104CE0000E944D28DC01CB018C0D9D1DAE1DBF1D0A
:104CF000B7FF03C00197A109B04888839983AA83AD
:104D0000BB839F77DF91CF91FF90EF90DF90CF90A3
:104D1000BF90AF909F908F9008950E944426089571
:104D200080E091E00E9444260895B0E0A0E08093E6
:104D3000000190930101A0930201B0930301089533
:104D40000F931F93CF93DF938230910510F482E08D
:104D500090E0E0914D03F0914E0330E020E0B0E0B0
:104D6000A0E0309799F42115310509F447C0281BBC
:104D7000390B24303105C0F58A819B81611571059D
:104D800071F1FB0193838283FE0111C04081518147
:104D90000281138148175907F8F04817590799F409
:104DA000109761F012960C93129713961C933296FB
:104DB000CF01DF91CF911F910F91089500934D0383
:104DC00010934E03F4CF2115310519F04217530704
:104DD00018F49A01BD01EF01DF01F801C2CF9093F1
:104DE0004E0380934D03D0CFFE01E20FF31F81935A
:104DF00091932250310939832883DACF20914B03D4
:104E000030914C03232B41F420910601309107018E
:104E100030934C0320934B03209104013091050102
:104E20002115310541F42DB73EB74091080150914D
:104E30000901241B350B40914B0350914C03421741
:104E4000530708F0B5CF241B350B2817390708F492
:104E5000AFCFBC016E5F7F4F2617370708F4A8CF8E
:104E6000640F751F70934C0360934B03FA01819399
:104E700091939ECFCF93DF930097E9F0FC01329797
:104E800013821282C0914D03D0914E03DE0130E0B7
:104E900020E02097A1F420813181820F931F20917F
:104EA0004B0330914C032817390709F067C0F09382
:104EB0004C03E0934B03DF91CF910895DA01AE17D5
:104EC000BF0708F040C012964D915C9113979D0169
:104ED0004115510599F7D9011396FC93EE9312975A
:104EE0004D915D91A40FB51FEA17FB0779F48081FE
:104EF00091810296840F951FD90111969C938E93F0
:104F00008281938113969C938E931297B0E0A0E0D8
:104F10008A819B810097B9F5FE0181919191E80FFB
:104F2000F91F80914B0390914C038E179F0719F640
:104F3000109761F510924E0310924D03D0934C03DD
:104F4000C0934B03B8CFB383A28340815181840FB8
:104F5000951FA817B90771F44E5F5F4F8D919C9113
:104F60001197480F591F5183408312968D919C9140
:104F7000938382832115310509F0ADCFF0934E0361
:104F8000E0934D0398CFDE01EC01C2CF13961C9243
:104F90001E921297D3CFFC014150504030F0019047
:104FA0000616D1F73197CF010895882799270895DC
:104FB000F999FECF92BD81BDF89A992780B50895E1
:104FC000A6E1B0E044E050E00C941228A8E1B0E083
:104FD00042E050E00C941228262FF999FECF92BDA2
:104FE00081BDF89A019700B4021639F01FBA20BDAE
:104FF0000FB6F894FA9AF99A0FBE08950396272FE0
:105000000E94ED270E94EC27252F0E94ED27242FD8
:105010000C94ED270196272F0E94ED270C94EC2786
:10502000DC01CB01FC01F999FECF06C0F2BDE1BD68
:10503000F89A319600B40D9241505040B8F7089557
:10504000052E97FB1EF400940E94372857FD07D0C9
:105050000E94522807FC03D04EF40C943728509538
:105060004095309521953F4F4F4F5F4F0895909554
:105070008095709561957F4F8F4F9F4F08950E9447
:105080007428A59F900DB49F900DA49F800D911D35
:1050900011240895B7FF0C943F280E943F28821BDB
:1050A000930B0895A1E21A2EAA1BBB1BFD010DC094
:1050B000AA1FBB1FEE1FFF1FA217B307E407F507C8
:1050C00020F0A21BB30BE40BF50B661F771F881FA4
:1050D000991F1A9469F760957095809590959B013A
:1050E000AC01BD01CF010895A29FB001B39FC001E3
:1050F000A39F700D811D1124911DB29F700D811D04
:105100001124911D0895F894FFCF420A420A4B0AD8
:105110004B0A4D0A4B0A4B0A4B0A420A420A520AF0
:105120004B0A4B0A520AC60AD20AD70AD00AD50A33
:10513000DC0ADA0AA514CD146916CD146916001517
:10514000211569161F162C168D1B8D1B071C071C9D
:10515000551C6F1CC21BC21B7A1C501D5F1D5F1D9E
:10516000871AAE1AB51ABA1ABF1AC41AC91ACE1AB1
:10517000D31AD81ADD1A8019E21AE71AEA1AED1AB8
:08518000F01AF31AF61AF91AED
:105188000100000000004F03200001191A1B1C1D1C
:105198001E1F2021220102012000E604570B360BB6
:1051A800320B2E0B01000102020202060606090953
:1051B800090909090F0F0F0F0F0F151515181919E0
:1051C80019191919191919192324252525252525EA
:1051D800818283E200E900EA00B500B600B700CD9D
:1051E800008301CC008A0192019401210223022448
:1051F800022502260227022A02B300B4006F0070BB
:1052080000404D6D66011901AC00CA05E305FC05B7
:00000001FF
