:100000000C947A030C9497030C9497030C94970325
:100010000C9497030C9497030C9497030C949703F8
:100020000C9497030C9497030C94BB170C94FD1637
:100030000C94371D0C9497030C9497030C9497031E
:100040000C9497030C9497030C9497030C949703C8
:100050000C9497030C94F61C0C9497030C94970340
:100060000C9497030C9497030C9497030C949703A8
:100070000C9497030C9497030C9497030C94970398
:100080000C9497030C9497030C9497030C94970388
:100090000C9497030C9497030C9497030C94970378
:1000A0000C9497030C9497030C949703B506B5062C
:1000B000E406E4064E076A07740874087507E90742
:1000C000FA07FA0710153715E5163715E5168315E3
:1000D000A615E5169B16AB16CA23CF23D923CD232D
:1000E000D223D723D5230325062509250C250F2543
:1000F000122515251E0F0500047F3F1F643214646E
:100100003214783C1E1E140A0535002B002941E1EB
:1001100000E00000001E00140004001D00E000E2EA
:10012000081F001A0016001B00010028002000080C
:1001300000070006000057E3002100150009001920
:1001400000E200A800220017000A0005000000AA33
:10015000002300500D0000500C0000A900A6004F25
:100160001D00004F1C0000AC0024001C000B0011FF
:10017000000000AB00250018000D0010000251AE79
:100180000026000C000E003600090C2C002700127F
:10019000000F00370001002A002D00130033003843
:1001A00000E40028002E0031003400E50002530076
:1001B000002900010001000100010000001E0401EF
:1001C0000001000100010001001F04010001000105
:1001D0000001002B0120042F022F00260201002B1A
:1001E0000321043002300027020100010022040133
:1001F000000100010000006900230401000000016B
:100200000000006A00010001000000010000000180
:1002100000010001000100010000000100010001D7
:1002200000010001000100010001000100010001C6
:100230000001004C18010001000100010001004C08
:1002400000010001000100010001000100010001A6
:100250000001000100010000000100010001000197
:10026000000100000001000100010001000100295F
:10027000000100F100EF0001000100F1000100EDBC
:1002800000EE000100E000E3000100F200F00001D8
:1002900000E20001000100F900FA00010000000185
:1002A0000001000100000001000000010001000148
:1002B0000000000100000001000100010001000138
:1002C00000000001000100010050000100010001D8
:1002D0000001005200510001000100010001000175
:1002E000004F0001000100010001000100010001B8
:1002F00000010001000100010001000100010000F7
:100300000005010980A101850319012AB700150123
:1003100026B700950175108100C0050C0901A101E7
:10032000850419012AA002150126A0029501751065
:100330008100C005010906A1018506050719E0290C
:10034000E7150025019508750181020507190029A7
:10035000EF1500250195F0750181020508190129A5
:1003600005950575019102950175039101C005017F
:100370000902A1010901A1000509190129081500B7
:1003800025019508750181020501093009311581A2
:10039000257F95027508810609381581257F95010D
:1003A00075088106050C0A38021581257F950175AF
:1003B000088106C0C00660FF0961A101096215003D
:1003C00026FF009520750881020963150026FF00AD
:1003D000952075089102C005010906A101050719BC
:1003E000E029E71500250195087501810295017541
:1003F0000881010507190029FF150026FF00950651
:1004000075088100050819012905950575019102F6
:10041000950175039101C009027400040100A0FA5E
:10042000090400000103010100092111010001225A
:1004300040000705810308000109040100020300D0
:100440000000092111010001222200070583032079
:100450000001070504032000010904020001030153
:10046000020009211101000122470007058203084B
:10047000000109040300010300000009211101002B
:1004800001226D0007058503200001120100020012
:10049000000008973275490100010200012203455E
:1004A00000720067006F0044006F00780020004574
:1004B000005A0020005300680069006E00650000CB
:1004C0000028035A005300410020005400650063D7
:1004D0000068006E006F006C006F006700790020FC
:1004E000004C006100620073000000040309042254
:1004F00023252628292A2C2D2F3032333536383A19
:100500003B3D3E4042434547494A4C4E505153556E
:1005100057595A5C5E6062646668696B6D6F71738F
:100520007577797B7D7F81838587898A8C8E909290
:100530009496989A9C9E9FA1A3A5A7A8AAACAEAF9B
:10054000B1B3B4B6B8B9BBBCBEBFC1C2C3C5C6C7E0
:10055000C9CACBCCCDCED0D1D2D2D3D4D5D6D7D791
:10056000D8D9D9DADADBDBDBDCDCDCDCDCDDDDDDD9
:10057000DDDCDCDCDCDCDBDBDBDADAD9D9D8D7D7D5
:10058000D6D5D4D3D2D2D1D0CECDCCCBCAC9C7C682
:10059000C5C3C2C1BFBEBCBBB9B8B6B4B3B1AFAEC0
:1005A000ACAAA8A7A5A3A19F9E9C9A989694929066
:1005B0008E8C8A89878583817F7D7B79777573713E
:1005C0006F6D6B6968666462605E5C5A595755531B
:1005D00051504E4C4A4947454342403E3D3B3A38D4
:1005E00036353332302F2D2C2A2928262523220078
:1005F00001010101010101010102020202020202E4
:1006000002020303030303030303040404040404B6
:10061000040505050505060606060607070707077C
:1006200008080808090909090A0A0A0B0B0B0C0C2F
:100630000C0D0D0D0E0E0E0F0F0F101011111112CB
:100640001213131414151516161717181819191A4A
:100650001A1B1B1C1D1D1E1E1F20202122222324AD
:1006600024252626272829292A2B2C2D2D2E2F30EC
:10067000313232333435363738393A3B3C3D3E3F00
:10068000404142434445464748494A4C4D4E4F50ED
:10069000515354555658595A5B5D5E5F61626465AB
:1006A0006668696B6C6D6F7072737577787A7B7D35
:1006B0007E8082838587888A8C8E8F919395969889
:1006C0009A9C9EA0A2A3A5A7A9ABADAFB1B3B5B7A5
:1006D000BABCBEC0C2C4C6C9CBCDCFD1D4D6D8DB7C
:1006E000DDDFE2E4E7E9EBEEF0F3F5F8FAFDFFFF1A
:1006F000AA7F554011241FBECFEFDAE0DEBFCDBF89
:1007000011E0A0E0B1E0E8EEF4E502C005900D9242
:10071000A23BB107D9F723E0A2EBB1E001C01D92E3
:10072000AC38B207E1F70E94B7080C94722A0C9417
:100730000000A5E2B0E0EFE9F3E00C94AD27FC0186
:100740008081918123813481232B31F09F3F31F4CB
:1007500091E08F3F19F403C091E001C090E090FD5B
:1007600002C57F0185E0DE01919601900D928A9588
:10077000E1F7D70112962C9189A19AA1222349F081
:100780000E947511182F682F89A19AA10E946C13DD
:1007900003C00E943813182F69A17AA1812F0E94EB
:1007A0006E0E8C01F70182818823E1F08091600355
:1007B000909161030097B1F08017910799F0FEE0E6
:1007C0008F9FC0011124FC01E55EFE4F2081246053
:1007D00020838A5E9E4FDC010D931C930E94D71DDF
:1007E00010925F039091D202F7018281992309F45C
:1007F0004DC08111A8C4E091B401E330A0F481E0C0
:100800008E0F8093B401F0E0EE0FFF1FEA50FE4F11
:10081000D7018D919C919183808382E08983CE0161
:1008200001960E94F718BFEFE3EDF0E3B150E0400E
:10083000F040E1F700C000008091B401833009F07E
:1008400082C41092B401ECEFF1E0A6EFB1E082E0D7
:1008500092E0318111962C91119732132EC0308184
:100860002C9132132AC0329612968E179F0789F761
:1008700084E0898381E08093D3028EEF8A83109293
:10088000D202CE0101960E94F7185DC49091D30266
:100890009923C1F0882311F086E001C087E08983A5
:1008A000D7018C918A8311968C918B838EEF8C83E8
:1008B000CE0101960E94F71805C083E0898310924B
:1008C000D302DBCFF7018281033BFDE51F07D1F5A2
:1008D000882309F493C09091B50181E0890F877056
:1008E000987F853020F4892B8093B50102C09093C6
:1008F000B5018091B5018770BFEF8B9FC0011124B6
:1009000095958795959587959927909389008093DC
:10091000880090938B0080938A0090938D00809341
:100920008C004091B5015091B6016091B701709172
:10093000B8018FE090E00E947F288091C2010E9460
:10094000B4235CC0053BEDE51E0721F4882309F4C0
:10095000FAC32BC1980137552F3F310511F008F02C
:100960004DC05801BB242EE0029FF0011124DF018D
:10097000AA5EBE4F6D01E55EFE4F908180FB90F94F
:100980009083F7018281882309F49BC10E942B1D6B
:100990009093F4018093F301D60112968C911297F3
:1009A0008F5F12968C93129790915F038091A402AF
:1009B000892B13968C93139780919C0214968C9399
:1009C00014971696ED91FC911797309731F01C967D
:1009D0006D917C911D97C60109958EE08A9DF0016D
:1009E0008B9DF00D1124E55EFE4F808181FF66C175
:1009F00090E080E09093600380936103F70182812F
:100A00008111EDC08091A40282720D3CFCE51F07AC
:100A100009F4C4C008F045C0073C3CE5130709F4DD
:100A2000A9C0D8F4043CACE51A0709F499C030F425
:100A3000033CECE51E0709F46EC049C1053CFCE52A
:100A40001F0709F492C0063C2CE5120709F03FC1CC
:100A50004DE850E267E970E2A5C00A3C3CE51307A7
:100A600009F492C078F4083CACE51A0709F487C091
:100A7000093CBCE51B0709F02AC140E850E263E7E6
:100A800070E290C00B3CECE51E0709F482C00C3C00
:100A9000FCE51F0709F01BC147E05FE169E17FE169
:100AA00081C0023D2CE5120709F488C0A0F40F3C78
:100AB0008CE5180709F47CC008F477C0003DACE56C
:100AC0001A0709F478C0013DBCE51B0709F0FFC017
:100AD0006EE089E081C0053DECE51E0709F474C0B5
:100AE00068F4033D2CE5120709F46BC0043D3CE5B6
:100AF000130709F0ECC061E088E16BC0063D8CE5AE
:100B0000180709F464C00F359DE5190709F0DFC027
:100B10006AE285E261C080919F0280FF1BC08E7FE8
:100B200080939F0260919F027091A0028091A10228
:100B30009091A2020E94F41E10928503AFEFB0E7DD
:100B4000E2E0A150B040E040E1F700C000000E94A8
:100B50003D1EF9C2816080939F0261E0869539C095
:100B600046EE51E260EF71E21DC040EF51E266EEE9
:100B700071E218C047E950E26DE870E213C043E744
:100B800050E260E870E20EC049E550E266E670E2CD
:100B900009C046E650E269E570E204C049E15FE160
:100BA00067E07FE10E94361ECEC261E081E011C0A5
:100BB00065E082E011C068E086E00EC064E18FE08D
:100BC0000BC067E185E108C062E289E105C061E030
:100BD00083E20E94AB21B7C20E94221EB4C20C3530
:100BE000FDE51F0709F464C060F401153CE5130737
:100BF000A9F00F3D8CE5180709F069C00E94231089
:100C00004CC00E359DE5190709F44AC008F452C0DE
:100C1000093ABDE51B0709F440C059C01092A4026F
:100C20000E94B225EFEFF4E32CE0E150F0402040C9
:100C3000E1F700C00000F89481E08093E00080E2DA
:100C40008093D8001092C9008FE19EE40197F1F7DC
:100C500000C000001DBA109268001CBC10BE1FBA74
:100C600010927A0010926E0010926F001092710034
:100C7000109272001092C9001092BC0014B817B8FC
:100C80001AB81DB810BA1092BC0015B818B81BB825
:100C90001EB811BA0C94003F56C20E94162353C2CC
:100CA00080916D0382FB882780F991E0892703C03A
:100CB00081E001C080E00E94F51309C0902F812FD0
:100CC00099CE91FF9BCECD010E94BD1D97CED7013D
:100CD00012968C9112970D911C91882349F0C801AE
:100CE0000E947511D82E682FC8010E946C1304C091
:100CF000C8010E943813D82EB8018D2D0E946E0EA7
:100D00000E94870E8C01982EF701D280C580C29474
:100D10009FE0C92280917B028770B9F0DD20A9F0A5
:100D2000812F807F803421F080E2800F883068F04E
:100D300080916D0382FF09C082E00E94D8138091E8
:100D40007B028770BB24B3948111B12CA12EA29495
:100D50008FE0A8228A2D90E08C30910508F0C4C164
:100D6000FC01EA5AFF4F0C942229812F807F1F70CB
:100D7000882311F01295107FDD20B9F0112309F4BA
:100D8000A1C180E2800F883010F0911006C08091E0
:100D9000A402182B1093A40205C080915F03182BA6
:100DA00010935F030E94AD108DC1802F0E94E82533
:100DB000112309F499C1005E812F083060F1992058
:100DC00051F10E949F1029C0812F807F1F708032B7
:100DD00011F01295107F992021F0F1E09F16D9F1C2
:100DE00047C080916D0382FD1BC0DD2069F0112397
:100DF00039F08091A402182B1093A4020E94AD1028
:100E000080E00E941D2670C180E00E94E825112329
:100E100009F46AC1812F0E94A6100E94AD1064C11E
:100E2000DD2081F080919C02CC2051F021E0C212A3
:100E300007C0182B181709F457C110939C0254C10E
:100E4000812B10C0CC2021F031E0C31609F44CC135
:100E50000E9499101FC0DD2041F081E08C1508F43C
:100E600043C1812F0E94DE253FC1C1103DC112C088
:100E7000DD2019F0CC20A9F325C1CC2059F009338D
:100E800009F02FC19FEFA7EEB3E09150A040B04012
:100E9000E1F725C1812F0E94D72526C1812F869594
:100EA0008695837019F0813059F01EC1DD2019F04C
:100EB000C801937002C080E090E00E949A1D1AC1A0
:100EC000DD2019F0C801937002C080E090E00E941C
:100ED000841D10C1802FDD2019F00E943A2102C02C
:100EE0000E94A1200E94FB2105C1812F8370A9F5DA
:100EF000D110FEC0402F429546954770440F440FD5
:100F0000802F8F7090E09C01042E01C0220F0A9464
:100F1000EAF704FF08C08FE090E001C0880F4A950F
:100F2000EAF7809501C080E016951695137012308F
:100F300069F088F490919D02113019F0822B892379
:100F400002C0922B892B0E941D14D2C0822B90913B
:100F50009D028927F8CF822BF6CFDD2019F0812F53
:100F6000817001C08695882309F4C2C0402F429544
:100F700046954770440F440F802F8F7090E09C017E
:100F8000042E01C0220F0A94EAF704FF08C08FE084
:100F900090E001C0880F4A95EAF7809501C080E093
:100FA000169516951370123059F078F49091C2018D
:100FB000113019F0822B892309C0922B892B06C08E
:100FC000822B9091C201892701C0822B0E94A1131C
:100FD0008FC01F70DD2039F0812F0E941114802FE7
:100FE0000E94DE2585C0802F0E94D725812F0E9478
:100FF000CB137EC0802FE2EF9E1669F1E91538F021
:10100000F0EF9F1659F021EF921601F157C033EF20
:10101000931641F194EF9916A9F050C0DD2069F0C4
:10102000C11062C01F7181E090E001C0880F1A9565
:10103000EAF79091C20189271FC0A1E0AC1508F41E
:1010400053C0F0CF80916D0382FD19C0DD2029F0DF
:10105000812F8F7126C0DD20D9F3812F8F710E94DF
:10106000CB1342C0DD2039F01F7181E001C0880F31
:101070001A95EAF701C080E00E94A11335C0DD2077
:1010800099F01F71812F0E94111480916D0382FFCE
:1010900007C0B8E01B9FC0011124836080937B02CE
:1010A000812F0E94111420C081E00E94D813E1E03A
:1010B000EC15D0F482E00E94D81316C0DD2021F098
:1010C000CC2031F2802F9DCECC2039F2893349F4E7
:1010D000FFEF27EE33E0F15020403040E1F700C051
:1010E0000000802F0E94E82588EF8A0D843010F4DC
:1010F0000E94B01DBB20B1F080917B0280FD12C028
:10110000D70112961C928595859585950E9411149C
:10111000C7010E94990380917B02859585958595ED
:101120000E94CB1385E0F701DE01119601900D922C
:101130008A95E1F709811A81C8010E943813B80124
:101140000E946E0E10C080917B02877061F0D70103
:1011500012968C91882339F080916D0382FF03C031
:1011600082E00E94D813A596EBE00C94C927ACE569
:10117000B0E0EDEBF8E00C94AB2785B7806885BF55
:1011800085B7806885BF84B7877F84BF0FB6F89422
:10119000A895809160008861809360001092600043
:1011A0000FBE90E080E80FB6F894809361009093B2
:1011B00061000FBE89E29EE09093B3018093B2017B
:1011C0000E9441170E9460178091E2008460809322
:1011D000E20078948091D4028823A1F01091E90074
:1011E0001F709091EC00892F817090FD80E8182B82
:1011F0001092E9008091E80083FD0E942B141F707B
:101200001093E90082E084BD93E095BD9AEF97BD0D
:1012100080936E000E94DE2390E090932A018093D9
:1012200029010E9419258098889A8198899A849822
:101230008C9A85988D9A86988E9A87988F9AA6ED23
:10124000B1E0E6ECF1E011921D9221E0E43DF207FD
:10125000D1F78EE090E00E9437298093BB019093F4
:10126000BC01FC010E961192E817F907E1F789EA33
:101270008093800089E08093810024982C983F9887
:101280008AB18F7C8AB96E98479A8BB180638BB98B
:10129000769A8FE090E00E9451286093B501709398
:1012A000B6018093B7019093B80167703FEF639FD9
:1012B000B00111247595679575956795772770939B
:1012C00089006093880070938B0060938A0070930C
:1012D0008D0060938C000E94552480E090E00E9475
:1012E0005728883E9E4F11F00E94231082E090E024
:1012F0000E9449288093E40184E090E00E944928FC
:10130000182F82E290E00E944928212F30E0382BEC
:1013100030936D0320936C0383E090E00E94492892
:101320000E941D148091C2010E94B4238091B901D2
:10133000811136C080E090E00E945728883E9E4F81
:1013400021F00E9423100E942B1F88E090E00E9451
:10135000512860939F027093A0028093A102909302
:10136000A2026E7F71F40E942B1F88E090E00E9421
:10137000512860939F027093A0028093A1029093E2
:10138000A2020E94E11E1092850380919F0280FFBD
:1013900004C060E086950E94AB2181E08093B90192
:1013A0008091C2010E94B4238AE091E0909365038A
:1013B00080936403EE24E394FF24F3948091290145
:1013C00090912A01892BB1F08091BA018F5F8093AF
:1013D000BA0181110FC00E94DE2390E090932A0190
:1013E00080932901892B31F40E945524F092280121
:1013F0000E943D1E96ECC92E91E0D92E00E010E02F
:1014000087E0A82EA10E812F0E94C5248A2D0E945C
:10141000C524812F0E9428258F73D6019C9189179E
:1014200021F08C93BB24B39401C0B12C8A2D0E946F
:1014300028258F73F6019781891719F0878381E03A
:1014400001C080E0B82A0B290E9419251F5FFFEF19
:10145000CF1ADF0A1730A1F61092C1011091C00116
:101460001123C9F10E942B1D2091BE013091BF01B3
:10147000AC01421B530B9A019093BF018093BE01B4
:101480004F3F510509F020F4452B09F4D6C302C0A3
:101490002FEF30E01092C0011092BD01E091BB012E
:1014A000F091BC01AF01425F5F4F90E030E080817E
:1014B000882341F0281718F01082912F03C0821B57
:1014C0008083312F3196E417F50789F73093C001F7
:1014D0009093BD01B2C3002309F4A6C30E942B1D43
:1014E0009093BF018093BE01E091BB01F091BC01DC
:1014F0008091C1019091C001BF01625F7F4F16ECE6
:10150000C12E11E0D12E26ED31E01EE1D6014C9125
:10151000D9015C91541781F0508151110DC0108395
:101520004C93D6019C919427482F50E0492B81E0A1
:10153000452B09F480E091E031962F5F3F4FBFEFDC
:10154000CB1ADB0AE617F70709F78093C1019093DE
:10155000C0012091D2028091C4019091C501222343
:10156000C1F1892B31F425982D9826982E9827982B
:101570002F988091C4019091C5019170892B71F4CD
:101580008091C301882319F026982E9802C0269ACC
:101590002E9A8091C3018E258093C3018091C4014E
:1015A0009091C5018130984750F01092D2028091FD
:1015B000C2010E94B4231092C5011092C40180910F
:1015C000C4019091C50101969093C5018093C40117
:1015D0000AC0892B41F01092C5011092C40180917C
:1015E000C2010E94B423B5EECB2EB1E0DB2EA6EDF6
:1015F000B1E0F60191918D91892721E0E33FF20757
:1016000019F08823B9F332C0811130C00E942B1D1C
:101610008C018091D4019091D5010817190709F424
:1016200073C08FEF64968FAF649765968FAF6597A1
:1016300066961FAE66970E942B1D8160782F689674
:101640009FAF8EAF689764964FAD649765965FAD18
:10165000659766966FAD669768968FAD68970E949E
:1016600063221093D5010093D4014EC0A6ED8A2EBB
:10167000A1E09A2E10E0D4017D904D01F601A080EA
:10168000A72481F100E0BB24B3948A2D8B2121F1A2
:1016900069960FAF69976A961FAF6A9791E0872D99
:1016A0008B2109F490E06B969FAF6B970E942B1DE6
:1016B0008160782F6D969FAF8EAF6D9769964FAD15
:1016C00069976A965FAD6A976B966FAD6B976D96EB
:1016D0008FAD6D970E9463220F5FBB0C0630A9F699
:1016E000D6017C921F5FBFEFCB1ADB0A1E3009F0D8
:1016F000C2CF8FB7F894409168035091690360910D
:101700006A0370916B038FBF8091600390916103B6
:10171000892BC9F08091F3019091F4010E941C1D66
:101720008A37910580F080916003EEE08E9FC001C2
:101730001124FC01E55EFE4F208122FD04C08A5E7B
:101740009E4F0E94D71D80918503882309F4A5C070
:1017500080918403E0919F02E695E81BE09380036B
:10176000823059F4F0E0EB5FFE4FE4910E2F10E071
:10177000F0E3CF2EFCE1DF2E6BC0863059F4F0E0B1
:10178000EE5FFE4FE4910E2F10E0E0E2CE2EECE192
:10179000DE2E5EC0893061F4E695F0E0E150FF4F47
:1017A000E4910E2F10E07CEBC72E7BE1D72E50C0CA
:1017B0008F3061F4E695F0E0E450FF4FE4910E2F96
:1017C00010E066E5C62E6BE1D62E42C0853159F495
:1017D000F0E0E750FF4FE4910E2F10E056E0C52EE9
:1017E0005BE1D52E35C08831F9F0833249F4E7EF5B
:1017F000F0E00591149146EEC42E4BE1D42E28C0A2
:101800008432C9F08532F1F48E2F63E00E94F4280F
:10181000E92FF0E0EC50FF4FE4910E2F10E03DEB8C
:10182000C32E39E1D32E14C008E210E02BE8C22EFB
:101830002AE1D22E0DC004EF11E093E5C92E9AE102
:10184000D92E06C000ED17E087E2C82E89E1D82E18
:1018500080918103882361F0109281030E942B1DE7
:1018600090937F0380937E031092830310928203F0
:101870000E942B1DE0917E03F0917F038E1B9F0B36
:101880008F3F9F4750F40E0F1F1F10937F0300934D
:101890007E038EE793E0F601099585E0E8E7F3E043
:1018A000DE01119601900D928A95E1F7109279036D
:1018B00010927A0310927B0310927C031A8111110B
:1018C00004C08B81882309F450C0809176039091E5
:1018D00077030E941C1D9C0190917203992309F4C7
:1018E000B0C12031310508F440C09F3F19F09F5F1F
:1018F00090937203112361F00E941A21111614F4BF
:1019000091E001C09FEF899F802D1124809379037E
:101910001B81112361F00E941A21111614F491E029
:1019200001C09FEF899F802D112480937A0330910D
:1019300079033323D1F020917A032223B1F045EBD0
:101940003403C0011124992319F09093790302C044
:10195000F092790355EB2503C0011124992319F066
:1019600090937A0302C0F0927A031C81111104C093
:101970008D81882309F450C0809174039091750380
:101980000E941C1D9C0190917103992309F45DC173
:101990002333310508F440C09F3F19F09F5F9093B7
:1019A0007103112361F00E941821111614F491E0C3
:1019B00001C09FEF899F802D112480937B031D819F
:1019C000112361F00E941821111614F491E001C056
:1019D0009FEF899F802D112480937C0330917B039E
:1019E0003323D1F020917C032223B1F045EB340363
:1019F000C0011124992319F090937B0302C0F09247
:101A00007B0355EB2503C0011124992319F0909312
:101A10007C0302C0F0927C0345E050E0BE016F5FA2
:101A20007F4F88E793E00E94652A892BA9F4809173
:101A3000790381110FC080917A0381110BC08091CD
:101A40007B03811107C081E090917C03911103C059
:101A500080E001C081E080FD0E94FB2185E0FE0165
:101A60003196A8E7B3E001900D928A95E1F70E94C4
:101A7000B01D9091F501891769F08093F5018FB73A
:101A8000F894409168035091690360916A037091E2
:101A90006B038FBF8091D402843009F08FCC809388
:101AA000E9008091E80082FF89CC8091E80085FF01
:101AB00022C00E949A1881111CC000E210E06E0141
:101AC00081E2C80ED11C08C08091F100D6018D932F
:101AD0006D010150110969F08091E80085FDF4CF96
:101AE0008091E8008B778093E8000E949A18882301
:101AF00099F391E001C090E08091E8008B778093AA
:101B0000E800992309F45ACC89A18130E1F150F120
:101B1000823021F0843009F47BC050CC8BA19AA193
:101B20009093F6018093F7018DA19CA19093F80109
:101B30008093F9018FA19EA19093FA018093FB01FC
:101B400042E150E063E270E0CE018F5B9F4F0E9464
:101B5000392884E08983F092D3028EEF8A83109231
:101B6000D2020CC019828CE0E6E3F1E0DE011296AD
:101B700001900D928A95E1F78EEF8D87CE01019647
:101B80000E94F7181BCC0CEF11E00E94021EF80116
:101B9000819391938F01F2E002301F07B1F7F98230
:101BA0008091FC018A838091FD018B838091FE01ED
:101BB0008C838091FF018D83809100028E838091C0
:101BC00001028F838EEF8887F092D202CE010196B8
:101BD0000E94F71842E150E063E270E0CE01019606
:101BE0000E943928FE01319682E183301CF09189F0
:101BF000928B01C0128A815031978F3FB1F742E139
:101C000050E063E270E0CE0101960E945D28D6CBE1
:101C10008091D302882309F4D1CB80E00E94A113E4
:101C20008AA10E941114CACB80E09091BD01992332
:101C300009F48FCC811158CC51CC011155CC81E0E5
:101C4000F4CF232B09F053CE90CE232B09F0A6CE50
:101C5000E3CE80E0089590916C0392FF0DC0282F91
:101C60002871283019F4877F846006C0282F2471DA
:101C7000243011F48B7F886093FF0DC0282F2871CA
:101C8000283119F4877E846106C0282F24712431FD
:101C900011F48B7E886120916D0320FF0DC0382FD9
:101CA0003871383019F4877F816006C0382F317160
:101CB000313011F48E7F886021FF0DC0282F2871EC
:101CC000283119F4877E816106C0282F21712131C6
:101CD00011F48E7E886194FD877E08957E30A0F495
:101CE000663090F494E5899FF001112486E0789F96
:101CF000E00DF11D1124E60FF11DEE0FFF1FE75F50
:101D0000FE4F85919491089580E090E00895CF93DF
:101D1000DF938238910569F1B0F48133910509F4BC
:101D200077C048F48932910509F469C08A32910577
:101D300009F473C092C08533910509F45BC08933FF
:101D40009105B9F08AC0833E910591F138F4803E47
:101D50009105D1F0823E910531F17FC0863E91051B
:101D6000D9F1873E9105E9F1843E910509F075C0EE
:101D700028C020916C0320FD5BC021FD59C020913B
:101D80006D0323FD61C069C080916C0380FD4AC072
:101D900080916D0380FF4CC080916C0384FD4EC127
:101DA00083EE90E04DC180916C0382FF3EC0F4CF82
:101DB00080916C0382FD39C080916D0380FD38C035
:101DC000EBCF80916D0381FF39C080916C0384FD5E
:101DD00035C187EE90E034C180916C0383FF2BC046
:101DE000F4CF80916C0383FD26C080916D0381FD4B
:101DF00025C0EBCF80916C0385FD26C022C0809169
:101E00006C0385FD1EC080916D0383FF1DC00AC059
:101E100080916C0386FD1BC01DC080916C0386FD04
:101E200019C015C089E390E00BC182EE90E008C1B3
:101E300080EE90E005C186EE90E002C184EE90E075
:101E4000FFC085E390E0FCC089E290E0F9C08AE23F
:101E500090E0F6C081E390E0F3C0811531E593078F
:101E600008F061C0811520E59207B0F09C01237055
:101E7000332741E050E002C0440F551F2A95E2F796
:101E8000282F2695269580E2289F90011124CA01CB
:101E9000822B932B9D68D4C0883E910568F5803EC7
:101EA000910508F0CDC0883A9105B8F4853A9105BE
:101EB00048F0855AE82FF0E0EE5BFE4F808190E01D
:101EC0009064BEC08130910509F4B5C008F4B6C075
:101ED0008430910508F4B2C0B3C08F3B910508F07F
:101EE000ADC0885AE82FF0E0EE0FFF1FEB5BFE4F0E
:101EF000808191819464A4C0811530E2930758F4E5
:101F0000811521E0920708F09BC08D3E910508F4F1
:101F100095C0906595C0811530E4930708F48EC094
:101F20009F70906A8DC0811525E5920708F042C028
:101F3000811534E5930728F0982F8827846F906ADD
:101F40007FC0811523E59207B0F09C0123703327F1
:101F500041E050E002C0440F551F2A95E2F7282FB8
:101F60002695269580E2289F90011124CA01822B94
:101F7000932B9A6865C0811532E5930728F4982F52
:101F80008827816F906A5CC09C012370332741E0F1
:101F900050E002C0440F551F2A95E2F7282F2695DE
:101FA000269580E2289F90011124CA01822B932B51
:101FB0009C6846C0EC01C11589E5D807B0F4C1158D
:101FC00028E5D20728F09C2F8827806F906A38C0B8
:101FD000C11536E5D30790F58C2F0E942B0E8F711B
:101FE00090E0982F882790622BC0C1158AE5D8070A
:101FF00090F48C2F8F700E942B0E94E0D695C7958D
:102000009A95E1F7CF70D0E0DC2FCC27D0699E0104
:10201000282BC90115C0CE0190568115904270F44D
:102020008D2F8F710E942B0E282F2F71CE01992793
:102030009062922B05C081E090E002C080E090E0C9
:10204000DF91CF91089568EE7EEF80E090E00E94EE
:102050008B2860E082E090E00E946D2860E083E0E1
:1020600090E00E946D2810929D0260E084E090E074
:102070000E946D2864E082E290E00E946D2860E09A
:1020800085E090E00E946D2860E086E090E00E948C
:102090006D286FEF87E090E00E946D2840E050E0EF
:1020A000BA0188E090E00E947F2860E08DE090E037
:1020B0000E946D2840E050E0BA0188E190E00E9463
:1020C0007F2860E087E190E00E946D2840E050E0CA
:1020D000BA018CE190E00E947F2860E070E080E22D
:1020E00090E00E948B2840E050E0BA0188E190E047
:1020F0000E947F281092B5011092B6011092B7018C
:102100001092B80184E08093B5014091B5015091DF
:10211000B6016091B7017091B8018FE090E00E9424
:102120007F2840E050E0BA0183E190E00E947F28E0
:10213000089580919C02811110929C0208958095CF
:1021400090915F03892380935F0308958095909118
:10215000A40289238093A40208959091A4028091FF
:102160005F03982B9093020280919C028823D9F000
:10217000892B8093020280912401882331F0809181
:102180006C0387FF02C08EE101C086E0E4E0F2E06C
:1021900090E0815028F021912223D9F39F5FF9CF5D
:1021A00091110E94991040E250E06CE772E082E0E9
:1021B00092E00E94652A892B21F180E2E2E0F2E0C0
:1021C000ACE7B2E001900D928A95E1F7E0916403EB
:1021D000F09165033097A9F080912401882359F08C
:1021E00080916C0387FF07C08091020280930302F5
:1021F00086E0809302020280F381E02D82E092E08B
:102200000995089580917A0290914902891719F0F1
:102210008F5F8770FBCF08950F931F93CF93DF934A
:102220008091480282958F7009F05AC080914502D2
:10223000882309F455C080917A0210914902609177
:10224000430270914402C0914602D091470291E04E
:102250006F3F09F090E0292F06E0811709F440C094
:10226000209721F07F3F21F030E003C031E001C032
:10227000322F90E030FD31C0089FF001099FF00D32
:102280001124DF01A65BBD4F11963C9111973713C6
:1022900024C03C91361321C012963C911297311103
:1022A0001CC013964D915C9114974C1B5D0B4937E4
:1022B000510598F4809148028F70806180934802A4
:1022C000E15BFD4F80818F708061808383E492E0C9
:1022D0000E9499030E94021103C001968770BDCF2E
:1022E000DF91CF911F910F910895CF92DF92FF92CE
:1022F0000F931F93CF93DF936C010091C2018091E4
:102300009D02082BC7E0D0E010E0C8010C2E02C0EF
:10231000959587950A94E2F780FD04C02197A8F768
:10232000F12C09C0FC2EB6018C2F0E946E0E0E946B
:10233000870E019799F38F2DDF91CF911F910F9108
:10234000FF90DF90CF900895CF93DF93EC010E9430
:102350007511BE010E946E0E0E94870EDF91CF9113
:102360000895A1E1B0E0E7EBF1E10C94AD278C0119
:1023700085E0F801DE011D9601900D928A95E1F746
:10238000F801E2809091430260914402409146023C
:10239000509147024115510531F06F3F31F481E012
:1023A0009F3F19F403C081E001C080E0F82FF17075
:1023B0009F2E80FD1BC1F80130812181C380D48014
:1023C00083E4A82E82E0B82EF0904502F601E41BCB
:1023D000F50BFF2009F4C7C080914802E937F105E9
:1023E00008F092C0482F407F09F051C0621311C01D
:1023F00093130FC0FE2CE1100CC08F70806180938E
:102400004802C5010E94990380914802F801858322
:102410002AC1C114D10431F02F3F31F481E03F3F94
:1024200019F403C081E001C080E080FD03C081E0B9
:102430008E2502C080E090E0F82FF170FF2E80FF23
:102440001CC080917A024091490256E0841709F439
:10245000E8C090E0589FF001599FF00D1124E65B11
:10246000FD4F6181261306C06081631303C0628142
:10247000E61203C001968770E9CFFE2CEE2009F426
:10248000F2C08091480281608093480249C0621383
:1024900006C0931304C0E11002C0F80186C0C80151
:1024A0000E945F25882351F1EE2041F120914802DE
:1024B000822F82958F7090E0029774F08091430292
:1024C0009091440298878F831986DB86CA862C8771
:1024D000CE0107960E94990386E0F801A3E4B2E0DA
:1024E00001900D928A95E1F70E940C110AC06217C3
:1024F000C9F0C8010E945F2581111EC0C8010E9459
:102500009903FF24F394AFC0482F407F81F783E401
:1025100092E00E94990386E0F50111928A95E9F70D
:10252000F12CA1C09313E5CFE110E3CFF80185832F
:10253000C8010E94990354C0EE2001F32091480283
:10254000822F82958F7090E0029734F2809143023F
:10255000909144029A8389831B82DD82CC822E83F0
:10256000CE010196B7CFE937F105D0F5FE2CEE206C
:1025700029F2621327C0931325C02091480220FD41
:1025800018C0822F82958F70482F50E04115510559
:1025900081F0F80125834F30510541F08F5F982F6E
:1025A0009295907F822F8F70892B8583C8010E941E
:1025B000990386E0F801A3E4B2E001900D928A95B8
:1025C000E1F751C0C8010E945F25811185CF80913C
:1025D0004802816080934802C8010E94990343C069
:1025E00086E0F50111928A95E9F73DC0EE2009F4E5
:1025F00085CFC8010E945F25F82E882309F47ECF7D
:1026000086E0F801A3E4B2E001900D928A95E1F72B
:1026100080914302909144020E94A4110E940C11E7
:1026200022C03D872E878D859E850E94A411292F6B
:1026300022952F70223028F49F7039F0811105C047
:102640000BC0243028F49F7049F4805E883020F05D
:10265000C8010E9499039F2CF92C05C0F8019581AF
:10266000907F99F7F9CF8F2D6196EBE00C94C927F5
:10267000292F9E3078F5863068F590E036E0239F6C
:10268000800D911D1124682F677023E09695879522
:102690002A95E1F7FC01EE0FFF1FE80FF91FEE5D31
:1026A000FD4F40E050E080E0219130E0062E02C076
:1026B000369527950A94E2F721703327042E01C03E
:1026C000220F0A94EAF7822B4F5F5F4F4330510588
:1026D00059F7089580E00895292F9E3088F58630B7
:1026E00078F590E036E0239F800D911D1124282F6E
:1026F000277051E001C0550F2A95EAF723E096951F
:1027000087952A95E1F7FC01EE0FFF1FE80FF91FEF
:10271000EE5DFD4F20E030E070E04081CB01022E05
:1027200002C0969587950A94E2F781708195842777
:102730008523842781932F5F3F4F2330310569F72D
:102740000895A0E2B0E0E7EAF3E10C94B5270E9417
:10275000B423182F8091D3028823A9F02FEF80E7AC
:1027600092E0215080409040E1F700C0000085E0F9
:102770008983812F0E9402238A838EEF8B83CE016F
:1027800001960E94F7181093C2010E949625A09608
:10279000E3E00C94D12721E030E001C0220F8A95BC
:1027A000EAF720958091C20182230E94A113089527
:1027B00020917B028095822380937B02982F9770D3
:1027C00099F430E0482F082E000C550B24173507DC
:1027D00059F090916D0392FF07C085958595859579
:1027E0000E94CB1310927B020895CF93C0916D038A
:1027F000C2FB992790F9981791F080FBC2F9C0931A
:102800006D0360916C0384E090E00E946D286C2F52
:1028100082E290E00E946D2882E00E94D813CF915E
:10282000089521E030E001C0220F8A95EAF78091F7
:10283000C201822B0E94A113089580939D020E94E1
:102840009625089589E09CE00E94652389E09CE03C
:102850000E942E230895AAE2B0E0E1E3F4E10C9493
:10286000B527EAECF2E082ED92E02091F1002193AD
:102870008E179F07D1F78091CB02833009F463C094
:1028800030F4813071F0823009F49FC0B6C08A30D4
:1028900009F48BC08B3009F46EC0893009F0ADC0EB
:1028A00020C08091CA02813A09F0A7C08091E80057
:1028B000877F8093E8008091CE029091CF02892B90
:1028C00021F460E287EA92E003C060E080E090E0FB
:1028D00070E00E94981C8091E8008B778093E8005C
:1028E0008CC08091CA02813209F087C08091CE02EB
:1028F0009091CF02009719F0039709F07EC0809164
:10290000E800877F8093E8008091E80082FD05C0A1
:102910008091D4028111F8CF70C02091F300809192
:10292000F20090E0922B029731F48091F100813017
:1029300011F0863021F48091F1008093A6028091FD
:10294000E8008B7756C08091CA02813A09F055C0E1
:102950008091CE029091CF02892B09F04EC08091D8
:10296000E800877F8093E8008091E80080FFFCCF3B
:102970008091240139C08091CA028132F1F58091A1
:10298000CE029091CF02892BC1F58091E800877F1C
:102990008093E8000E94441C8091CC028093240123
:1029A0001092A4020E94B22528C08091CA028132EE
:1029B00021F58091E800877F8093E8000E94441C05
:1029C0008091CD028093A50218C08091CA02813AFD
:1029D000A1F48091E800877F8093E8008091E8006F
:1029E00080FFFCCF8091A5028093F1008091E800E8
:1029F0008E778093E8000E94441C8091E80083FF5A
:102A0000E4C18091CA029091CB02492F50E04A3034
:102A1000510508F0DAC1FA01EE59FF4F0C94222952
:102A2000803821F0823809F0D0C108C08091C702F7
:102A30009091C802992389F082600FC08091CE02E4
:102A40008F70873008F0C1C18093E9008091EB005E
:102A500085FB882780F91092E9009091E800977F24
:102A60009093E8008093F1001092F10070C1282F3C
:102A70002D7F09F0AAC1882319F0823061F0A5C129
:102A80008091CC02813009F0A0C1933009F080E040
:102A90008093C8022EC08091CC0281112AC08091FF
:102AA000CE028F702FEF280F263008F08EC1809352
:102AB000E9002091EB0020FF1CC0933021F48091AD
:102AC000EB00806214C09091EB0090619093EB005A
:102AD00021E030E0A90102C0440F551F8A95E2F7BA
:102AE0004093EA001092EA008091EB0088608093A6
:102AF000EB001092E9008091E800877F8093E80066
:102B00000E94441C62C1811160C11091CC021F77E8
:102B10008091E3008078812B8093E3008091E8002E
:102B2000877F8093E8000E94441C8091E80080FF2A
:102B3000FCCF8091E30080688093E300111102C014
:102B400082E001C083E08093D4023FC1805882308C
:102B500008F03BC12091CC023091CD022C3D53E0D6
:102B6000350779F583E08A838AE289834FB7F89441
:102B7000DE01139620E03EE051E2E32FF0E05093B7
:102B80005700E49120FF03C0E295EF703F5FEF70C4
:102B90008E2F90E0EA3010F0C79601C0C0968D935A
:102BA0009D932F5F243149F74FBF8091E800877FC5
:102BB0008093E8006AE270E0CE0101960E94981CC2
:102BC000B4C08091CE029091CF02432F552743305D
:102BD0005105A9F068F44130510509F405C14230AE
:102BE000510509F0F2C084E790E0E7E1F4E04BC062
:102BF0004132510529F14232510589F1E6C0C9013E
:102C0000992781309105A1F058F0029709F0DDC0B5
:102C1000EDE9F4E0E4918E2F90E0EDE9F4E030C0CE
:102C2000EBEEF4E0E4918E2F90E0EBEEF4E028C0C0
:102C3000E1ECF4E0E4918E2F90E0E1ECF4E020C0D0
:102C40008430910508F0C1C0880F991FFC01E1583C
:102C5000FE4F0190F081E02D89E090E014C08430B7
:102C6000910508F0B2C0FC01EE0FFF1FE958FE4FBE
:102C70000190F081E02DDC01AD58BE4F8C9190E0C9
:102C8000009709F4A2C02091E800277F2093E80074
:102C90002091D0023091D1022817390708F4C901D8
:102CA00040E0009789F12091D402222309F43DC02D
:102CB0002530D9F12091E80023FD37C02091E800AC
:102CC00022FD2FC02091E80020FFEBCF4091F300C0
:102CD0002091F20030E0342B009759F02830310574
:102CE00040F444914093F100319601972F5F3F4F9C
:102CF000F3CF41E02830310509F040E02091E800B1
:102D00002E772093E800CDCF4111CDCF0AC080911E
:102D1000D402882351F0853041F08091E80083FD92
:102D200004C08091E80082FFF2CF8091E8008B77A9
:102D30008093E8004AC0803809F047C08091E800DD
:102D4000877F8093E8008091C9028093F100809191
:102D5000E8008E77D3CE811138C08091CC0290915B
:102D6000CD02992702978CF58091E800877F8093A8
:102D7000E8001091CC021093C9020E94441C11116A
:102D800006C08091E30087FD02C081E001C084E0BD
:102D90008093D40242E061EC81E00E94631C42E037
:102DA00061EC82E00E94631C42E261EC85E00E94DB
:102DB000631C42E261EC83E00E94631C42E260EC2F
:102DC00084E00E94631C8091D4028091E80083FF1C
:102DD00010C08091E800877F8093E8008091EB002D
:102DE00080628093EB0005C082E190E0EBE8F4E0C4
:102DF0004ACFAA96E3E00C94D1271F920F920FB608
:102E00000F9211242F933F934F935F936F937F9370
:102E10008F939F93AF93BF93CF93DF93EF93FF93E2
:102E2000C091E900CF708091EC00D82FD17080FD67
:102E3000D0E81092E9008091F000877F8093F00045
:102E400078940E942B141092E9008091F000886021
:102E50008093F000CD2BCF70C093E900FF91EF91EC
:102E6000DF91CF91BF91AF919F918F917F916F91A2
:102E70005F914F913F912F910F900FBE0F901F9038
:102E80001895E8EDF0E080818E7F80831092E2005B
:102E90001092DA001092E100A0EEB0E08C91816017
:102EA0008C9380818F77808319BCA7EDB0E08C91E3
:102EB0008E7F8C9380818F7E808310929E020895F6
:102EC000A0E0B0E0E6E6F7E10C94B027C8EDD0E072
:102ED00088818F7E8883E7EDF0E080818160808348
:102EE00084E082BF81E080939E0288818E7F888308
:102EF00002EE10E0F80110821092DA0081EEC82E86
:102F0000D12CF601108288818F7788838881806830
:102F1000888388818F7D888319BC1092D402109297
:102F2000C9021092C8021092C70290EEE92EF12C4D
:102F3000F70180818B7F808388818160888342E074
:102F400060E080E00E94631CF60180818E7F8083B8
:102F5000F801808181608083808188608083F701AF
:102F600080818E7F8083888180618883CDB7DEB742
:102F7000E8E00C94CC271F920F920FB60F92112409
:102F80002F933F934F935F936F937F938F939F9371
:102F9000AF93BF93EF93FF938091E10082FF09C04D
:102FA0008091E20082FF05C08091E1008B7F8093D9
:102FB000E1008091DA0080FF2AC08091D80080FF74
:102FC00026C08091DA008E7F8093DA008091D9004C
:102FD00080FF18C080E189BD82E189BD09B400FE8F
:102FE000FDCF81E08093D40280919E0281110FC0B9
:102FF0000E9441170E9460178091E20084608093D4
:10300000E20005C019BC1092D40210929E02809179
:10301000E10080FF17C08091E20080FF13C0809123
:10302000E2008E7F8093E2008091E20080618093D5
:10303000E2008091D80080628093D80019BC85E0BE
:103040008093D4028091E10084FF38C08091E20037
:1030500084FF34C080E189BD82E189BD09B400FEEE
:10306000FDCF8091D8008F7D8093D8008091E100C2
:103070008F7E8093E1008091E2008F7E8093E2005A
:103080008091E20081608093E2008091C9028823F0
:1030900011F084E007C08091E30087FD02C081E069
:1030A00001C083E08093D4021092A4020E94B22552
:1030B0000E94B01D0E9495218091D4028091E10070
:1030C00083FF27C08091E20083FF23C08091E1004D
:1030D000877F8093E10082E08093D4021092C9023E
:1030E0008091E1008E7F8093E1008091E2008E7FED
:1030F0008093E2008091E20080618093E20042E0F0
:1031000060E080E00E94631C8091F0008860809302
:10311000F000FF91EF91BF91AF919F918F917F91BF
:103120006F915F914F913F912F910F900FBE0F9034
:103130001F9018952091E4003091E50095E64091AC
:10314000EC00842F817040FF23C08091E80080FD57
:103150001DC08091D402882399F0853099F0809128
:10316000EB0085FD11C04091E4005091E50024176B
:10317000350729F3915011F09A01E1CF84E00895C9
:1031800082E0089583E0089581E0089580E0089545
:103190004091E80042FFDDCF0895EF92FF920F9338
:1031A0001F93CF93DF937C018B010E949A188111AA
:1031B00019C0E70101151105A1F08091E80085FD16
:1031C0000AC08091E8008E778093E8000E949A18E8
:1031D000882381F307C089918093F1000150110980
:1031E000E9CF80E0CDB7DEB7E6E00C94CE27CF93F1
:1031F0002091D402243029F5C091E900CF7030919C
:10320000EC00232F217030FD20E8C22B23E0209317
:10321000E9002091E80020FF11C040E050E060E2AA
:1032200070E00E94CD18882321F01092D2021092F3
:10323000D3028091E8008E778093E800CF70C0932E
:10324000E900CF91089508958091A6020895089508
:1032500080936E037093700360936F038091D40228
:10326000843001F585E08093E9008FEF9091E800CC
:10327000815095FD06C095ED9A95F1F700008111FA
:10328000F5CF8091E80085FF0DC040E050E063E09D
:1032900070E08EE693E00E94CD188091E8008E7772
:1032A0008093E8000895BC0184E00E9428190895E5
:1032B000BC0183E00E942819089522E02093E900D0
:1032C0002FEF3091E800215035FD06C035ED3A95DD
:1032D000F1F700002111F5CF2091E80025FF0BC088
:1032E00040E050E065E070E00E94CD188091E80079
:1032F0008E778093E8000895CF93DF932091240187
:10330000222339F020916C0327FF03C060E225E0FF
:1033100002C068E021E02093E9002FEF3091E8003F
:10332000215035FD06C035ED3A95F1F70000211129
:10333000F5CF2091E80025FF1DC0EC01809124010C
:10334000811105C040E050E068E070E003C070E02B
:1033500040E050E0CE010E94CD188091E8008E77C9
:103360008093E80080E2FE01A7EAB2E001900D92AE
:103370008A95E1F7DF91CF910895A0E0B0E0E3EC0A
:10338000F9E10C94AD27FC01A280948081E0848354
:10339000EFEEF4E0B490EEE6F5E0E491C4E1D3E0C2
:1033A000F8EDEF2EF2E0FF2ECC24CA94D12CEB19CD
:1033B0000E2F10E022E02A1530F08091A0028883C1
:1033C0008091A1028983911003C01B821A8255C08B
:1033D0008B818823F9F081508B832FEF829FC0016E
:1033E00011246C8170E00E949227FB01FF27E151BC
:1033F000FB4F8491E82FEB192FEFE29FC0011124BE
:10340000B8010E9492278091A202689FB001112406
:103410007A8333C00E9429282091A2022695215840
:1034200030E0A901440F551F322F2227240F351FEA
:10343000232F33278217930704F582E08A1588F437
:103440000E942928B6010E940E2988830E942928FB
:103450002091A1022695622F70E00E940E29280F6C
:1034600029831A828091A202843120F0893C18F0CD
:1034700088EC01C084E18C838B8397014A81698148
:1034800088810E943B1F259624E0E20EF11C83E018
:10349000CF35D80709F08ECF0E943D1ECDB7DEB7DD
:1034A000EBE00C94C927EF92FF920F931F93CF93F9
:1034B000DF938C01C8EDD2E0E12CF12CF80184817E
:1034C000F7E0EF16F1041CF4882339F002C08111F3
:1034D00004C09E014091A20202C09E0140E06091A2
:1034E000A1028091A0020E943B1F8FEFE81AF80A08
:1034F00024969FE0E916F10409F70E943D1EF801A9
:10350000848190E00196817099278483CDB7DEB7DE
:10351000E6E00C94CE27A0E0B0E0E1E9FAE10C94FB
:10352000AC27EC014C81042F10E09801D8010E94D7
:10353000E5289B01AC010E94B0286B017C01E0E210
:10354000F0E0E01BF10BA5E5B0E09B01AC010E94AF
:10355000B0284B015C019F01DF010E9428299B01DB
:10356000AC010E94BB289B01AC012C0D3D1D4E1DE2
:103570005F1DC501B4010E94C328822FF22E99E27B
:10358000921728F093E0299F900111240DC025E5A2
:1035900030E0281B3109C901880F991F280F391FF6
:1035A00037FF02C02F5F3F4F35952795122F10959B
:1035B00098EDC92E92E0D92E00E085E5E82EEF18AF
:1035C00001FD02C08E2D01C08F2D9601412F60910B
:1035D000A1020E943B1F0F5F84E0C80ED11C0F3078
:1035E00079F70E943D1E8C81811102C091E003C0D9
:1035F000803219F49FEF9093270190912701890F52
:103600008C83CDB7DEB7ECE00C94C8270F931F93E3
:10361000CF93DF93C8EDD2E0FE01118210821282B7
:103620001382349683E0E431F807B9F700E010E044
:103630008091D602082E000C990B0817190794F0F8
:1036400080912601082E000C990B8017910754F0E9
:103650009E014091A2026091A1028091A0020E946D
:103660003B1F04C0198218821A821B820F5F1F4FF2
:1036700024960F301105E1F60E943D1E8091250130
:103680009091D602980F9093D60220912601280F90
:1036900020932601121614F49E301CF0819580931D
:1036A0002501DF91CF911F910F910895A0E0B0E027
:1036B000ECE5FBE10C94AF27FC01828180FF03C0A5
:1036C000DD24DA9402C0DD24D39408ED12E0C0E0DA
:1036D000D0E02FE0B22EF801118210821282138204
:1036E00094E0E92EF12CC12C8091D5028C0D803113
:1036F0002CF06B2D0E940029892F02C087FD815F6D
:10370000082E000C990BC817D90791F48091A202DA
:103710008E9DA0018F9D500D11245595479555956F
:10372000479598016091A1028091A0020E943B1FE1
:10373000CD0CF1E0EF1AF108B9F621960C5F1F4F9E
:10374000CF30D10541F60E943D1E8091D50291E017
:10375000D91206C0811102C08EE007C0815005C099
:1037600090E00196BE010E940E298093D502CDB74C
:10377000DEB7E9E00C94CB27EF92FF921F93CF9333
:10378000DF93EC0188EDE82E82E0F82E10E08C81CA
:1037900097014091A2026091A102810F0E943B1FFC
:1037A0001F5E84E0E80EF11C1F3F89F70E943D1E5A
:1037B0009A818C8190FF02C08F5F01C081508C8301
:1037C000DF91CF911F91FF90EF900895A4E0B0E0BA
:1037D000ECEEFBE10C94B4278C018091D7028111AF
:1037E0000AC09E012F5F3F4F4FEF6FEF0E943B1FBC
:1037F0008A818093D702F8018481813051F028F0CA
:10380000823061F44091D7020AC08091D70240E033
:1038100007C06091D70240E080E003C040E080E054
:1038200060E00E94CF1EF801848190E0019663E081
:1038300070E00E940E2984832496E4E00C94D02743
:10384000CF93DF93EC01EFE9F2E0438162818C8159
:103850000E94C81F8C818F5F8C83DF91CF91089568
:10386000CF93DF93EC01EC81F0E0E151FB4F449109
:10387000EFE9F2E0628181810E94C81F8C818F5F35
:103880008C83DF91CF9108958091CA0287FF11C088
:103890008091E80082FD05C08091D4028111F8CFAB
:1038A00011C08091E8008B770BC08091D4028823EF
:1038B00049F08091E80080FFF8CF8091E8008E7792
:1038C0008093E8000895982F973068F59093E90069
:1038D000981739F07091EC002091ED005091F000B4
:1038E00003C0242F762F50E021FD02C09F5FECCF54
:1038F0003091EB003E7F3093EB003091ED003D7F47
:103900003093ED003091EB0031603093EB00709319
:10391000EC002093ED005093F0002091EE0027FD85
:10392000E5CF80E008958F708093E90081E00895ED
:103930002091D0023091D1022617370748F0611547
:10394000710539F42091E8002E772093E80001C03A
:10395000B901FC0120E06115710579F18091D40273
:103960008823F1F18530F1F18091E80083FD3CC0BE
:103970008091E80082FD2EC08091E80080FFEBCFAF
:103980002091F3008091F20090E0922B6115710577
:1039900051F08830910538F421912093F100615065
:1039A00071090196F3CF21E0089709F020E080919A
:1039B000E8008E778093E800CECF2111CFCF0AC0E8
:1039C0008091D402882361F0853061F08091E80015
:1039D00083FD0AC08091E80082FFF2CF80E0089565
:1039E00082E0089583E0089581E0089578941F921D
:1039F0000F920FB60F9211248F939F93AF93BF93A3
:103A00008091680390916903A0916A03B0916B0360
:103A10000196A11DB11D8093680390936903A09343
:103A20006A03B0936B03BF91AF919F918F910F90F9
:103A30000FBE0F901F9018959C014FB7F89480917E
:103A4000680390916903A0916A03B0916B034FBF23
:103A5000821B930B08952FB7F8948091680390917F
:103A60006903A0916A03B0916B032FBF08951F9261
:103A70000F920FB60F9211248F939F93AF93BF9322
:103A80008091680390916903A0916A03B0916B03E0
:103A90004196A11DB11D8093680390936903A09383
:103AA0006A03B0936B03BF91AF919F918F910F9079
:103AB0000FBE0F901F901895209124012223C9F06A
:103AC00020916C0327FF15C0262F26952695269555
:103AD0002E31C8F4FC01E20FF11D677081E090E027
:103AE00001C0880F6A95EAF78095928189238283C5
:103AF0000895FC0106962281621301C0128231965C
:103B0000E817F907C1F7089520916603309167031C
:103B10002817390771F09093670380936603E0914B
:103B20006403F0916503309721F00084F185E02D66
:103B3000099508952091620330916303281739078E
:103B400071F09093630380936203E0916403F091BA
:103B50006503309721F00680F781E02D09950895DF
:103B6000E0916403F0916503309729F00190F081B2
:103B7000E02D0995089580E00895CF93DF93EC013F
:103B8000EA85FB85309719F06C857D8509958B81D9
:103B90000E949F108C810E94A6100E94AD1086E0AA
:103BA000FE0111928A95E9F7DF91CF910895CF93A5
:103BB000DF93EC018D8181FD18C082608D8390912F
:103BC0005F038B81892B80935F039091A4028C818A
:103BD000892B8093A4020E94AD10E885F985309767
:103BE00021F06C857D85CE010995109261031092BC
:103BF00060038D8180FD03C0CE010E94BD1DDF9159
:103C0000CF910895CF93DF930E94292866E070E05A
:103C10000E940E29D82F0E9429286EE070E00E9491
:103C20000E29C82F6D2F782F80E00E946E0E04970A
:103C3000C59718F48D2F9C2F02C00E94021EDF91A1
:103C4000CF91089590919F0290FF04C09695981788
:103C500048F003C0811106C090E0961718F40E9446
:103C6000F021089561E00E94AB210895882311F0AE
:103C7000FA0101C0FB0109950895EF92FF920F939D
:103C80001F93CF93DF9380919F0280FF08C008EDC0
:103C900012E084E1E82E83E0F82EF8011BC0E8ED85
:103CA000F2E084E193E01182108212821382349652
:103CB0008E179F07C1F7EBCF381708F4832F838344
:103CC000381B3183281B2083981B92833496EE1671
:103CD000FF0641F0928120813181892F291760F7F9
:103CE000822FEACF80917D03882381F18091290181
:103CF00090912A01892B51F580912801882331F177
:103D000065E070E084E80E94C826892B19F01092C3
:103D100028011AC0C8EDD2E065E070E088810E94F9
:103D20003B2765E070E089810E943B2765E070E0F9
:103D30008A810E943B2765E070E08B810E943B27CF
:103D40002496EC16FD0641F70E948E27579A8BB1F8
:103D50008F779BB190682FB7F894E016F10699F031
:103D6000F80131918F0148E09BB9000000C037FF96
:103D70008BB9330F000000C000C000C08BB900C079
:103D80004A9591F7EACF2FBF8FE594E00197F1F7BD
:103D900000C00000CDB7DEB7E6E00C94CE279091CE
:103DA0009F0290FF0DC0E8EDF2E0818360834283C3
:103DB0001382349693E0E431F907B9F70E943D1E6F
:103DC000089580919F02282F269530E02115310516
:103DD00019F48170826005C02B32310524F08170A6
:103DE000846580939F020895CF92DF92EF92FF92B5
:103DF0006B017C010E94E11EB701A60188E090E002
:103E00000E947F28FF90EF90DF90CF9008958091DF
:103E1000A302882319F081508093A30260919F022E
:103E20007091A0028091A1029091A2020E94F41EC2
:103E300008958091A302833018F48F5F8093A302CA
:103E400060919F027091A0028091A1029091A202C4
:103E50000E94F41E0895EFE9F2E083E0808311826E
:103E60008FEF828383831482608171818281938149
:103E70000E94F41E0895A0E0B0E0E1E4FFE10C949C
:103E8000AE27E82EF62EE901E42FF0E0611106C01E
:103E9000E151FA4FE4914E2F2E2F71C0062F10E002
:103EA000E151FA4F4491F42FC42ED12C26E0829F89
:103EB000C00111242FEF30E0B9010E9492275BEA84
:103EC0005603C001579F900D11248E0D911D8E0D2C
:103ED000911D582F550F580FD901A01BB10BAC9D48
:103EE000C001AD9D900DBC9D900D1124E92FF59E54
:103EF000D0011124AB2FBB277901EA1AFB0AEC9CF5
:103F0000D001ED9CB00DFC9CB00D11245901A51AF7
:103F1000B108A09E7001A19EF00CB09EF00C11247F
:103F2000EF2CFF242E193F092C9D80012D9D100D93
:103F30003C9D100D1124212F6230710591F048F441
:103F400061157105E1F061307105B9F4242F4B2F33
:103F500016C06430710569F040F06630710579F083
:103F60000CC0242F492FE12F0AC0492FEF2F2B2FF0
:103F700006C0292FE42F412F02C0292FEB2F4983A0
:103F80002883EA831B82CDB7DEB7EAE00C94CA2708
:103F9000A4E0B0E0EEECFFE10C94B62790919F0214
:103FA00090FF0AC09E012F5F3F4F0E943B1F4B8135
:103FB00069818A810E94CF1E2496E2E00C94D22768
:103FC000A4E0B0E0E6EEFFE10C94A927F82E762EEF
:103FD000E42E622E90919F0290FF67C0E92FE69534
:103FE000AE2FB0E0A957BE4F8C91809384039E7F83
:103FF000923061F49E012F5F3F4F8F2D0E943B1F37
:104000004B8169818A810E94CF1E3DC0823019F4A4
:10401000E090A20238C0863019F4F090A00233C0BC
:104020008930D9F3893179F5E9518E2F8170582E75
:10403000E695F0E0E151F94FE4910E2F10E088EDA4
:10404000C82E82E0D82EA12CB12C9FE0892E912C75
:10405000C501B4010E9492278F2D511002C0860F16
:1040600001C0861B96014E2D672D0E943B1FA00E9E
:10407000B11E84E0C80ED11C84E1C81683E0D806C6
:1040800039F70E943D1EF092A0027092A102E092C8
:10409000A202662051F060919F027091A00280916F
:1040A000A1029091A2020E94F41E2496EFE00C94CB
:1040B000C527EFE9F2E043812CE0421B08F440E021
:1040C00021E0628181810E94E01F0895EFE9F2E022
:1040D00043812CE0420F08F44FEF21E0628181819F
:1040E0000E94E01F0895EFE9F2E062812FEF621B6A
:1040F00008F460E021E0438181810E94E01F08957F
:10410000EFE9F2E062812FEF620F08F46FEF21E038
:10411000438181810E94E01F0895EFE9F2E08181EF
:1041200021E0438162818C500E94E01F0895EFE9F5
:10413000F2E0818121E043816281845F0E94E01F7F
:1041400008958D3E39F490917A0397FF35C010920F
:104150007A0359C08E3E29F490917A031916BCF364
:104160002BC0909179038F3E29F497FF25C01092C0
:10417000790349C0803F19F41916CCF31DC0909102
:104180007B03893F29F41916BCF410927B033BC0D2
:104190008A3F19F497FF10C0F8CF8B3F39F4909104
:1041A0007C0397FF09C010927C032DC08C3F21F443
:1041B00090917C031916BCF39FE0980F983080F41F
:1041C00021E030E0A90102C0440F551F9A95E2F7A3
:1041D000CA0180959091780389238093780313C056
:1041E0008D3F21F4809173038E7F0BC08E3F21F4AD
:1041F000809173038D7F05C08F3F29F480917303F5
:104200008B7F8093730380917903811106C0809125
:104210007A03811102C01092720380917B03811195
:1042200006C080917C03811102C010927103089531
:1042300081E008958091730380FD14C081FD14C056
:1042400082FD16C080917203882381F08E3180F444
:1042500028E4829FC00111246EE170E00E940E29C3
:10426000862F089582E1089584E2089588E00895F4
:1042700088E408958D3E21F40E941A21819504C09E
:104280008E3E29F40E941A2180937A0308958F3E6E
:1042900021F40E941A21819504C0803F29F40E94D4
:1042A0001A21809379030895893F19F40E941821F7
:1042B00005C08A3F31F40E941821819580937B03C9
:1042C00008958B3F21F40E941821819504C08C3FF2
:1042D00029F40E94182180937C0308959FE0980F91
:1042E000983078F421E030E0A90102C0440F551F56
:1042F0009A95E2F7CA0190917803892B809378030D
:1043000008958D3F21F48091730381600BC08E3F2F
:1043100021F480917303826005C08F3F29F480915E
:104320007303846080937303089560919F02669580
:1043300070E04BE050E08BE291E00E94582A892B1C
:1043400019F481E0809385030E942B1D90937F03D5
:1043500080937E03089590919F0290FF36C09170E4
:10436000811102C0926006C08B3210F0946502C0C9
:10437000880F982B90939F02662351F060919F02C3
:104380007091A0028091A1029091A2020E94F41E5D
:1043900060919F02669570E04BE050E08BE291E007
:1043A0000E94582A892B19F01092850302C00E949E
:1043B000952181E08093810320E04091A2026091E9
:1043C000A1028091A0020E94E01F089580919F02A7
:1043D0008695815009F48AE261E00E94AB2108953C
:1043E00080919F0286958F5F8B3208F081E061E0BB
:1043F0000E94AB2108950E942B1D20917903211169
:1044000004C020917A03222321F0909377038093B4
:10441000760320917B03211104C020917C03222389
:1044200021F09093750380937403E0916403F091FD
:104430006503309731F00480F581E02D88E793E043
:10444000099508959C013A9521153F4130F5BC012D
:1044500066277270AC01442754709C012227387083
:1044600094FF0FC090FF02C080E101C080E0672B85
:1044700009F08062452B09F08064232B79F0806875
:104480000895892F8170672B09F08260452B09F010
:104490008460232B19F08860089580E00895CF93FD
:1044A000DF93EC018A81833031F40E9422140E9450
:1044B00022140E9422148A81843010F00E94221457
:1044C000DF91CF910895A7E1B0E0E9E6F2E20C9424
:1044D000B5274B8B5C8B6D8B7E8B8F8B6111109214
:1044E0005F0386E09E01235F3F4FD901E82F1D92B5
:1044F000EA95E9F795E0FE017396D90101900D92D6
:104500009A95E1F79C894E895F897B897D879E8793
:104510006F87598B488BF901DE01179601900D9238
:104520008A95E1F7CE0107960E94B11181113EC034
:1045300086E0FE013796DE01119601900D928A9574
:10454000E1F7FF81E8856A857B856115710531F0AA
:10455000EF3F31F481E0FF3F19F403C081E001C077
:1045600080E080FD23C02091490230E0C90101961E
:104570008770992740917A0250E08417950779F166
:10458000F983EA837D836C8396E0929FD001939FA9
:10459000B00D1124A65BBD4FFE01319601900D9226
:1045A0009A95E1F7809349020E94021116E08091EA
:1045B0007A0290914902891709F1189FC0011124CC
:1045C000865B9D4F0E94B1118823C1F080917A02D1
:1045D00090E001968770992780937A02E8CF109235
:1045E000A4020E94B2251092490210927A02E3E4DA
:1045F000F2E086E0DF011D928A95E9F76796E3E035
:104600000C94D127982F92959F7019F0892F24E050
:1046100001C020E0982F9695969511F02E5F892F76
:10462000982F969509F02F5F822F08951092A4027B
:104630000E94B2252FEF84E39CE0215080409040FF
:10464000E1F700C000009AE088E10FB6F894A89561
:10465000809360000FBE90936000FFCFCF93DF93F5
:10466000EC010E94E825CE01805E9109089710F0C8
:10467000209731F4CE010E9422220E94D72505C046
:10468000CE010E9422220E94C625DF91CF9108957B
:104690008FE39CE90197F1F700C000008091870348
:1046A000823049F018F4813049F00CC0833031F089
:1046B000853021F007C080EE90E002C089E09CE0E8
:1046C0000E942E23109287030895CF93DF93EC016D
:1046D000805E9109089710F0209731F4CE010E9476
:1046E00022220E94DE2505C0CE010E9422220E94C5
:1046F000CD258C2F0E941D26DF91CF910895FC01BE
:104700009281913039F4858182FD12C080FF10C002
:1047100092E00EC0923039F4858182FD06C080FDA2
:1047200006C093E005C096E003C095E001C094E0A8
:1047300090938703923049F018F4913081F00895F6
:10474000933031F0953049F0089580EE90E009C043
:1047500089E09CE00E94652302C00E94221489E047
:104760009CE00E9465230895CF93C82F0E940223E6
:1047700056985E9825982D9826982E9827982F98C9
:1047800090E0FC013197E730F105A8F4E459FF4FC0
:104790000C942229259A2D9A0EC0259A2D9A269A94
:1047A0002E9A09C0259A2D9A04C0259A2D9A269AE8
:1047B0002E9A279A2F9A8C2FCF91089580E290E01D
:1047C00090932A018093290180917D0381110EC06D
:1047D0000E94C22681E080937D032FEF83ED90E35A
:1047E000215080409040E1F700C0000060E570E09B
:1047F00080E40E94C82690932A0180932901892B86
:1048000009F04EC060E570E080E00E943B27909385
:104810002A0180932901892B09F042C060E570E0EC
:1048200080E00E943B2790932A0180932901892BE5
:10483000B9F560E570E08FE30E943B2790932A0171
:1048400080932901892B61F50E948E2760E570E035
:1048500080E40E94C82690932A0180932901892B25
:10486000F9F460E570E08CE00E943B2790932A0108
:1048700080932901892BA1F460E570E080E00E941B
:104880003B2790932A0180932901892B49F460E505
:1048900070E08FE30E943B2790932A0180932901C7
:1048A0000E948E27809129010895CF93DF93569817
:1048B0005E9825982D9826982E9827982F98C8E8C6
:1048C000D0E08FEF90E099838883AAE8B0E011965A
:1048D0009C938E93ECE8F0E091838083259A2D9A47
:1048E0002FEF80E792E0215080409040E1F700C038
:1048F0000000269A2E9A2FEF80E792E02150804008
:104900009040E1F700C00000279A2F9A2FEF80E730
:1049100092E0215080409040E1F700C000002598CF
:104920002D982FEF80E792E0215080409040E1F7F2
:1049300000C0000026982E982FEF80E792E02150CB
:1049400080409040E1F700C0000027982F988091A8
:10495000B50187702FEF829FC0011124959587952F
:104960009595879599279983888311969C938E9323
:104970009183808356985E9825982D9826982E9836
:1049800027982F98DF91CF910895CF93E82F873004
:1049900080F58091290190912A01892B09F047C067
:1049A000CE2F60E570E080E40E94C82690932A0133
:1049B00080932901892BD1F460E570E082E10E94A7
:1049C0003B2790932A0180932901892B79F481E078
:1049D00090E001C0880FCA95EAF760E570E0809525
:1049E0000E943B2790932A01809329010E948E27E1
:1049F0001EC090E0FC013797E730F105C0F4ED5898
:104A0000FF4F0C942229209A289811C0219A2998A6
:104A10000EC0229A2A980BC0239A2B9808C0529A4B
:104A20005A9805C0539A5B9802C03E9A4698CF9117
:104A30000895209828982198299822982A982398B0
:104A40002B9852985A9853985B983E984698089598
:104A5000CF93873040F58091290190912A01892BCD
:104A600059F560E570E081E40E94C82690932A0120
:104A700080932901892B11F0C0E011C080E590E0FE
:104A80000E946A2797FF05C090932A01809329010D
:104A9000F3CFC82FC09510922A01109229010E94CD
:104AA0008E278C2F0AC09FB18FB1807F8695869507
:104AB0009370892B809501C080E0CF910895CF93AA
:104AC000FC018081918123813481232B31F09F3F30
:104AD00031F491E08F3F19F403C091E001C090E000
:104AE000C92FC17090FD1CC0808191810E94A411CA
:104AF00092959F70963079F010F4925001C09A50C0
:104B0000923088F4803F71F018F4883E60F40AC057
:104B1000843F49F407C0883E28F0813F21F402C059
:104B2000C0E001C0C1E08C2FCF91089580E090E0FB
:104B30000E949A1D80E090E00E94841D10925F0305
:104B40000E94AD10E8E7F3E085E0DF011D928A9551
:104B5000E9F71092720310927103109273030E948E
:104B6000FB21089580912401882331F080916C030A
:104B700087FF02C08EE101C086E0E4E0F2E0DF01E1
:104B80001D928A95E9F70E9496250895882321F0C1
:104B90000E949F100E94AD100895882339F09091D3
:104BA0005F03892B80935F030E94AD1008958823D3
:104BB00021F00E94A6100E94AD100895882339F0BC
:104BC0009091A402892B8093A4020E94AD100895B5
:104BD000882391F19CEF980F913A30F4682F82E08E
:104BE00092E00E945C1D0DC090E2980F983060F436
:104BF000877091E001C0990F8A95EAF7892F0E948A
:104C0000A6100E94AD1008959BE5980F933028F4EC
:104C100080E090E00E949A1D089598E5980F9731E2
:104C200028F480E090E00E94841D08958D3E20F0DD
:104C30000E94A1200E94FB210895CF93882309F4AC
:104C40009FC0C82F8CEF8C0F813A08F05BC0809119
:104C500024018823E1F080916C0387FF18C0EC2FBA
:104C6000E695E695E695F0E0EE5FFD4F8281282F10
:104C700030E04C2F477081E090E002C0880F991F10
:104C80004A95E2F782239323892B59F411C0E4E07B
:104C9000F2E08191C81729F082E0EA30F807C9F7FD
:104CA00007C06C2F82E092E00E945C1D0E94AD1054
:104CB000809124018823B1F080916C0387FF12C09A
:104CC000EC2FE695E695E695F0E0EE5FFD4FC770B8
:104CD00081E090E001C0880FCA95EAF79281892BA4
:104CE000828320C0A4E0B2E0EFEF80E09D91C9177D
:104CF000C9F0EF3F19F4911101C0E82F8F5F8630A2
:104D0000A9F735C080E28C0F883078F4C77081E055
:104D100090E001C0880FCA95EAF79091A402892B10
:104D20008093A4020E94AD102BC0EBE5EC0FE330A2
:104D300040F4F0E0EE5BFE4F808190E00E949A1D0F
:104D40001FC0E8E5EC0FE73150F4F0E0EE0FFF1F75
:104D5000EB5BFE4F808191810E94841D11C0CD3E8E
:104D600078F08C2F0E943A210E94FB2109C0EF3F6E
:104D7000C9F20E2E000CFF0BEE5FFD4FC283D2CFA7
:104D8000CF9108951092B9008CE08093B8000895F7
:104D9000A0E0B0E0EEECF6E20C94AD27B82EEB010B
:104DA0000E942B1D6C01C431D10558F0CF3F8FEF0D
:104DB000D80759F0CE0164E170E00E9492277B0190
:104DC00007C0EE24E394F12C03C025E0E22EF12C81
:104DD00084E8A82E94EA992E1092BC009092BC0010
:104DE0000E942B1D8C018091BC0087FD07C0C8016B
:104DF0000E941C1DE816F906B0F729C08091B90081
:104E0000887F883041F08091B900887F803119F027
:104E10000FEF1FEF1EC0B092BB00A092BC000E941B
:104E20002B1D8C018091BC0087FD07C0C8010E942A
:104E30001C1DE816F906B0F70AC08091B900887FFA
:104E4000883111F0803421F700E010E00EC00EEF41
:104E50001FEFCF3F8FEFD80709F4BECFC6010E94E6
:104E60001C1DC817D90708F0B7CFC801CDB7DEB7EA
:104E7000EBE00C94C9270F931F93CF93DF93EB01C3
:104E80008093BB0084E88093BC000E942B1D8C01A2
:104E90008091BC0087FD0DC0CF3F8FEFD807C1F3D5
:104EA000C8010E941C1DC817D90790F78EEF9FEF0D
:104EB0000CC02091B900287F81E090E0283211F4E5
:104EC00080E090E0919581959109DF91CF911F91BC
:104ED0000F9108950F931F93CF93DF93EC0184E814
:104EE0008093BC000E942B1D8C018091BC0087FD2B
:104EF0000DC0CF3F8FEFD807C1F3C8010E941C1D22
:104F0000C817D90790F78EEF9FEF03C08091BB00C1
:104F100090E0DF91CF911F910F91089584E98093E4
:104F2000BC000895AA1BBB1B51E107C0AA1FBB1FF1
:104F3000A617B70710F0A61BB70B881F991F5A9525
:104F4000A9F780959095BC01CD0108952F923F92CD
:104F50004F925F926F927F928F929F92AF92BF9289
:104F6000CF92DF92EF92FF920F931F93CF93DF9335
:104F7000CDB7DEB7CA1BDB0B0FB6F894DEBF0FBE92
:104F8000CDBF09942A88398848885F846E847D84DF
:104F90008C849B84AA84B984C884DF80EE80FD80E1
:104FA0000C811B81AA81B981CE0FD11D0FB6F89457
:104FB000DEBF0FBECDBFED0108958F929F92AF92DD
:104FC000BF92CF92DF92EF92FF92CF93DF93EC01EB
:104FD000688179818A819B816115710581059105BF
:104FE00021F464E279ED8BE597E02DE133EF41E0C8
:104FF00050E00E94912849015A019B01AC01A7EAA7
:10500000B1E40E94B0286B017C01ACEEB4EFA501C5
:1050100094010E94BE28DC01CB018C0D9D1DAE1DAC
:10502000BF1DB7FF03C00197A109B04888839983CA
:10503000AA83BB839F77DF91CF91FF90EF90DF90A2
:10504000CF90BF90AF909F908F9008950E94DD27E2
:10505000089580E091E00E94DD270895A0E0B0E08F
:105060008093000190930101A0930201B09303018A
:105070000895DC01CB01FC01F999FECF06C0F2BD19
:10508000E1BDF89A319600B40D9241505040B8F706
:105090000895F999FECF92BD81BDF89A992780B500
:1050A0000895A6E1B0E044E050E00C943B28A8E16C
:1050B000B0E042E050E00C943B28DC01A40FB51FA7
:1050C0004150504048F0CB01840F951F2E910E9413
:1050D0006E2841505040D0F70895262FF999FECF01
:1050E00092BD81BDF89A019700B4021639F01FBA3B
:1050F00020BD0FB6F894FA9AF99A0FBE0895039658
:10510000272F0E946E280E946D28252F0E946E284E
:10511000242F0C946E280196272F0E946E280C9441
:105120006D28052E97FB1EF400940E94A82857FDB9
:1051300007D00E94C32807FC03D04EF40C94A82883
:1051400050954095309521953F4F4F4F5F4F0895B3
:1051500090958095709561957F4F8F4F9F4F0895E3
:105160000E94E528A59F900DB49F900DA49F800DEF
:10517000911D11240895B7FF0C94B0280E94B02807
:10518000821B930B0895A1E21A2EAA1BBB1BFD01E3
:105190000DC0AA1FBB1FEE1FFF1FA217B307E40716
:1051A000F50720F0A21BB30BE40BF50B661F771F6E
:1051B000881F991F1A9469F760957095809590954E
:1051C0009B01AC01BD01CF010895A29FB001B39F27
:1051D000C001A39F700D811D1124911DB29F700D00
:1051E000811D1124911D0895991B79E004C0991F18
:1051F000961708F0961B881F7A95C9F78095089531
:1052000087FB082E062687FD819567FD61950E9424
:10521000F4280EF4919507FC8195089597FB072ECD
:1052200016F4009407D077FD09D00E94922707FC5E
:1052300005D03EF4909581959F4F089570956195A6
:105240007F4F0895EE0FFF1F0590F491E02D099414
:105250000E94E528332312F48A1B9B0B0C943229FD
:105260000E94E528B7FF0895821B930B08950F93C2
:105270001F93CF93DF938230910510F482E090E08A
:10528000E0918A03F0918B0320E030E0A0E0B0E0F1
:10529000309719F1408151810281138148175907D4
:1052A000C8F08417950769F4109731F012960C93A3
:1052B000129713961C9327C000938A0310938B03B5
:1052C00022C02115310519F04217530718F49A012D
:1052D000BD01EF01DF01F801DBCF21153105F9F048
:1052E000281B390B2430310580F48A819B8161159C
:1052F000710521F0FB019383828304C090938B039B
:1053000080938A03FE01329644C0FE01E20FF31F30
:105310008193919322503109398328833AC0209197
:10532000880330918903232B41F4209106013091A9
:105330000701309389032093880320910401309161
:1053400005012115310541F42DB73EB74091080103
:1053500050910901241B350BE0918803F0918903DA
:10536000E217F307A0F42E1B3F0B2817390778F03C
:10537000AC014E5F5F4F2417350748F04E0F5F1F9B
:1053800050938903409388038193919302C0E0E096
:10539000F0E0CF01DF91CF911F910F910895CF934E
:1053A000DF93009709F481C0FC01329713821282C7
:1053B000A0918A03B0918B03109781F420813181F1
:1053C000820F931F20918803309189032817390792
:1053D00051F5F0938903E093880367C0ED0120E065
:1053E00030E0CE17DF0740F44A815B819E01411512
:1053F0005105F1F0EA01F5CFD383C2834081518199
:10540000840F951FC817D90759F488819981840F93
:10541000951F0296918380838A819B8193838283E7
:105420002115310529F4F0938B03E0938A033DC0E5
:10543000E901FB83EA8349915991C40FD51FEC1709
:10544000FD0761F480819181840F951F0296E90127
:1054500099838883828193819B838A83E0E0F0E053
:1054600012968D919C911397009719F0FD01DC0124
:10547000F7CF8D919C9111979D012E5F3F4F820F29
:10548000931F20918803309189032817390769F405
:10549000309729F410928B0310928A0302C0138272
:1054A0001282B0938903A0938803DF91CF9108956E
:1054B000FC014150504030F001900616D1F7319771
:1054C000CF010895882799270895FB01DC0104C0C6
:1054D0008D910190801921F441505040C8F7881BEC
:0854E000990B0895F894FFCF29
:1054E8000100000000008C03200024197C195D19BC
:1054F8005819531923190000000000004F227F2378
:10550800482300000101020101200001191A1B1C97
:105518001D1E1F2021224A504E70372F58524D61B0
:105528003900818283E200E900EA00B500B600B7DD
:1055380000CD008301CC008A01920194012102234D
:105548000224022502260227022A02B300B4006FB1
:105558000070004022476DD703B5036E030103298D
:1055680004420462047B04000102020202060606E9
:105578000909090909090F0F0F0F0F0F151515183C
:10558800191919191919191919192324252525253E
:025598002525C7
:00000001FF
