:100000000C9479030C9496030C9496030C94960329
:100010000C9496030C9496030C9496030C949603FC
:100020000C9496030C9496030C9437120C9479114B
:100030000C94E1210C9496030C9496030C94960373
:100040000C9496030C9496030C9496030C949603CC
:100050000C9496030C94A0210C9496030C94960394
:100060000C9496030C9496030C9496030C949603AC
:100070000C9496030C9496030C9496030C9496039C
:100080000C9496030C9496030C9496030C9496038C
:100090000C9496030C9496030C9496030C9496037C
:1000A0000C9496030C9496030C9496033B063B0623
:1000B0006D066D06D706F30688088808FE06DC077D
:1000C000ED07ED078C0FB30F6111B30F6111FF0F37
:1000D0002210611117112711871D8C1D961D8A1D75
:1000E0008F1D941D921DC41EC71ECA1ECD1ED01E7C
:1000F000D31ED61E00047F3F1F643214643214786E
:100100003C1E1E140A0505010980A1018503190181
:100110002AB700150126B700950175108100C005AA
:100120000C0901A101850419012AA002150126A0CC
:1001300002950175108100C005010906A10185061F
:10014000050719E029E715002501950875018102C9
:100150000507190029EF1500250195F075018102A9
:100160000508190129059505750191029501750389
:100170009101C005010902A1010901A100050919A8
:10018000012908150025019508750181020501095D
:100190003009311581257F950275088106093815CA
:1001A00081257F950175088106050C0A38021581A5
:1001B000257F950175088106C0C00660FF0961A111
:1001C000010962150026FF00952075088102096368
:1001D000150026FF00952075089102C0050109064B
:1001E000A101050719E029E715002501950875010A
:1001F00081029501750881010507190029FF150085
:1002000026FF009506750881000508190129059546
:100210000575019102950175039101C009027400F1
:10022000040100A0FA0904000001030101000921F2
:1002300011010001224000070581030800010904A3
:100240000100020300000009211101000122220027
:1002500007058303200001070504032000010904AA
:1002600002000103010200092111010001224700DF
:1002700007058203080001090403000103000000D0
:10028000092111010001226D0007058503200001ED
:1002900012010002000000089732754901000102B6
:1002A000000122034500720067006F0044006F00E8
:1002B0007800200045005A002000530068006900C3
:1002C0006E006500000028035A0053004100200022
:1002D00054006500630068006E006F006C006F00E2
:1002E0006700790020004C0061006200730000008C
:1002F0000403090435002B002941E100E00000005F
:100300001E00140004001D00E000E2081F001A0097
:1003100016001B000100280020000800070006004E
:10032000090CE3002100150009001900E200A800F3
:10033000220017000A0005000000AA002300500D4B
:100340000000500C0000A900A6004F1D00004F1C2B
:100350000000AC0024001C000B0011000000AB00EA
:10036000250018000D0010000251AE0026000C0000
:100370000E00360001002C00270012000F0037008D
:1003800001002A002D00130033003800E40028008B
:100390002E0031003400E500025300002900010066
:1003A00001000100010000001E0401000100010025
:1003B000010001001F0401000100010001002B01E8
:1003C00020042F022F00260201002B0321043002FB
:1003D0003000270201000100220401000100010099
:1003E00000006900230401000000010000006A0011
:1003F00001000100000001000000010001000100F7
:1004000001000100000001000100010001000100E5
:1004100001000100010001000100010001004C1871
:10042000010001000100010001004C000100010079
:1004300001000100010001000100010001000100B4
:1004400001000000010001000100010001000000A6
:100450000100010001000100010029000100F1007C
:10046000EF0001000100F1000100ED00EE000100CD
:10047000E000E3000100F200F0000100E2000100F2
:100480000100F900FA000100000001000100010074
:100490000000010000000100010001000000010057
:1004A0000000010001000100010001000000010046
:1004B0000100010050000100010001000100520094
:1004C0005100010001000100010001004F00010086
:1004D0000100010001000100010001000100010014
:1004E0000100010001000100010000000001010104
:1004F00001010101010102020202020202020203E1
:1005000003030303030303040404040404040505B0
:100510000505050606060606070707070708080873
:1005200008090909090A0A0A0B0B0B0C0C0C0D0D22
:100530000D0E0E0E0F0F0F101011111112121313BA
:100540001414151516161717181819191A1A1B1B33
:100550001C1D1D1E1E1F202021222223242425268F
:1005600026272829292A2B2C2D2D2E2F30313232C7
:10057000333435363738393A3B3C3D3E3F404142D3
:10058000434445464748494A4C4D4E4F50515354B9
:10059000555658595A5B5D5E5F616264656668696D
:1005A0006B6C6D6F7072737577787A7B7D7E8082ED
:1005B000838587888A8C8E8F91939596989A9C9E36
:1005C000A0A2A3A5A7A9ABADAFB1B3B5B7BABCBE46
:1005D000C0C2C4C6C9CBCDCFD1D4D6D8DBDDDFE213
:1005E000E4E7E9EBEEF0F3F5F8FAFDFFFFAA7F553B
:1005F000402223252628292A2C2D2F303233353628
:10060000383A3B3D3E4042434547494A4C4E5051A3
:10061000535557595A5C5E6062646668696B6D6FCA
:1006200071737577797B7D7F81838587898A8C8ECD
:1006300090929496989A9C9E9FA1A3A5A7A8AAACD5
:10064000AEAFB1B3B4B6B8B9BBBCBEBFC1C2C3C50F
:10065000C6C7C9CACBCCCDCED0D1D2D2D3D4D5D6B1
:10066000D7D7D8D9D9DADADBDBDBDCDCDCDCDCDDE4
:10067000DDDDDDDCDCDCDCDCDBDBDBDADAD9D9D8C8
:10068000D7D7D6D5D4D3D2D2D1D0CECDCCCBCAC960
:10069000C7C6C5C3C2C1BFBEBCBBB9B8B6B4B3B18F
:1006A000AFAEACAAA8A7A5A3A19F9E9C9A9896942A
:1006B00092908E8C8A89878583817F7D7B797775FF
:1006C00073716F6D6B6968666462605E5C5A5957DE
:1006D000555351504E4C4A4947454342403E3D3B9D
:1006E0003A3836353332302F2D2C2A292826252327
:1006F000220011241FBECFEFDAE0DEBFCDBF11E034
:10070000A0E0B1E0E4EEF1E502C005900D92AE3953
:10071000B107D9F723E0AEE9B1E001C01D92A034E2
:10072000B207E1F70E94CA080C94F0280C9400006C
:10073000A5E2B0E0EEE9F3E00C942A26FC0180810A
:10074000918123813481232B31F09F3F31F491E05B
:100750008F3F19F403C091E001C090E090FD16C5F1
:100760007F0185E0DE01919601900D928A95E1F777
:10077000D70112962C9189A19AA1222349F00E94B7
:10078000D322182F682F89A19AA10E94512303C058
:100790000E941C23182F69A17AA1812F0E94E413C3
:1007A0008C0190912002F7018281992309F44DC0B8
:1007B0008111DCC4E091A001E330A0F481E08E0F50
:1007C0008093A001F0E0EE0FFF1FE052FE4FD70133
:1007D0008D919C919183808382E08983CE010196E3
:1007E0000E947313BFEFE3EDF0E3B150E040F0403F
:1007F000E1F700C000008091A001833009F0B6C489
:100800001092A001E6EEF1E0A0EEB1E08CEE91E0F6
:10081000318111962C91119732132EC030812C9179
:1008200032132AC0329612968E179F0789F784E0FA
:10083000898381E0809321028EEF8A8310922002C7
:10084000CE0101960E94731391C4909121029923C5
:10085000C1F0882311F086E001C087E08983D701C9
:100860008C918A8311968C918B838EEF8C83CE0131
:1008700001960E94731305C083E0898310922102C0
:10088000DBCFD70112968C910F3ABDE51B0709F01B
:1008900040C0882309F445C09091A10181E0890FEF
:1008A0008770987F853020F4892B8093A10102C046
:1008B0009093A1018091A1018770BFEF8B9FC00130
:1008C00011249595879595958795992790938900FB
:1008D0008093880090938B0080938A0090938D0082
:1008E00080938C004091A1015091A2016091A301DD
:1008F0007091A4018FE090E00E94FD266091AD010F
:100900007091AE018091AF019091B0010E946D1D78
:1009100008C0013BEDE51E0721F4882309F426C435
:100920001BC0F70182818111EAC08091F2018272BD
:100930000D3CFCE51F0709F4C7C0C8F0023D2CE5DB
:10094000120709F4CEC008F064C00F3C8CE518070C
:1009500009F4C1C008F050C061E081E005C08160C9
:100960008093ED0161E086950E94FB1AFFC3073C6E
:100970003CE5130709F494C0D8F4043CACE51A072D
:1009800009F484C030F4033CECE51E0709F45FC0B1
:1009900024C1053CFCE51F0709F47DC0063C2CE59D
:1009A000120709F01AC147EE5AE161EF7AE190C0EF
:1009B0000A3C3CE5130709F47DC078F4083CACE53B
:1009C0001A0709F472C0093CBCE51B0709F005C110
:1009D0004AED5AE16DEC7AE17BC00B3CECE51E0779
:1009E00009F46DC00C3CFCE51F0709F0F6C041E6B8
:1009F00059E163E779E16CC0003DACE51A0709F401
:100A00006DC0013DBCE51B0709F0E7C06EE089E061
:100A100070C0053DECE51E0709F469C068F4033DAC
:100A20002CE5120709F460C0043D3CE5130709F00A
:100A3000D4C061E088E198CF063D8CE5180709F441
:100A40005BC00F359DE5190709F490C3C6C08091BE
:100A5000ED0180FF84CF8E7F8093ED016091ED01E9
:100A60007091EE018091EF019091F0010E944E197A
:100A70001092B602AFEFB0E7E2E0A150B040E04024
:100A8000E1F700C000000E94A91870C346E35BE1D3
:100A900060E47BE11DC040E45BE166E37BE118C0FC
:100AA00041EF5AE167EE7AE113C04DEC5AE16AED8D
:100AB0007AE10EC043EB5AE160EC7AE109C040EC08
:100AC0005AE163EB7AE104C043E759E161E679E179
:100AD0000E949A224BC365E082E00BC068E086E08A
:100AE00008C064E18FE005C067E185E102C062E211
:100AF00089E10E9486223AC361E083E235CF0C355A
:100B0000FDE51F0709F464C060F401153CE5130717
:100B1000A9F00F3D8CE5180709F05FC00E949715FA
:100B20004CC00E359DE5190709F44AC008F452C0BF
:100B3000093ABDE51B0709F440C04FC01092F2010D
:100B40000E943D24EFEFF4E30CE0E150F040004060
:100B5000E1F700C00000F89481E08093E00080E2BB
:100B60008093D8001092C9008FE19EE40197F1F7BD
:100B700000C000001DBA109268001CBC10BE1FBA55
:100B800010927A0010926E0010926F001092710015
:100B9000109272001092C9001092BC0014B817B8DD
:100BA0001AB81DB810BA1092BC0015B818B81BB806
:100BB0001EB811BA0C94003FD9C20E94551DD6C26E
:100BC0008091010382FB882780F991E0892703C087
:100BD00081E001C080E00E949316D70112968C91AB
:100BE00012970D911C91882349F0C8010E94D322CD
:100BF000D82E682FC8010E94512304C0C8010E944A
:100C00001C23D82EB8018D2D0E94E4130E94FD13E1
:100C10008C01982EF701D280A580A2949FE0A92292
:100C200080917B028770B9F0DD20A9F0812F807F51
:100C3000803421F080E2800F883068F080910103D9
:100C400082FF09C082E00E94761680917B02877045
:100C5000CC24C3948111C12CB12EB2948FE0B82260
:100C60008B2D90E08C30910508F052C2FC01EA5ABD
:100C7000FF4F0C949427812F807F1F70882311F0E1
:100C80001295107FDD20B9F0112309F42EC280E205
:100C9000800F883010F0911006C08091F201182B5F
:100CA0001093F20105C080919C02182B10939C02B6
:100CB0000E9421161AC2802F0E946224112309F477
:100CC00027C2005E083078F1992069F11095809173
:100CD0009C02182310939C0229C0812F807F1F70D3
:100CE000803211F01295107F992021F0F1E09F16CB
:100CF000D9F147C08091010382FD1BC0DD2069F05E
:100D0000112339F08091F201182B1093F2010E9407
:100D1000211680E00E949724FBC180E00E9462249B
:100D2000112309F4F5C1812F0E941A160E94211681
:100D3000EFC1DD2081F080919D02AA2051F001E0F9
:100D4000A01207C0182B181709F4E2C110939D02D6
:100D5000DFC1812B10C0AA2021F021E0A21609F4E6
:100D6000D7C10E9414161FC0DD2041F031E03A15B2
:100D700008F4CEC1812F0E945824CAC1A110C8C155
:100D800012C0DD2019F0AA20A9F3AFC1AA2059F0A2
:100D9000093309F0BAC18FEF97EEA3E0815090407C
:100DA000A040E1F7B0C1812F0E945124B1C1812F31
:100DB00086958695837019F0813059F0A9C1DD20A0
:100DC00019F0C801937002C080E090E00E944422B4
:100DD000A5C1DD2019F0C801937002C080E090E049
:100DE0000E942E229BC1802FDD2019F00E94E41B5F
:100DF00002C00E944B1B0E943F1C90C1812F837038
:100E000009F069C0D11088C1902F9295969597707E
:100E1000990F990F802F8F70882E912CA12CB12CB7
:100E2000092E04C0880C991CAA1CBB1C0A94D2F77A
:100E300004FF12C04FE050E060E070E004C0440FD7
:100E4000551F661F771F9A95D2F7DB01CA0180955F
:100E50009095A095B09503C080E090E0DC011695D8
:100E60001695412F4370423019F1C8F400919E024B
:100E700010919F022091A0023091A102413059F0BF
:100E800088299929AA29BB29BC01CD016023712396
:100E9000822393230AC0802A912AA22AB32ABC0162
:100EA000CD01682979298A299B290E94122434C1FD
:100EB00088299929AA29BB2900919E0210919F0295
:100EC0002091A0023091A102BC01CD0160277127C1
:100ED00082279327EACFDD2019F0812F817001C08E
:100EE0008695882309F418C1902F9295969597704E
:100EF000990F990F802F8F70882E912CA12CB12CD7
:100F0000092E04C0880C991CAA1CBB1C0A94D2F799
:100F100004FF12C04FE050E060E070E004C0440FF6
:100F2000551F661F771F9A95D2F7DB01CA0180957E
:100F30009095A095B09503C080E090E0DC011695F7
:100F40001695412F43704230D9F068F50091AD01FC
:100F50001091AE012091AF013091B001413059F0B4
:100F600088299929AA29BB29BC01CD0160237123B5
:100F7000822393231EC0802A912AA22AB32A13C057
:100F800088299929AA29BB290091AD011091AE01A8
:100F90002091AF013091B001BC01CD0160277127D4
:100FA0008227932706C0BC01CD01682979298A29A7
:100FB0009B290E948723B0C01F70DD2039F0812F4C
:100FC0000E94F023802F0E945824A6C0802F0E94E8
:100FD0005124812F0E94CA239FC0802FB2EF9B16FD
:100FE00009F441C0B91538F0E0EF9E1659F0F1EF61
:100FF0009F16A1F175C023EF9216E1F134EF93161D
:1010000049F16EC0DD2009F1A11082C01F7181E09D
:1010100090E0A0E0B0E0AC01BD0104C0440F551F5A
:10102000661F771F1A95D2F78091AD019091AE019E
:10103000A091AF01B091B0018A019B010827192747
:101040002A273B27C901B80129C021E02A1508F445
:101050005FC0DCCF8091010382FD23C0DD2029F039
:10106000812F8F7130C0DD20D9F3812F8F710E94C5
:10107000CA234EC0DD2079F01F7181E090E0A0E02E
:10108000B0E0BC01CD0104C0660F771F881F991F17
:101090001A95D2F703C060E070E0CB010E9487236D
:1010A00037C0DD2099F01F71812F0E94F0238091BD
:1010B000010382FF07C038E0139FC0011124836041
:1010C00080937B02812F0E94F02322C081E00E9446
:1010D000761681E08A15E0F482E00E94761618C048
:1010E000DD2029F0AA2009F4BBCF802F13CEAA203F
:1010F00009F4BBCF893349F49FEFA7EEB3E09150D9
:10110000A040B040E1F700C00000802F0E946224A0
:1011100088EF8B0D843010F40E945A22CC20A9F065
:1011200080917B0280FD11C0F70112828595859523
:1011300085950E94F023C7010E94980380917B024D
:101140008595859585950E94CA2385E0F701DE0186
:10115000119601900D928A95E1F709811A81C801D3
:101160000E941C23B8010E94E41310C080917B02EE
:10117000877061F0D70112968C91882339F08091A5
:10118000010382FF03C082E00E947616A596ECE080
:101190000C944626ACE5B0E0E0EDF8E00C942B268C
:1011A00085B7806885BF85B7806885BF84B7877F2E
:1011B00084BF0FB6F894A8958091600088618093F1
:1011C0006000109260000FBE90E080E80FB6F894C7
:1011D00080936100909361000FBE8FE993E190933B
:1011E0009F0180939E010E94BD110E94DC1180919D
:1011F000E20084608093E200789480912202882348
:10120000A1F01091E9001F709091EC00892F81707E
:1012100090FD80E8182B1092E9008091E80083FD92
:101220000E94A70E1F701093E90082E084BD93E036
:1012300095BD9AEF97BD80936E000E949F1D90E030
:1012400090931701809316010E94DA1E8098889A65
:101250008198899A84988C9A85988D9A86988E9A86
:1012600087988F9AA2ECB1E0E4EBF1E011921D9225
:1012700021E0E23CF207D1F78EE090E00E94B52732
:101280008093A7019093A801FC010E9611928E17EE
:101290009F07E1F789EA8093800089E080938100CD
:1012A00024982C983F988AB18F7C8AB96E98479A77
:1012B0008BB180638BB9769A8FE090E00E94CF2645
:1012C0006093A1017093A2018093A3019093A40164
:1012D00067703FEF639FB001112475956795759511
:1012E00067957727709389006093880070938B00CF
:1012F00060938A0070938D0060938C000E94161E8C
:1013000080E090E00E94D526883E9E4F11F00E941A
:10131000971582E090E00E94C7268093D00184E078
:1013200090E00E94C726182F82E290E00E94C72614
:10133000212F30E0382B309301032093000383E00A
:1013400090E00E94C726682F70E080E090E00E9445
:1013500012246091AD017091AE018091AF01909126
:10136000B0010E946D1D8091A501811136C080E001
:1013700090E00E94D526883E9E4F21F00E9497154E
:101380000E94851988E090E00E94CF266093ED01CD
:101390007093EE018093EF019093F0016E7F71F4F2
:1013A0000E94851988E090E00E94CF266093ED01AD
:1013B0007093EE018093EF019093F0010E943B192E
:1013C0001092B6028091ED0180FF04C060E0869526
:1013D0000E94FB1A81E08093A5016091AD0170919C
:1013E000AE018091AF019091B0010E946D1D8AE025
:1013F00091E09093F9028093F802EE24E394FF24A5
:10140000F3940EE1D02E8091160190911701892B53
:1014100091F08091A6018F5F8093A60181110BC08E
:101420000E949F1D90E09093170180931601892BD5
:1014300011F40E94161E14EBA12E11E0B12E00E053
:1014400010E0B7E09B2E910E812F0E94861E892D01
:101450000E94861E812F0E94E91E8F73D5019C91E8
:10146000891721F08C93CC24C39401C0C12C892D01
:101470000E94E91E8F73F5019781891719F0878300
:1014800081E001C080E0C82A0C290E94DA1E1F5F9B
:10149000FFEFAF1ABF0A1730A1F61091AC0111236C
:1014A000C9F10E94D5212091AA013091AB01AC0174
:1014B000421B530B9A019093AB018093AA014F3FBB
:1014C000510509F020F4452B09F478C302C02FEF31
:1014D00030E01092AC011092A901E091A701F091C7
:1014E000A801AF01425F5F4F90E030E08081882328
:1014F00041F0281718F01082912F03C0821B8083BF
:10150000312F3196E417F50789F73093AC019093AA
:10151000A90154C3002309F448C30E94D521909324
:10152000AB018093AA01E091A701F091A8018091FD
:10153000AC01AF01425F5F4F24EB31E0A2ECAA2E79
:10154000A1E0BA2ED9019D919D01D5016C91691739
:1015500031F06081611103C0D0829C9381E03196AB
:10156000BFEFAB1ABB0A4E175F0761F78093AC0160
:10157000209120028091B2019091B3012223F1F1D8
:10158000892B31F425982D9826982E9827982F98F6
:101590008091B2019091B3019170892B71F4809187
:1015A000B101882319F026982E9802C0269A2E9A07
:1015B0008091B1018E258093B1018091B20190910B
:1015C000B3018130984780F0109220026091AD0104
:1015D0007091AE018091AF019091B0010E946D1D9C
:1015E0001092B3011092B2018091B2019091B301B7
:1015F00001969093B3018093B20110C0892B71F0D2
:101600001092B3011092B2016091AD017091AE01E0
:101610008091AF019091B0010E946D1D002359F09F
:101620008FB7F8944091FC025091FD026091FE0248
:101630007091FF028FBFE1EDF1E0A2ECB1E000E0BC
:1016400010E0302F2D9191919227A1F180E0BB24E1
:10165000B394492F4B2151F164968FAF64976596EF
:101660003FAF65972B2181E009F480E066968FAF4C
:1016700066970E94D5218160782F68969FAF8EAFC4
:10168000689764964FAD649765965FAD659766966B
:101690006FAD669768968FAD68970E94661CF801DB
:1016A000EF52FE4F8081B826B0822AC08F5FBB0CFC
:1016B000863079F60F5F1F4F0E30110509F0C1CF4C
:1016C0008FEF69968FAF69976A968FAF6A976B961F
:1016D0001FAE6B970E94D5218160782F6D969FAFCA
:1016E0008EAF6D9769964FAD69976A965FAD6A97B1
:1016F0006B966FAD6B976D968FAD6D970E94661C64
:101700008091B602882309F493C08091B502E091DC
:10171000ED01E695E81BE093B102823059F4F0E068
:10172000EE5FFE4FE4910E2F10E0E1E6AE2EE1E217
:10173000BE2E59C0863059F4F0E0E150FF4FE491DD
:101740000E2F10E071E5A72E71E2B72E4CC0893044
:1017500061F4E695F0E0E450FF4FE4910E2F10E0C5
:101760006DEEA62E60E2B62E3EC08F3061F4E69597
:10177000F0E0E750FF4FE4910E2F10E057E8A52E60
:1017800050E2B52E30C0853159F4F0E0EA50FF4FF9
:10179000E4910E2F10E047E3A42E40E2B42E23C0C4
:1017A0008831A1F0833249F4E4EFF0E0059114911F
:1017B00037E1A32E31E2B32E16C0843271F404EF68
:1017C00011E024E8A22E2FE1B22E0DC008E210E0B5
:1017D0009CEBA92E9FE1B92E06C000ED17E083E235
:1017E000A82E8FE1B82E8091B202882361F010926A
:1017F000B2020E94D5219093B0028093AF02109262
:10180000B4021092B3020E94D521E091AF02F09190
:10181000B0028E1B9F0B8F3F9F4750F40E0F1F1F70
:101820001093B0020093AF028FEA92E0F5010995A0
:1018300085E0E9EAF2E0DE01119601900D928A95C9
:10184000E1F71092AA021092AB021092AC02109231
:10185000AD021A81111104C08B81882309F450C094
:101860008091A7029091A8020E94C6219C019091AC
:10187000A302992309F4A6C12031310508F440C020
:101880009F3F19F09F5F9093A302112361F00E9484
:10189000C41B111614F09FEF01C091E0899F802DA9
:1018A00011248093AA021B81112361F00E94C41BA2
:1018B000111614F09FEF01C091E0899F802D112433
:1018C0008093AB023091AA023323D1F02091AB0276
:1018D0002223B1F045EB3403C0011124992319F000
:1018E0009093AA0202C0F092AA0255EB2503C00110
:1018F0001124992319F09093AB0202C0F092AB022D
:101900001C81111104C08D81882309F450C080917D
:10191000A5029091A6020E94C6219C019091A2026C
:10192000992309F453C12333310508F440C09F3F84
:1019300019F09F5F9093A202112361F00E94C21BD5
:10194000111614F09FEF01C091E0899F802D1124A2
:101950008093AC021D81112361F00E94C21B1116FD
:1019600014F09FEF01C091E0899F802D1124809396
:10197000AD023091AC023323D1F02091AD0222238D
:10198000B1F045EB3403C0011124992319F0909371
:10199000AC0202C0F092AC0255EB2503C001112449
:1019A000992319F09093AD0202C0F092AD0245E088
:1019B00050E0BE016F5F7F4F89EA92E00E94E3280A
:1019C000892BA9F48091AA0281110FC08091AB02EA
:1019D00081110BC08091AC02811107C081E0909110
:1019E000AD02911103C080E001C081E080FD0E9442
:1019F0003F1C85E0FE013196A9EAB2E001900D920C
:101A00008A95E1F70E945A229091DF018913809311
:101A1000DF0180912202843009F0F5CC8093E90047
:101A20008091E80082FFEFCC8091E80085FF22C022
:101A30000E94161381111CC000E210E05E0181E2D9
:101A4000A80EB11C08C08091F100D5018D935D01F5
:101A50000150110969F08091E80085FDF4CF809173
:101A6000E8008B778093E8000E941613882399F38F
:101A700091E001C090E08091E8008B778093E800CE
:101A8000992309F4C0CC89A18130E1F150F1823071
:101A900021F0843009F47BC0B6CC8BA19AA190933D
:101AA000E0018093E1018DA19CA19093E2018093DC
:101AB000E3018FA19EA19093E4018093E50142E1AF
:101AC00050E063E270E0CE018F5B9F4F0E94B7262B
:101AD00084E08983F09221028EEF8A8310922002A3
:101AE0000CC019828CE0E7E2F1E0DE011296019071
:101AF0000D928A95E1F78EEF8D87CE0101960E94B7
:101B0000731381CC06EE11E00E946722F8018193E5
:101B100091938F01F1E00C3E1F07B1F7F98280919C
:101B2000E6018A838091E7018B838091E8018C83B1
:101B30008091E9018D838091EA018E838091EB0190
:101B40008F838EEF8887F0922002CE0101960E944B
:101B5000731342E150E063E270E0CE0101960E940F
:101B6000B726FE01319682E183301CF09189928B79
:101B700001C0128A815031978F3FB1F742E150E0A6
:101B800063E270E0CE0101960E94DB263CCC80919E
:101B90002102882309F437CC60E070E0CB010E9479
:101BA00087238AA10E94F0232ECC80E09091A90186
:101BB000992309F4DDCC8111B6CCAFCC0111B3CCA3
:101BC00081E0F4CF232B09F05DCE9ACE232B09F0D0
:101BD000B0CEEDCE8091180287FF11C08091E80051
:101BE00082FD05C0809122028111F8CF11C0809141
:101BF000E8008B770BC080912202882349F0809106
:101C0000E80080FFF8CF8091E8008E778093E800AD
:101C10000895982F973068F59093E900981739F058
:101C20007091EC002091ED005091F00003C0242F42
:101C3000762F50E021FD02C09F5FECCF3091EB008A
:101C40003E7F3093EB003091ED003D7F3093ED000F
:101C50003091EB0031603093EB007093EC002093F7
:101C6000ED005093F0002091EE0027FDE5CF80E0DD
:101C700008958F708093E90081E0089520911E02FD
:101C800030911F022617370748F06115710539F4A6
:101C90002091E8002E772093E80001C0B901FC01F3
:101CA00020E06115710579F1809122028823F1F11C
:101CB0008530F1F18091E80083FD3CC08091E8001F
:101CC00082FD2EC08091E80080FFEBCF2091F300D1
:101CD0008091F20090E0922B6115710551F08830EF
:101CE000910538F421912093F1006150710901961A
:101CF000F3CF21E0089709F020E08091E8008E778B
:101D00008093E800CECF2111CFCF0AC0809122026C
:101D1000882361F0853061F08091E80083FD0AC07E
:101D20008091E80082FFF2CF80E0089582E008957C
:101D300083E0089581E008950895BC0184E00E9445
:101D400075210895BC0183E00E9475210895AAE2DF
:101D5000B0E0EDEAFEE00C943326E8E1F2E080E248
:101D600092E02091F10021938E179F07D1F7809187
:101D70001902833009F463C030F4813071F082308D
:101D800009F49FC0B6C08A3009F48BC08B3009F4C7
:101D90006EC0893009F0ADC020C080911802813A30
:101DA00009F0A7C08091E800877F8093E8008091C8
:101DB0001C0290911D02892B21F460E285EF91E0D5
:101DC00003C060E080E090E070E00E943E0E8091F1
:101DD000E8008B778093E8008CC0809118028132F4
:101DE00009F087C080911C0290911D02009719F0A4
:101DF000039709F07EC08091E800877F8093E80018
:101E00008091E80082FD05C0809122028111F8CF07
:101E100070C02091F3008091F20090E0922B029725
:101E200031F48091F100813011F0863021F48091FD
:101E3000F1008093F4018091E8008B7756C0809187
:101E40001802813A09F055C080911C0290911D0240
:101E5000892B09F04EC08091E800877F8093E800CD
:101E60008091E80080FFFCCF8091180139C08091FB
:101E700018028132F1F580911C0290911D02892B8C
:101E8000C1F58091E800877F8093E8000E94EA0D09
:101E900080911A02809318011092F2010E943D2451
:101EA00028C080911802813221F58091E800877F57
:101EB0008093E8000E94EA0D80911B028093F30159
:101EC00018C080911802813AA1F48091E800877FC0
:101ED0008093E8008091E80080FFFCCF8091F301BF
:101EE0008093F1008091E8008E778093E8000E9453
:101EF000EA0D8091E80083FFE4C18091180290917F
:101F00001902492F50E04A30510508F0DAC1FA01B0
:101F1000EE59FF4F0C949427803821F0823809F055
:101F2000D0C108C08091150290911602992389F0C2
:101F300082600FC080911C028F70873008F0C1C191
:101F40008093E9008091EB0085FB882780F910924F
:101F5000E9009091E800977F9093E8008093F1006A
:101F60001092F10070C1282F2D7F09F0AAC188239B
:101F700019F0823061F0A5C180911A02813009F018
:101F8000A0C1933009F080E0809316022EC08091AA
:101F90001A0281112AC080911C028F702FEF280F26
:101FA000263008F08EC18093E9002091EB0020FFDD
:101FB0001CC0933021F48091EB00806214C090919A
:101FC000EB0090619093EB0021E030E0A90102C0AA
:101FD000440F551F8A95E2F74093EA001092EA00F9
:101FE0008091EB0088608093EB001092E900809173
:101FF000E800877F8093E8000E94EA0D62C18111AA
:1020000060C110911A021F778091E3008078812BC4
:102010008093E3008091E800877F8093E8000E942E
:10202000EA0D8091E80080FFFCCF8091E30080689A
:102030008093E300111102C082E001C083E080932D
:1020400022023FC18058823008F03BC120911A0221
:1020500030911B022C3D53E0350779F583E08A83EC
:102060008AE289834FB7F894DE01139620E03EE0C0
:1020700051E2E32FF0E050935700E49120FF03C0BA
:10208000E295EF703F5FEF708E2F90E0EA3010F036
:10209000C79601C0C0968D939D932F5F243149F759
:1020A0004FBF8091E800877F8093E8006AE270E08C
:1020B000CE0101960E943E0EB4C080911C02909108
:1020C0001D02432F552743305105A9F068F44130D4
:1020D000510509F405C14230510509F0F2C084E709
:1020E00090E0ECE1F2E04BC04132510529F142327F
:1020F000510589F1E6C0C901992781309105A1F008
:1021000058F0029709F0DDC0E2EAF2E0E4918E2F88
:1021100090E0E2EAF2E030C0E0EFF2E0E4918E2FEE
:1021200090E0E0EFF2E028C0E6ECF2E0E4918E2FE0
:1021300090E0E6ECF2E020C08430910508F0C1C0E8
:10214000880F991FFC01E15CFE4F0190F081E02DAA
:1021500089E090E014C08430910508F0B2C0FC0121
:10216000EE0FFF1FE95CFE4F0190F081E02DDC01D6
:10217000AD5CBE4F8C9190E0009709F4A2C0209115
:10218000E800277F2093E80020911E0230911F0273
:102190002817390708F4C90140E0009789F1209118
:1021A0002202222309F43DC02530D9F12091E80014
:1021B00023FD37C02091E80022FD2FC02091E800C8
:1021C00020FFEBCF4091F3002091F20030E0342B60
:1021D000009759F02830310540F444914093F100C4
:1021E000319601972F5F3F4FF3CF41E02830310503
:1021F00009F040E02091E8002E772093E800CDCF51
:102200004111CDCF0AC080912202882351F0853040
:1022100041F08091E80083FD04C08091E80082FFD6
:10222000F2CF8091E8008B778093E8004AC0803835
:1022300009F047C08091E800877F8093E800809193
:1022400017028093F1008091E8008E77D3CE811140
:1022500038C080911A0290911B02992702978CF541
:102260008091E800877F8093E80010911A02109314
:1022700017020E94EA0D111106C08091E30087FD4C
:1022800002C081E001C084E08093220242E061EC60
:1022900081E00E94090E42E061EC82E00E94090E9A
:1022A00042E261EC85E00E94090E42E261EC83E0CB
:1022B0000E94090E42E260EC84E00E94090E8091C7
:1022C00022028091E80083FF10C08091E800877FA0
:1022D0008093E8008091EB0080628093EB0005C062
:1022E00082E190E0E0E9F2E04ACFAA96E3E00C94C4
:1022F0004F261F920F920FB60F9211242F933F93E8
:102300004F935F936F937F938F939F93AF93BF93FD
:10231000CF93DF93EF93FF93C091E900CF7080914B
:10232000EC00D82FD17080FDD0E81092E9008091A8
:10233000F000877F8093F00078940E94A70E10929F
:10234000E9008091F00088608093F000CD2BCF7081
:10235000C093E900FF91EF91DF91CF91BF91AF91D1
:102360009F918F917F916F915F914F913F912F91AD
:102370000F900FBE0F901F901895E8EDF0E0808150
:102380008E7F80831092E2001092DA001092E100BA
:10239000A0EEB0E08C9181608C9380818F778083F8
:1023A00019BCA7EDB0E08C918E7F8C9380818F7EDD
:1023B00080831092EC010895A0E0B0E0E2EEF1E13C
:1023C0000C942E26C8EDD0E088818F7E8883E7EDBF
:1023D000F0E080818160808384E082BF81E080932F
:1023E000EC0188818E7F888302EE10E0F801108274
:1023F0001092DA0081EEC82ED12CF601108288816D
:102400008F77888388818068888388818F7D88839F
:1024100019BC10922202109217021092160210920A
:10242000150290EEE92EF12CF70180818B7F8083DD
:1024300088818160888342E060E080E00E94090E2C
:10244000F60180818E7F8083F801808181608083A6
:10245000808188608083F70180818E7F808388817E
:1024600080618883CDB7DEB7E8E00C944A261F92DE
:102470000F920FB60F9211242F933F934F935F93B8
:102480006F937F938F939F93AF93BF93EF93FF933C
:102490008091E10082FF09C08091E20082FF05C0C7
:1024A0008091E1008B7F8093E1008091DA0080FFD2
:1024B0002AC08091D80080FF26C08091DA008E7FEC
:1024C0008093DA008091D90080FF18C080E189BD37
:1024D00082E189BD09B400FEFDCF81E08093220234
:1024E0008091EC0181110FC00E94BD110E94DC118E
:1024F0008091E20084608093E20005C019BC1092D4
:1025000022021092EC018091E10080FF17C08091BF
:10251000E20080FF13C08091E2008E7F8093E20092
:102520008091E20080618093E2008091D800806217
:102530008093D80019BC85E0809322028091E1004D
:1025400084FF38C08091E20084FF34C080E189BDFF
:1025500082E189BD09B400FEFDCF8091D8008F7D56
:102560008093D8008091E1008F7E8093E10080917C
:10257000E2008F7E8093E2008091E2008160809390
:10258000E20080911702882311F084E007C0809157
:10259000E30087FD02C081E001C083E08093220256
:1025A0001092F2010E943D240E945A220E94A12210
:1025B000809122028091E10083FF27C08091E20098
:1025C00083FF23C08091E100877F8093E10082E058
:1025D00080932202109217028091E1008E7F8093F7
:1025E000E1008091E2008E7F8093E2008091E20022
:1025F00080618093E20042E060E080E00E94090E8A
:102600008091F00088608093F000FF91EF91BF917E
:10261000AF919F918F917F916F915F914F913F917A
:102620002F910F900FBE0F901F9018952091E400EE
:102630003091E50095E64091EC00842F817040FFD9
:1026400023C08091E80080FD1DC080912202882374
:1026500099F0853099F08091EB0085FD11C0409193
:10266000E4005091E5002417350729F3915011F04B
:102670009A01E1CF84E0089582E0089583E008950F
:1026800081E0089580E008954091E80042FFDDCFA9
:102690000895EF92FF920F931F93CF93DF937C01E6
:1026A0008B010E941613811119C0E7010115110554
:1026B000A1F08091E80085FD0AC08091E8008E7746
:1026C0008093E8000E941613882381F307C0899144
:1026D0008093F10001501109E9CF80E0CDB7DEB75A
:1026E000E6E00C944C26CF9320912202243029F569
:1026F000C091E900CF703091EC00232F217030FDA4
:1027000020E8C22B23E02093E9002091E80020FF7D
:1027100011C040E050E060E270E00E94491388235D
:1027200021F010922002109221028091E8008E7711
:102730008093E800CF70C093E900CF91089580E0C6
:1027400008959091000392FF0DC0282F2871283022
:1027500019F4877F846006C0282F2471243011F477
:102760008B7F886093FF0DC0282F2871283119F4C2
:10277000877E846106C0282F2471243111F48B7E5A
:1027800088612091010320FF0DC0382F3871383047
:1027900019F4877F816006C0382F3171313011F410
:1027A0008E7F886021FF0DC0282F2871283119F4F1
:1027B000877E816106C0282F2171213111F48E7E20
:1027C000886194FD877E08957E30A0F4663090F491
:1027D00094E5899FF001112486E0789FE00DF11DBA
:1027E0001124E60FF11DEE0FFF1FEC50FD4F8591F8
:1027F0009491089580E090E00895CF93DF9382381C
:10280000910569F1B0F48133910509F46FC048F482
:102810008932910509F465C08A32910509F46BC0CB
:102820008AC08533910509F457C089339105B9F001
:1028300082C0833E910571F138F4803E9105B1F07C
:10284000823E910511F177C0863E9105B9F1873E30
:102850009105C9F1843E910509F06DC024C0209115
:10286000000320FD53C021FD51C065C080910003CD
:1028700080FD46C08091010380FF48C08091000325
:1028800084FD50C183EE90E04FC18091000382FF30
:102890003AC0F4CF8091000382FD35C080910103DE
:1028A00080FD34C0EBCF8091010381FF35C0809162
:1028B000000384FD37C187EE90E036C180910003AC
:1028C00083FF27C0F4CF8091000383FD22C0809155
:1028D000010381FD21C0EBCF8091000385FD1FC066
:1028E00021C08091000385FD1DC019C080910003A7
:1028F00086FD1BC01DC08091000386FD19C015C058
:1029000089E390E011C182EE90E00EC180EE90E08C
:102910000BC186EE90E008C184EE90E005C189E22B
:1029200090E002C185E390E0FFC08AE290E0FCC045
:1029300081E390E0F9C0811531E5930708F069C0A3
:10294000811540E59407F0F09C0174E036952795D9
:102950007A95E1F7922F9370482F437021E030E091
:1029600002C0220F331F4A95E2F73C68392B982F9B
:102970009F709695969540E2949FC0011124822BFA
:10298000932BD2C0883E910568F5803E910508F0F2
:10299000CBC0883A9105B8F4853A910548F0855A3C
:1029A000E82FF0E0E95BFE4F808190E09064BCC0CE
:1029B0008130910509F4B3C008F4B4C084309105A6
:1029C00008F4B0C0B1C08F3B910508F0ABC0885A85
:1029D000E82FF0E0EE0FFF1FE65BFE4F8081918154
:1029E0009464A2C0811520E2920758F4811531E069
:1029F000930708F099C08D3E910508F493C0906547
:102A000093C0811540E4940708F48CC09F70906ACD
:102A10008BC0811525E5920708F042C0811534E589
:102A2000930728F0982F8827846F906A7DC08115BE
:102A300043E59407B0F09C012370332741E050E058
:102A400002C0440F551F2A95E2F7282F2695269598
:102A500080E2289F90011124CA01822B932B9A684F
:102A600063C0811522E5920728F4982F8827816F8B
:102A7000906A5AC09C012370332741E050E002C0A5
:102A8000440F551F2A95E2F7282F2695269580E2B8
:102A9000289F90011124CA01822B932B9C6844C06B
:102AA000EC01811539E59307A8F48115984528F0C4
:102AB0009C2F8827806F906A37C0C11586E5D8079C
:102AC00088F58C2F0E94A1138F7190E0982F882792
:102AD00090622AC081152AE5920790F48C2F8F709E
:102AE0000E94A11394E0D695C7959A95E1F7CF700F
:102AF000D0E0DC2FCC27D0699E01282BC90114C05F
:102B000090568115904270F48D2F8F710E94A11301
:102B1000282F2F71CE0199279062922B05C081E05A
:102B200090E002C080E090E0DF91CF91089568EEE0
:102B30007EEF80E090E00E94092760E082E090E074
:102B40000E94EB2660E083E090E00E94EB2610926A
:102B50009E0210929F021092A0021092A10260E0C9
:102B600084E090E00E94EB2664E082E290E00E9424
:102B7000EB2660E085E090E00E94EB2660E086E0D6
:102B800090E00E94EB266FEF87E090E00E94EB263A
:102B900040E050E0BA0188E090E00E94FD2660E04D
:102BA0008DE090E00E94EB2640E050E0BA0188E121
:102BB00090E00E94FD2660E087E190E00E94EB2615
:102BC00040E050E0BA018CE190E00E94FD2660E018
:102BD00070E080E290E00E94092740E050E0BA01F6
:102BE00088E190E00E94FD261092A1011092A201BE
:102BF0001092A3011092A40184E080618093A1014E
:102C00004091A1015091A2016091A3017091A40192
:102C10008FE090E00E94FD2640E050E0BA0183E1A1
:102C200090E00E94FD26089580919D0281111092EE
:102C30009D02089580959091F20189238093F2017D
:102C400008959091F20180919C02982B9093230219
:102C500080919D028823D9F0892B80932302809153
:102C60001801882331F08091000387FF02C08EE1B4
:102C700001C086E0E5E2F2E090E0815028F0219189
:102C80002223D9F39F5FF9CF91110E94141640E2DD
:102C900050E06CE772E083E292E00E94E328892B27
:102CA00021F180E2E3E2F2E0ACE7B2E001900D92C4
:102CB0008A95E1F7E091F802F091F9023097A9F0D6
:102CC00080911801882359F08091000387FF07C085
:102CD000809123028093240286E080932302028065
:102CE000F381E02D83E292E00995089520917B0223
:102CF0008095822380937B02982F977099F430E01F
:102D0000482F082E000C550B2417350759F09091C9
:102D1000010392FF07C08595859585950E94CA237A
:102D200010927B020895CF93C0910103C2FB9927B3
:102D300090F9981791F080FBC2F9C093010360915C
:102D4000000384E090E00E94EB266C2F82E290E08A
:102D50000E94EB2682E00E947616CF910895809122
:102D60007A0290914902891719F08F5F8770FBCF23
:102D700008950F931F93CF93DF938091480282951C
:102D80008F7009F05AC080914502882309F455C01C
:102D900080917A021091490260914302709144023D
:102DA000C0914602D091470291E06F3F09F090E058
:102DB000292F06E0811709F440C0209721F07F3FBA
:102DC00021F030E003C031E001C0322F90E030FD4F
:102DD00031C0089FF001099FF00D1124DF01A65BAF
:102DE000BD4F11963C911197371324C03C91361377
:102DF00021C012963C91129731111CC013964D912F
:102E00005C9114974C1B5D0B4937510598F48091E8
:102E100048028F70806180934802E15BFD4F8081A2
:102E20008F708061808383E492E00E9498030E9407
:102E3000AF1603C001968770BDCFDF91CF911F9170
:102E40000F910895A1E1B0E0E8E2F7E10C942B26A0
:102E50008C0185E0F801DE011D9601900D928A95A6
:102E6000E1F7F801E28090914302609144024091C1
:102E70004602509147024115510531F06F3F31F440
:102E800081E09F3F19F403C081E001C080E0F82F8A
:102E9000F1709F2E80FD1BC1F80130812181C3801C
:102EA000D48083E4A82E82E0B82EF0904502F6018B
:102EB000E41BF50BFF2009F4C7C080914802E937F5
:102EC000F10508F092C0482F407F09F051C062130D
:102ED00011C093130FC0FE2CE1100CC08F708061E5
:102EE00080934802C5010E94980380914802F8012E
:102EF00085832AC1C114D10431F02F3F31F481E020
:102F00003F3F19F403C081E001C080E080FD03C0B1
:102F100081E08E2502C080E090E0F82FF170FF2E56
:102F200080FF1CC080917A024091490256E08417CC
:102F300009F4E8C090E0589FF001599FF00D11246A
:102F4000E65BFD4F6181261306C06081631303C0F9
:102F50006281E61203C001968770E9CFFE2CEE2055
:102F600009F4F2C08091480281608093480249C010
:102F7000621306C0931304C0E11002C0F80186C0BA
:102F8000C8010E941D24882351F1EE2041F12091B7
:102F90004802822F82958F7090E0029774F08091A2
:102FA00043029091440298878F831986DB86CA86F4
:102FB0002C87CE0107960E94980386E0F801A3E4CF
:102FC000B2E001900D928A95E1F70E94B9160AC00D
:102FD0006217C9F0C8010E941D2481111EC0C801DA
:102FE0000E949803FF24F394AFC0482F407F81F7DD
:102FF00083E492E00E94980386E0F50111928A959D
:10300000E9F7F12CA1C09313E5CFE110E3CFF8016C
:103010008583C8010E94980354C0EE2001F32091DB
:103020004802822F82958F7090E0029734F280914F
:103030004302909144029A8389831B82DD82CC8271
:103040002E83CE010196B7CFE937F105D0F5FE2CDE
:10305000EE2029F2621327C0931325C02091480265
:1030600020FD18C0822F82958F70482F50E04115A7
:10307000510581F0F80125834F30510541F08F5FF4
:10308000982F9295907F822F8F70892B8583C8010E
:103090000E94980386E0F801A3E4B2E001900D924B
:1030A0008A95E1F751C0C8010E941D24811185CF86
:1030B00080914802816080934802C8010E94980371
:1030C00043C086E0F50111928A95E9F73DC0EE20F4
:1030D00009F485CFC8010E941D24F82E882309F425
:1030E0007ECF86E0F801A3E4B2E001900D928A95CC
:1030F000E1F780914302909144020E940F230E94C5
:10310000B91622C03D872E878D859E850E940F238C
:10311000292F22952F70223028F49F7039F08111C9
:1031200005C00BC0243028F49F7049F4805E8830BD
:1031300020F0C8010E9498039F2CF92C05C0F801CB
:103140009581907F99F7F9CF8F2D6196EBE00C94E4
:103150004726EF92FF920F931F93CF93DF938091B7
:10316000ED0180FF08C00AEB12E086EFE82E82E056
:10317000F82EF8010DC0EAEBF2E086EF92E0118242
:1031800010821282138234968E179F07C1F7EBCFFD
:10319000928120813181892F291708F4822F3817D5
:1031A00008F4832F8383381B3183281B2083981BCB
:1031B00092833496EE16FF0659F70E943C2564E68A
:1031C00070E084E80E944225CAEBD2E064E670E039
:1031D00088810E94B72564E670E089810E94B72546
:1031E00064E670E08A810E94B72564E670E08B8116
:1031F0000E94B7252496EC16FD0641F70E940C2686
:10320000579A8BB18F779BB190682FB7F894E016DF
:10321000F10699F0F80131918F0148E09BB9000067
:1032200000C037FF8BB9330F000000C000C000C0E2
:103230008BB900C04A9591F7EACF2FBF8FE594E094
:103240000197F1F700C00000CDB7DEB7E6E00C94BF
:103250004C269091ED0190FF0DC0EAEBF2E08183E6
:10326000608342831382349692E0E63FF907B9F710
:103270000E94A91808958091ED01282F269530E02D
:103280002115310519F48170826005C025323105A0
:1032900024F0817088648093ED010895CF92DF92CD
:1032A000EF92FF926B017C010E943B19B701A601CE
:1032B00088E090E00E94FD26FF90EF90DF90CF9095
:1032C00008958091F101882319F081508093F101D4
:1032D0006091ED017091EE018091EF019091F0010C
:1032E0000E944E1908958091F101833018F48F5F88
:1032F0008093F1016091ED017091EE018091EF01F9
:103300009091F0010E944E190895EDEEF1E083E0F6
:10331000808311828FEF8283838314826081718125
:10332000828193810E944E190895A0E0B0E0EBE9FC
:10333000F9E10C942C26E82EF62EE901E42FF0E0BA
:10334000611106C0E451FB4FE4914E2F2E2F71C046
:10335000062F10E0E451FB4F4491F42FC42ED12CE2
:1033600026E0829FC00111242FEF30E0B9010E94B6
:1033700010265BEA5603C001579F900D11248E0D55
:10338000911D8E0D911D582F550F580FD901A01B5F
:10339000B10BAC9DC001AD9D900DBC9D900D112455
:1033A000E92FF59ED0011124AB2FBB277901EA1A32
:1033B000FB0AEC9CD001ED9CB00DFC9CB00D1124DF
:1033C0005901A51AB108A09E7001A19EF00CB09EF3
:1033D000F00C1124EF2CFF242E193F092C9D8001A5
:1033E0002D9D100D3C9D100D1124212F6230710573
:1033F00091F048F461157105E1F061307105B9F49F
:10340000242F4B2F16C06430710569F040F06630F0
:10341000710579F00CC0242F492FE12F0AC0492FE4
:10342000EF2F2B2F06C0292FE42F412F02C0292F69
:10343000EB2F49832883EA831B82CDB7DEB7EAE00E
:103440000C944826A4E0B0E0E8E2FAE10C943426BB
:103450009091ED0190FF0AC09E012F5F3F4F0E94A7
:1034600095194B8169818A810E9429192496E2E08D
:103470000C945026A4E0B0E0E0E4FAE10C94272696
:10348000F82E762EE42E622E9091ED0190FF67C00B
:10349000E92FE695AE2FB0E0A858BE4F8C918093EF
:1034A000B5029E7F923061F49E012F5F3F4F8F2DBA
:1034B0000E9495194B8169818A810E9429193DC01A
:1034C000823019F4E090F00138C0863019F4F090A1
:1034D000EE0133C08930D9F3893179F5E9518E2F66
:1034E0008170582EE695F0E0E451FA4FE4910E2FEA
:1034F00010E08AEBC82E82E0D82EA12CB12C9FE0E0
:10350000892E912CC501B4010E9410268F2D5110D7
:1035100002C0860F01C0861B96014E2D672D0E94AA
:103520009519A00EB11E84E0C80ED11C86EFC816F6
:1035300082E0D80639F70E94A918F092EE01709245
:10354000EF01E092F001662051F06091ED01709181
:10355000EE018091EF019091F0010E944E192496A6
:10356000EFE00C944326EDEEF1E043812CE0421BAA
:1035700008F440E021E0628181810E943A1A0895B6
:10358000EDEEF1E043812CE0420F08F44FEF21E033
:10359000628181810E943A1A0895EDEEF1E0628124
:1035A0002FEF621B08F460E021E0438181810E94DB
:1035B0003A1A0895EDEEF1E062812FEF620F08F400
:1035C0006FEF21E0438181810E943A1A0895EDEE68
:1035D000F1E0818121E0438162818C500E943A1A9E
:1035E0000895EDEEF1E0818121E043816281845F05
:1035F0000E943A1A08959091ED0190FF36C09170A3
:10360000811102C0926006C0853210F0986402C039
:10361000880F982B9093ED01662351F06091ED0196
:103620007091EE018091EF019091F0010E944E198E
:103630006091ED01669570E04BE050E089E191E02A
:103640000E94D628892B19F01092B60202C00E945F
:10365000A12281E08093B20220E04091F0016091CC
:10366000EF018091EE010E943A1A08958091ED01D8
:103670008695815009F484E261E00E94FB1A089566
:103680008091ED0186958F5F853208F081E061E0E1
:103690000E94FB1A08958D3E39F49091AB0297FF7A
:1036A00035C01092AB0259C08E3E29F49091AB0206
:1036B0001916BCF32BC09091AA028F3E29F497FFF4
:1036C00025C01092AA0249C0803F19F41916CCF304
:1036D0001DC09091AC02893F29F41916BCF41092D8
:1036E000AC023BC08A3F19F497FF10C0F8CF8B3F64
:1036F00039F49091AD0297FF09C01092AD022DC030
:103700008C3F21F49091AD021916BCF39FE0980F05
:10371000983080F421E030E0A90102C0440F551F29
:103720009A95E2F7CA0180959091A9028923809326
:10373000A90213C08D3F21F48091A4028E7F0BC09B
:103740008E3F21F48091A4028D7F05C08F3F29F424
:103750008091A4028B7F8093A4028091AA028111A0
:1037600006C08091AB02811102C01092A302809129
:10377000AC02811106C08091AD02811102C010928D
:10378000A202089581E008958091A40280FD14C0F2
:1037900081FD14C082FD16C08091A302882381F0B0
:1037A0008E3180F428E4829FC00111246EE170E024
:1037B0000E948027862F089582E1089584E208956B
:1037C00088E0089588E408958D3E21F40E94C41B8A
:1037D000819504C08E3E29F40E94C41B8093AB02E5
:1037E00008958F3E21F40E94C41B819504C0803F40
:1037F00029F40E94C41B8093AA020895893F19F4FA
:103800000E94C21B05C08A3F31F40E94C21B8195F1
:103810008093AC0208958B3F21F40E94C21B8195D6
:1038200004C08C3F29F40E94C21B8093AD0208950E
:103830009FE0980F983078F421E030E0A90102C0B1
:10384000440F551F9A95E2F7CA019091A902892B5E
:103850008093A90208958D3F21F48091A402816094
:103860000BC08E3F21F48091A402826005C08F3F7F
:1038700029F48091A40284608093A40208950E9498
:10388000D5212091AA02211104C02091AB0222234C
:1038900021F09093A8028093A7022091AC022111FD
:1038A00004C02091AD02222321F09093A6028093C0
:1038B000A502E091F802F091F902309731F004800E
:1038C000F581E02D89EA92E009950895A7E1B0E03D
:1038D000ECE6FCE10C9433264B8B5C8B6D8B7E8B82
:1038E0008F8B611110929C0286E09E01235F3F4FF7
:1038F000D901E82F1D92EA95E9F795E0FE0173964C
:10390000D90101900D929A95E1F79C894E895F89C2
:103910007B897D879E876F87598B488BF901DE01F4
:10392000179601900D928A95E1F7CE0107960E94B5
:10393000221781113EC086E0FE013796DE01119606
:1039400001900D928A95E1F7FF81E8856A857B8574
:103950006115710531F0EF3F31F481E0FF3F19F45B
:1039600003C081E001C080E080FD23C020914902B6
:1039700030E0C90101968770992740917A0250E0A2
:103980008417950779F1F983EA837D836C8396E048
:10399000929FD001939FB00D1124A65BBD4FFE01F5
:1039A000319601900D929A95E1F7809349020E9419
:1039B000AF1616E080917A0290914902891709F1B9
:1039C000189FC0011124865B9D4F0E9422178823F7
:1039D000C1F080917A0290E00196877099278093D8
:1039E0007A02E8CF1092F2010E943D24109249021F
:1039F00010927A02E3E4F2E086E0DF011D928A95FC
:103A0000E9F76796E3E00C944F26CF92DF92EF92AE
:103A1000FF926C01EE24FF24C114D104E104F104EF
:103A200021F0C701B60120E101C020E0C72ED82E49
:103A3000E92EFF24C114D104E104F10419F0285F38
:103A4000C701B6016B017C0154E0F694E794D7946A
:103A5000C7945A95D1F7C114D104E104F10419F0C7
:103A60002C5FC701B6016B017C0142E0F694E7943C
:103A7000D794C7944A95D1F7C114D104E104F10455
:103A800019F02E5FC701B601DC01CB01B695A795F1
:103A900097958795892B8A2B8B2B09F02F5F822F87
:103AA000FF90EF90DF90CF9008951092F2010E9466
:103AB0003D242FEF84E39CE0215080409040E1F7CB
:103AC00000C000009AE088E10FB6F894A8958093B2
:103AD00060000FBE90936000FFCFCF92DF92EF9215
:103AE000FF926B017C010E94051D56985E982598F7
:103AF0002D9826982E9827982F9890E0FC013197C2
:103B0000E730F105A8F4E459FF4F0C949427259A67
:103B10002D9A0EC0259A2D9A269A2E9A09C0259A7A
:103B20002D9A04C0259A2D9A269A2E9A279A2F9A72
:103B3000C701B601FF90EF90DF90CF90089580E22B
:103B400090E090931701809316018091AE0281114D
:103B50000EC00E943C2581E08093AE022FEF83EDE2
:103B600090E3215080409040E1F700C0000064E6FF
:103B700070E080E40E944225909317018093160123
:103B8000892B09F04EC064E670E080E00E94B72502
:103B90009093170180931601892B09F042C064E6C7
:103BA00070E080E00E94B725909317018093160182
:103BB000892BB9F564E670E08FE30E94B7259093F6
:103BC000170180931601892B61F50E940C2664E68B
:103BD00070E080E40E9442259093170180931601C3
:103BE000892BF9F464E670E08CE00E94B72590938D
:103BF000170180931601892BA1F464E670E080E040
:103C00000E94B7259093170180931601892B49F4E0
:103C100064E670E08FE30E94B725909317018093CC
:103C200016010E940C26809116010895CF93DF9310
:103C300056985E9825982D9826982E9827982F9814
:103C4000C8E8D0E08FEF90E099838883AAE8B0E0DD
:103C500011969C938E93ECE8F0E091838083259AF3
:103C60002D9A2FEF80E792E0215080409040E1F7BD
:103C700000C00000269A2E9A2FEF80E792E0215094
:103C800080409040E1F700C00000279A2F9A2FEF64
:103C900080E792E0215080409040E1F700C00000B2
:103CA00025982D982FEF80E792E02150804090409A
:103CB000E1F700C0000026982E982FEF80E792E0F1
:103CC000215080409040E1F700C0000027982F98D5
:103CD0008091A10187702FEF829FC00111249595DB
:103CE00087959595879599279983888311969C93B5
:103CF0008E939183808356985E9825982D98269868
:103D00002E9827982F98DF91CF910895CF93E82F81
:103D1000873080F58091160190911701892B09F069
:103D200047C0CE2F64E670E080E40E944225909365
:103D3000170180931601892BD1F464E670E082E1CB
:103D40000E94B7259093170180931601892B79F46F
:103D500081E090E001C0880FCA95EAF764E670E060
:103D600080950E94B72590931701809316010E94B9
:103D70000C261EC090E0FC013797E730F105C0F437
:103D8000ED58FF4F0C949427209A289811C0219A3F
:103D900029980EC0229A2A980BC0239A2B9808C003
:103DA000529A5A9805C0539A5B9802C03E9A469818
:103DB000CF910895209828982198299822982A9898
:103DC00023982B9852985A9853985B983E98469807
:103DD0000895CF93873040F5809116019091170197
:103DE000892B59F564E670E081E40E9442259093A6
:103DF000170180931601892B11F0C0E011C084E6F1
:103E000090E00E94E72597FF05C0909317018093EB
:103E10001601F3CFC82FC09510921701109216010A
:103E20000E940C268C2F0AC09FB18FB1807F86958F
:103E300086959370892B809501C080E0CF9108957D
:103E40008091F4010895089522E02093E9002FEF76
:103E50003091E800215035FD06C035ED3A95F1F777
:103E600000002111F5CF2091E80025FF0BC040E0B4
:103E700050E065E070E00E9449138091E8008E7781
:103E80008093E8000895CF93DF93209118012223B7
:103E900039F02091000327FF03C060E225E002C053
:103EA00068E021E02093E9002FEF3091E8002150F5
:103EB00035FD06C035ED3A95F1F700002111F5CF3B
:103EC0002091E80025FF1DC0EC01809118018111AF
:103ED00005C040E050E068E070E003C070E040E002
:103EE00050E0CE010E9449138091E8008E778093C4
:103EF000E80080E2FE01A5EFB1E001900D928A9505
:103F0000E1F7DF91CF910895EF92FF920F931F9306
:103F1000CF93DF938C01CAEBD2E0E12CF12CF801B6
:103F20008481F7E0EF16F1041CF4882339F002C015
:103F3000811104C09E014091F00102C09E0140E049
:103F40006091EF018091EE010E9495198FEFE81AC0
:103F5000F80A24969FE0E916F10409F70E94A918CF
:103F6000F801848190E00196817099278483CDB710
:103F7000DEB7E6E00C944C26A0E0B0E0E2ECFFE116
:103F80000C942A26EC014C81042F10E09801D801F2
:103F90000E9463279B01AC010E942E276B017C01CC
:103FA000E0E2F0E0E01BF10BA5E5B0E09B01AC0125
:103FB0000E942E274B015C019F01DF010E949A277E
:103FC0009B01AC010E9439279B01AC012C0D3D1DCA
:103FD0004E1D5F1DC501B4010E944127822FF22EA4
:103FE00099E2921728F093E0299F900111240DC0C7
:103FF00025E530E0281B3109C901880F991F280FDA
:10400000391F37FF02C02F5F3F4F35952795122F7D
:1040100010959AEBC92E92E0D92E00E085E5E82EA6
:10402000EF1801FD02C08E2D01C08F2D9601412F8A
:104030006091EF010E9495190F5F84E0C80ED11CBA
:104040000F3079F70E94A9188C81811102C091E08C
:1040500003C0803219F49FEF9093260190912601BE
:10406000890F8C83CDB7DEB7ECE00C9446260F9316
:104070001F93CF93DF93CAEBD2E0FE01118210822F
:1040800012821382349682E0E63FF807B9F700E027
:1040900010E08091B802082E000C990B0817190740
:1040A00094F080912501082E000C990B8017910740
:1040B00054F09E014091F0016091EF018091EE017A
:1040C0000E94951904C0198218821A821B820F5F00
:1040D0001F4F24960F301105E1F60E94A918809118
:1040E00024019091B802980F9093B8022091250175
:1040F000280F20932501121614F49E301CF0819590
:1041000080932401DF91CF911F910F910895A0E03A
:10411000B0E0EDE8F0E20C942D26FC01828180FFF6
:1041200003C0DD24DA9402C0DD24D3940AEB12E04C
:10413000C0E0D0E02FE0B22EF8011182108212828E
:10414000138294E0E92EF12CC12C8091B7028C0DE2
:1041500080312CF06B2D0E947227892F02C087FDC1
:10416000815F082E000C990BC817D90791F4809134
:10417000F0018E9DA0018F9D500D112455954795FE
:104180005595479598016091EF018091EE010E944D
:104190009519CD0CF1E0EF1AF108B9F621960C5FF4
:1041A0001F4FCF30D10541F60E94A9188091B70268
:1041B00091E0D91206C0811102C08EE007C0815083
:1041C00005C090E00196BE010E9480278093B7024F
:1041D000CDB7DEB7E9E00C944926EF92FF921F932A
:1041E000CF93DF93EC018AEBE82E82E0F82E10E00B
:1041F0008C8197014091F0016091EF01810F0E9445
:1042000095191F5E84E0E80EF11C1F3F89F70E949C
:10421000A9189A818C8190FF02C08F5F01C08150E4
:104220008C83DF91CF911F91FF90EF900895A4E0D0
:10423000B0E0EDE1F1E20C9432268C018091B902FC
:1042400081110AC09E012F5F3F4F4FEF6FEF0E9419
:1042500095198A818093B902F8018481813051F0E7
:1042600028F0823061F44091B9020AC08091B9020D
:1042700040E007C06091B90240E080E003C040E048
:1042800080E060E00E942919F801848190E00196A5
:1042900063E070E00E94802784832496E4E00C941D
:1042A0004E26CF93DF93EC01EDEEF1E04381628186
:1042B0008C810E94221A8C818F5F8C83DF91CF9139
:1042C0000895CF93DF93EC01EC81F0E0EF50FA4FCB
:1042D0004491EDEEF1E0628181810E94221A8C818D
:1042E0008F5F8C83DF91CF91089580930203709349
:1042F00004036093030380912202843001F585E07A
:104300008093E9008FEF9091E800815095FD06C001
:1043100095ED9A95F1F700008111F5CF8091E800B5
:1043200085FF0DC040E050E063E070E082E093E084
:104330000E9449138091E8008E778093E8000895E9
:1043400078941F920F920FB60F9211248F939F9320
:10435000AF93BF938091FC029091FD02A091FE0269
:10436000B091FF020196A11DB11D8093FC029093B4
:10437000FD02A093FE02B093FF02BF91AF919F9107
:104380008F910F900FBE0F901F9018959C014FB703
:10439000F8948091FC029091FD02A091FE02B091F0
:1043A000FF024FBF821B930B08952FB7F8948091A3
:1043B000FC029091FD02A091FE02B091FF022FBF7E
:1043C00008951F920F920FB60F9211248F939F930F
:1043D000AF93BF938091FC029091FD02A091FE02E9
:1043E000B091FF024196A11DB11D8093FC029093F4
:1043F000FD02A093FE02B093FF02BF91AF919F9187
:104400008F910F900FBE0F901F901895209118015B
:104410002223C9F02091000327FF15C0262F2695DF
:10442000269526952E31C8F4FC01E20FF11D677028
:1044300081E090E001C0880F6A95EAF7809592814B
:10444000892382830895FC0106962281621301C0AC
:1044500012823196E817F907C1F708952091FA0200
:104460003091FB022817390771F09093FB0280937B
:10447000FA02E091F802F091F902309721F00084FD
:10448000F185E02D099508952091F6023091F7020B
:104490002817390771F09093F7028093F602E091A4
:1044A000F802F091F902309721F00680F781E02DB3
:1044B00009950895E091F802F091F902309729F0FA
:1044C0000190F081E02D0995089580E00895CF9343
:1044D000DF930E94A72666E070E00E948027D82F15
:1044E0000E94A7266EE070E00E948027C82F6D2FE3
:1044F000782F80E00E94E413892B19F08D2F9C2FD8
:1045000002C00E946722DF91CF9108959091ED0142
:1045100090FF04C09695981748F003C0811106C01B
:1045200090E0961718F40E94401B089561E00E94E5
:10453000FB1A0895882311F0FA0101C0FB010995C7
:1045400008956091ED01669570E04BE050E089E1DF
:1045500091E00E94D628892B19F481E08093B6025D
:104560000E94D5219093B0028093AF02089580E01D
:1045700090E00E94442280E090E00E942E2210925F
:104580009C020E942116E9EAF2E085E0DF011D921B
:104590008A95E9F71092A3021092A2021092A40247
:1045A0000E943F1C0895A0E0B0E0E9EDF2E20C9417
:1045B0002D268C01C090AD01D090AE01E090AF01EE
:1045C000F090B00180919E0290919F02A091A00274
:1045D000B091A102C82AD92AEA2AFB2ACFE1D0E069
:1045E000D701C6010C2E04C0B695A795979587955F
:1045F0000A94D2F780FD04C0219790F7B12C09C02E
:10460000BC2EB8018C2F0E94E4130E94FD13019769
:1046100099F38B2DCDB7DEB7E9E00C944926CF9303
:10462000DF93EC010E94D322BE010E94E4130E949A
:10463000FD13DF91CF910895292F9E3080F58630AC
:1046400070F590E036E0239F800D911D1124682FB6
:10465000677023E0969587952A95E1F725E0289FD6
:10466000F001299FF00D1124EB5FFC4F40E050E07A
:1046700080E0219130E0062E02C0369527950A94FD
:10468000E2F721703327042E01C0220F0A94EAF7C3
:10469000822B4F5F5F4F4530510559F7089580E0F9
:1046A0000895292F9E3090F5863080F590E036E011
:1046B000239F800D911D1124282F277051E001C0E8
:1046C000550F2A95EAF723E0969587952A95E1F705
:1046D00025E0289FF001299FF00D1124EB5FFC4F8E
:1046E00020E030E070E04081CB01022E02C09695C0
:1046F00087950A94E2F78170819584278523842722
:1047000081932F5F3F4F2530310569F70895CF9290
:10471000DF92EF92FF92CF93DF93CDB7DEB7A097F2
:104720000FB6F894DEBF0FBECDBF0E946D1D6B01AA
:104730007C01809121028823B1F02FEF80E792E085
:10474000215080409040E1F700C0000085E089835F
:10475000C701B6010E94051D8A838EEF8B83CE01AF
:1047600001960E947313C092AD01D092AE01E09207
:10477000AF01F092B0010E94B722A0960FB6F89454
:10478000DEBF0FBECDBFDF91CF91FF90EF90DF90E6
:10479000CF9008950F931F9341E050E060E070E0E8
:1047A00004C0440F551F661F771F8A95D2F74095A6
:1047B0005095609570958091AD019091AE01A0915A
:1047C000AF01B091B0018A019B01082319232A236C
:1047D0003B23C901B8010E9487231F910F910895BF
:1047E0000F931F9341E050E060E070E004C0440F7D
:1047F000551F661F771F8A95D2F78091AD01909162
:10480000AE01A091AF01B091B0018A019B01082BCC
:10481000192B2A2B3B2BC901B8010E9487231F911A
:104820000F91089560939E0270939F028093A0025F
:104830009093A1020E94B7220895FC01808191818A
:104840000E940F2392959F70963079F010F4925049
:1048500001C09A50923068F4803F69F018F4883EA5
:1048600040F409C0843F29F406C0883E20F0813F0F
:1048700011F080E0089581E0089580911801882367
:1048800031F08091000387FF02C08EE101C086E015
:10489000E5E2F2E0DF011D928A95E9F70E94B72276
:1048A0000895882321F00E941A160E942116089567
:1048B000882339F09091F201892B8093F2010E94B4
:1048C00021160895882391F19CEF980F913A30F4C6
:1048D000682F83E292E00E9406220DC090E2980FBA
:1048E000983060F4877091E001C0990F8A95EAF7DB
:1048F000892F0E941A160E94211608959BE5980F91
:10490000933028F480E090E00E944422089598E5D6
:10491000980F973128F480E090E00E942E220895AD
:104920008D3E20F00E944B1B0E943F1C0895CF93A8
:10493000882309F49FC0C82F8CEF8C0F813A08F0B0
:104940005BC0809118018823E1F08091000387FF0C
:1049500018C0EC2FE695E695E695F0E0ED5DFD4F8D
:104960008281282F30E04C2F477081E090E002C018
:10497000880F991F4A95E2F782239323892B59F4D4
:1049800011C0E5E2F2E08191C81729F082E0EB3234
:10499000F807C9F707C06C2F83E292E00E94062255
:1049A0000E942116809118018823B1F080910003A4
:1049B00087FF12C0EC2FE695E695E695F0E0ED5DF9
:1049C000FD4FC77081E090E001C0880FCA95EAF7FB
:1049D0009281892B828320C0A5E2B2E0EFEF80E0D4
:1049E0009D91C917C9F0EF3F19F4911101C0E82F4B
:1049F0008F5F8630A9F735C080E28C0F883078F45D
:104A0000C77081E090E001C0880FCA95EAF79091E5
:104A1000F201892B8093F2010E9421162BC0EBE555
:104A2000EC0FE33040F4F0E0E95BFE4F808190E072
:104A30000E9444221FC0E8E5EC0FE73150F4F0E09B
:104A4000EE0FFF1FE65BFE4F808191810E942E22B8
:104A500011C0CD3E78F08C2F0E94E41B0E943F1CB9
:104A600009C0EF3FC9F20E2E000CFF0BED5DFD4FAC
:104A7000C283D2CFCF9108951092B9008CE0809379
:104A8000B8000895A0E0B0E0E8E4F5E20C942B262D
:104A9000B82EEB010E94D5216C01C431D10558F02C
:104AA000CF3F8FEFD80759F0CE0164E170E00E944C
:104AB00010267B0107C0EE24E394F12C03C025E00F
:104AC000E22EF12C84E8A82E94EA992E1092BC00D4
:104AD0009092BC000E94D5218C018091BC0087FD82
:104AE00008C00E94D521801B910B8E159F05A8F34D
:104AF0002AC08091B900887F883041F08091B90048
:104B0000887F803119F00FEF1FEF1FC0B092BB00FC
:104B1000A092BC000E94D5218C018091BC0087FD31
:104B200008C00E94D521801B910B8E159F05A8F30C
:104B30000AC08091B900887F883111F0803419F75C
:104B400000E010E00EC00EEF1FEFCF3F8FEFD80751
:104B500009F4BCCFC6010E94C6218C179D0708F43A
:104B6000B5CFC801CDB7DEB7EBE00C9447260F9365
:104B70001F93CF93DF93EB018093BB0084E8809376
:104B8000BC000E94D5218C018091BC0087FD0EC025
:104B9000CF3F8FEFD807C1F30E94D521801B910B27
:104BA0008C179D0788F38EEF9FEF0CC02091B90002
:104BB000287F81E090E0283211F480E090E0919528
:104BC00081959109DF91CF911F910F9108950F93D6
:104BD0001F93CF93DF93EC0184E88093BC000E9485
:104BE000D5218C018091BC0087FD0EC0CF3F8FEF97
:104BF000D807C1F30E94D521801B910B8C179D070C
:104C000088F38EEF9FEF03C08091BB0090E0DF91AF
:104C1000CF911F910F91089584E98093BC0008956E
:104C2000AA1BBB1B51E107C0AA1FBB1FA617B707D2
:104C300010F0A61BB70B881F991F5A95A9F78095EE
:104C40009095BC01CD0108952F923F924F925F92B3
:104C50006F927F928F929F92AF92BF92CF92DF928C
:104C6000EF92FF920F931F93CF93DF93CDB7DEB7F1
:104C7000CA1BDB0B0FB6F894DEBF0FBECDBF099485
:104C80002A88398848885F846E847D848C849B84DC
:104C9000AA84B984C884DF80EE80FD800C811B81EA
:104CA000AA81B981CE0FD11D0FB6F894DEBF0FBE19
:104CB000CDBFED0108958F929F92AF92BF92CF9298
:104CC000DF92EF92FF92CF93DF93EC0168817981BD
:104CD0008A819B81611571058105910521F464E24A
:104CE00079ED8BE597E02DE133EF41E050E00E9454
:104CF0000F2749015A019B01AC01A7EAB1E40E94C8
:104D00002E276B017C01ACEEB4EFA50194010E944B
:104D10003C27DC01CB018C0D9D1DAE1DBF1DB7FFD7
:104D200003C00197A109B04888839983AA83BB83F4
:104D30009F77DF91CF91FF90EF90DF90CF90BF9062
:104D4000AF909F908F9008950E945B26089580E019
:104D500091E00E945B260895A0E0B0E080930001FE
:104D600090930101A0930201B09303010895DC0127
:104D7000CB01FC01F999FECF06C0F2BDE1BDF89A66
:104D8000319600B40D9241505040B8F70895F9990A
:104D9000FECF92BD81BDF89A992780B50895A6E10E
:104DA000B0E044E050E00C94B926A8E1B0E042E065
:104DB00050E00C94B926DC01A40FB51F41505040BF
:104DC00048F0CB01840F951F2E910E94EC26415094
:104DD0005040D0F70895262FF999FECF92BD81BD9E
:104DE000F89A019700B4021639F01FBA20BD0FB629
:104DF000F894FA9AF99A0FBE08950396272F0E9405
:104E0000EC260E94EB26252F0E94EC26242F0C94E2
:104E1000EC260196272F0E94EC260C94EB26052EFB
:104E200097FB1EF400940E94262757FD07D00E948E
:104E3000412707FC03D04EF40C942627509540954B
:104E4000309521953F4F4F4F5F4F08959095809536
:104E5000709561957F4F8F4F9F4F08950E946327F4
:104E6000A59F900DB49F900DA49F800D911D1124BE
:104E70000895B7FF0C942E270E942E27821B930BB8
:104E80000895A1E21A2EAA1BBB1BFD010DC0AA1F8B
:104E9000BB1FEE1FFF1FA217B307E407F50720F0A3
:104EA000A21BB30BE40BF50B661F771F881F991F1E
:104EB0001A9469F760957095809590959B01AC0167
:104EC000BD01CF010895A29FB001B39FC001A39F70
:104ED000700D811D1124911DB29F700D811D112433
:104EE000911D089587FB082E062687FD819567FD95
:104EF00061950E94A9270EF4919507FC819508956C
:104F000097FB072E16F4009407D077FD09D00E9476
:104F1000102607FC05D03EF4909581959F4F08958B
:104F2000709561957F4F0895EE0FFF1F0590F491E6
:104F3000E02D09940E946327332312F48A1B9B0BF4
:104F40000C94A4270E946327B7FF0895821B930B3C
:104F50000895991B79E004C0991F961708F0961BD5
:104F6000881F7A95C9F7809508950F931F93CF9363
:104F7000DF938230910510F482E090E0E0913E03EF
:104F8000F0913F0320E030E0A0E0B0E0309719F16D
:104F9000408151810281138148175907C8F0841755
:104FA000950769F4109731F012960C9312971396A7
:104FB0001C9327C000933E0310933F0322C021158A
:104FC000310519F04217530718F49A01BD01EF019A
:104FD000DF01F801DBCF21153105F9F0281B390B72
:104FE0002430310580F48A819B816115710521F09F
:104FF000FB019383828304C090933F0380933E031D
:10500000FE01329644C0FE01E20FF31F819391939B
:1050100022503109398328833AC020913C033091D2
:105020003D03232B41F42091060130910701309379
:105030003D0320933C03209104013091050121158B
:10504000310541F42DB73EB7409108015091090157
:10505000241B350BE0913C03F0913D03E217F3076D
:10506000A0F42E1B3F0B2817390778F0AC014E5FD8
:105070005F4F2417350748F04E0F5F1F50933D03D5
:1050800040933C038193919302C0E0E0F0E0CF01B4
:10509000DF91CF911F910F910895CF93DF930097E8
:1050A00009F481C0FC01329713821282A0913E0361
:1050B000B0913F03109781F420813181820F931FBB
:1050C00020913C0330913D032817390751F5F093A7
:1050D0003D03E0933C0367C0ED0120E030E0CE17D4
:1050E000DF0740F44A815B819E0141155105F1F0D3
:1050F000EA01F5CFD383C28340815181840F951F8C
:10510000C817D90759F488819981840F951F029691
:10511000918380838A819B819383828321153105CA
:1051200029F4F0933F03E0933E033DC0E901FB8384
:10513000EA8349915991C40FD51FEC17FD0761F41B
:1051400080819181840F951F0296E901998388835C
:10515000828193819B838A83E0E0F0E012968D91B7
:105160009C911397009719F0FD01DC01F7CF8D9109
:105170009C9111979D012E5F3F4F820F931F2091AD
:105180003C0330913D032817390769F4309729F41F
:1051900010923F0310923E0302C013821282B0931A
:1051A0003D03A0933C03DF91CF910895FC01415052
:1051B000504030F001900616D1F73197CF01089595
:1051C000882799270895FB01DC0104C08D91019087
:1051D000801921F441505040C8F7881B990B08955D
:0451E000F894FFCF71
:1051E40001000000000040032000201F431F241F73
:1051F400A20E9D0E9C0E20000101191A1B1C1D1EDF
:105204001F2021220102017779304A502F3050416A
:105214004247004022476DDC01BA01730106012EAA
:1052240002470267028002818283E200E900EA0009
:10523400B500B600B700CD008301CC008A0192010D
:1052440094012102230224022502260227022A02B3
:10525400B300B4006F0070000001020202020606EF
:10526400060909090909090F0F0F0F0F0F15151565
:0E5274001819191919191919191919232400D3
:00000001FF
