:100000000C9453030C9470030C9470030C947003C1
:100010000C9470030C9470030C9470030C94700394
:100020000C9470030C9470030C94BB180C94F71789
:100030000C9427200C9470030C9470030C947003A0
:100040000C9470030C9470030C9470030C94700364
:100050000C9470030C94B51F0C9470030C947003F3
:100060000C9470030C9470030C9470030C94700344
:100070000C9470030C9470030C9470030C94700334
:100080000C9470030C9470030C9470030C94700324
:100090000C9470030C9470030C9470030C94700314
:1000A0000C9470030C9470030C94700397089708D9
:1000B000D508D5081E093E09120B6B0B80096C0A86
:1000C0007E0A7E0A380D3B0D3E0D410D440D470D55
:1000D0004A0DFF1204130E13021307130C130A1315
:1000E00008162F16CF172F16CF1777169A16CF1779
:1000F0009817AB17B326B326C626C626BC26C62637
:10010000C626C626B326B326C126C626C626C126BF
:1001100035002B002941E100E00000001E00140022
:1001200004001D00E000E2081F001A0016001B007A
:10013000010028002000080007000600090CE30069
:100140002100150009001900E200A8002200170094
:100150000A0005000000AA002300500D0000500C0A
:100160000000A900A6004F1D00004F1C0000AC00BD
:1001700024001C000B0011000000AB00250018003B
:100180000D0010000251AE0026000C000E003600DB
:1001900001002C00270012000F00370001002A0088
:1001A0002D00130033003800E40028002E00310039
:1001B0003400E500025300002900010001000100A5
:1001C000010000001E01010001000100010001000A
:1001D0001F0101000100010001002B0120012F027D
:1001E0002F00260201002B032101300230002702DC
:1001F000010001002201010001000100000069006E
:10020000230101000000010000006A00010001005C
:1002100000000100000001000100010001000100D8
:1002200000000100010001000100010001000100C7
:10023000010001000100010001004C180100010053
:100240000100010001004C0001000100010001005B
:100250000100010001000100010001000100000097
:100260000100010001000100010000000100010087
:1002700001000100010029000100F400F20001006A
:100280000100F4000100F000F1000100E000E300D3
:100290000100F500F3000100E20001000100F90097
:1002A000FA0001000000010001000100000001004F
:1002B0000000010001000100000001000000010039
:1002C0000100010001000100000001000100010027
:1002D0005000010001000100010052005100010026
:1002E00001004C00010001004F00010001002A0044
:1002F00001000100010001000100010001000100F6
:1003000001000100010000000000000000000000EA
:1003100000000101010101010101010202020202CA
:100320000202020303030303030304040404040599
:100330000505050506060606060707070708080857
:10034000080909090A0A0A0B0B0B0C0C0C0D0D0D00
:100350000E0E0E0F0F101010111112121313141491
:10036000151516161717181819191A1A1B1C1C1D03
:100370001D1E1F1F20212122232324252526272857
:1003800028292A2B2C2C2D2E2F3031313233343585
:10039000363738393A3B3C3D3E3F40414243444585
:1003A000464748494B4C4D4E4F5052535455575861
:1003B000595A5C5D5E606163646567686A6B6C6E08
:1003C0006F7172747677797A7C7D7F81828486877B
:1003D000898B8D8E9092949597999B9D9FA1A2A4B5
:1003E000A6A8AAACAEB0B2B4B6B9BBBDBFC1C3C5B6
:1003F000C8CACCCED0D3D5D7DADCDEE1E3E6E8EA72
:10040000EDEFF2F4F7F9FCFFFFAA7F554005010973
:1004100002A10185020901A100050919012905159B
:10042000002501950575018102950175038101057E
:1004300001093009311581257F950275088106096A
:10044000381581257F950175088106050C0A38024B
:100450001581257F950175088106C0C005010980B9
:10046000A10185031A81002A8300160100260300DA
:10047000950175108100C0050C0901A10185041AC0
:1004800001002A9C02160100269C0295017510812C
:1004900000C005010906A1018505050719E029E746
:1004A000150025019508750181020507190029EF3E
:1004B0001500250195F0750181020508190129052E
:1004C000950575019102950175039101C00501091A
:1004D00006A101050719E029E71500250195087512
:1004E0000181029501750881010507190029FF1591
:1004F0000026FF00950675088100050819012905E9
:10050000950575019102950175039101C009023BA2
:1005100000020100A0FA0904000001030101000922
:1005200021110100012240000705810308000A098A
:10053000040100010300000009211101000122C093
:10054000000705820320000A1201100100000008C4
:10055000EDFE071301000102030104033000000057
:1005600016034500720067006F0044006F007800BA
:10057000200045005A000000160345007200670085
:100580006F0044006F007800200045005A00000012
:100590000403090400047F3F1F643214643214789A
:1005A0003C1E1E140A052223252628292A2C2D2F1D
:1005B0003032333536383A3B3D3E40424345474979
:1005C0004A4C4E5051535557595A5C5E60626466AE
:1005D00068696B6D6F71737577797B7D7F818385BA
:1005E00087898A8C8E90929496989A9C9E9FA1A3BC
:1005F000A5A7A8AAACAEAFB1B3B4B6B8B9BBBCBEE0
:10060000BFC1C2C3C5C6C7C9CACBCCCDCED0D1D25B
:10061000D2D3D4D5D6D7D7D8D9D9DADADBDBDBDC5D
:10062000DCDCDCDCDDDDDDDDDCDCDCDCDCDBDBDB09
:10063000DADAD9D9D8D7D7D6D5D4D3D2D2D1D0CE69
:10064000CDCCCBCAC9C7C6C5C3C2C1BFBEBCBBB96E
:10065000B8B6B4B3B1AFAEACAAA8A7A5A3A19F9EEC
:100660009C9A98969492908E8C8A89878583817FB4
:100670007D7B79777573716F6D6B69686664626095
:100680005E5C5A5957555351504E4C4A4947454361
:1006900042403E3D3B3A3836353332302F2D2C2AFE
:1006A00029282625232211241FBECFEFDAE0DEBF42
:1006B000CDBF11E0A0E0B1E0E6EAF9E502C00590A7
:1006C0000D92AE3EB107D9F723E0AEEEB1E001C026
:1006D0001D92A537B207E1F70E949C1A0C94D12C09
:1006E0000C9400008F929F92AF92BF92CF92DF92B4
:1006F000EF92FF920F931F93CF93DF93CDB7DEB7A7
:1007000028970FB6F894DEBF0FBECDBFFC01F08076
:10071000118183819481892B11F40C94850C1F3FE6
:1007200029F40FEFF01611F40C94850C6F0185E09D
:10073000DE01119601900D928A95E1F7F601228172
:1007400089819A81222349F00E948F21082F682FE6
:1007500089819A810E94082203C00E94DB21082F10
:1007600026E0129FF001112434E5039FE00DF11DF6
:100770001124EF0DF11DEE0FFF1FE05FFE4F0591FD
:100780001491F60182810E3FFCE51F0709F040C07D
:10079000882309F441C09091340281E0890F877069
:1007A000987F853020F4892B8093340202C0909387
:1007B00034028091340287702FEF829FC001112490
:1007C000959587959595879599279093890080931E
:1007D000880090938B0080938A0090938D00809383
:1007E0008C00409134025091350260913602709134
:1007F00037028FE090E00E94472B60910B037091CD
:100800000C0380910D0390910E030E94A01204C06E
:1008100001153DE51307C1F1F6018281882381F0BE
:10082000033E8CE5180709F45AC008F04DC0013E9C
:10083000ECE51E0709F041C0109230020E94211021
:1008400017FFC1C0F601828181114FC00B3CFCE54E
:100850001F0709F40DC108F442C1033D9CE51907C7
:1008600009F49CC308F0A1C30F3CFCE51F0711F479
:100870000C941C0C10F00C94380C0D3C3CE5130748
:1008800009F001C1F6018281882311F40C94850CD2
:1008900081E028960FB6F894DEBF0FBECDBFDF9182
:1008A000CF911F910F91FF90EF90DF90CF90BF906D
:1008B000AF909F908F900C940B10023EFCE51F07A9
:1008C00009F0BECF81E00EC0043E2CE5120749F0CE
:1008D000053E3CE5130709F0B3CF84E003C082E096
:1008E00001C083E080933002A9CF8091FF01809303
:1008F000EE011092FF0180913002813071F048F0DA
:100900008230D1F08430F1F486EE0E943E2988E1F5
:1009100017C082EE0E94512915C08BEE9CE00E9408
:10092000E01488E10E94512988E10E94D7288BEDCC
:100930009CE00E94E01406C082EE0E94512987E5E7
:100940000E943E298FE39CE90197F1F700C0000067
:100950007801E894F7F85CE0A52EB12CC7010A2CC9
:1009600002C0969587950A94E2F7282F2F7041F0E0
:10097000822F90E02A3010F44D9604C0069702C0F2
:1009800087E290E00E943E2994E0A91AB108ECEFBA
:10099000AE16EFEFBE0611F780913002813039F0CC
:1009A00040F0823031F0843051F488E206C08CE2AD
:1009B00004C082EE0E94D72802C00E943E29809186
:1009C000EE018093FF01003FFCE51F07B1F180F4C9
:1009D000083D3CE51307C9F0093D8CE51807C9F14E
:1009E000073D9CE51907C1F526E241EE61EE10C016
:1009F000023FECE51E0749F120F1033F2CE5120709
:100A000059F527E245EE66EE03C027E245EE65EEB6
:100A1000C60128960FB6F894DEBF0FBECDBFDF919A
:100A2000CF911F910F91FF90EF90DF90CF90BF90EB
:100A3000AF909F908F900C94C52526E241EE60EE1A
:100A4000E7CF27E245EE64EEE3CF26E241EE62EE29
:100A5000DFCF28E241E0DBCFF6018281882319F065
:100A60001092EF01F3CE0B3CFCE51F0709F08CC29E
:100A7000F6018281882309F448C78091FC01833004
:100A800090F48F5F0EC00E3C1C4508F0E3C6F601E3
:100A90008281882309F439C78091FC01882319F0E9
:100AA00081508093FC016091F8017091F90180916F
:100AB000FA019091FB0128960FB6F894DEBF0FBEA5
:100AC000CDBFDF91CF911F910F91FF90EF90DF90FD
:100AD000CF90BF90AF909F908F900C944E0E033CA0
:100AE0003CE51307E9F4F6018281882309F40DC778
:100AF0008091FF01827279F128960FB6F894DEBFDB
:100B00000FBECDBFDF91CF911F910F91FF90EF905E
:100B1000DF90CF90BF90AF909F908F900C940E106D
:100B2000043C8CE5180758F1073C9CE5190709F4CB
:100B30000FC608F019C6053CFCE51F0709F44DC6B1
:100B400008F059C6F6018281882309F4DEC6809137
:100B5000FF01827289F228960FB6F894DEBF0FBEAD
:100B6000CDBFDF91CF911F910F91FF90EF90DF905C
:100B7000CF90BF90AF909F908F900C94171006313C
:100B80009CE5190708F089C10230ECE51E0708F45E
:100B900029C1F6018281882309F462C20E94C4201F
:100BA000811102C00E94CF200E94B320909347027F
:100BB000809346020F30FCE51F0709F4CDC008F012
:100BC00042C008303CE5130709F4A8C0F0F4043033
:100BD0009CE5190709F490C068F40230FCE51F0792
:100BE00009F486C003301C4509F0D9C08091460243
:100BF0008260D3C006303CE5130709F487C008F0D3
:100C000089C0809146028860C8C00B309CE51907F6
:100C100009F493C068F40930FCE51F0709F482C0A9
:100C20000A301C4509F0BBC08091460288607EC036
:100C30000D303CE5130709F484C008F085C08091AD
:100C400046028D7FAAC0073F9CE5190709F457C0EB
:100C500050F50231FCE51F0709F486C068F4003145
:100C60003CE5130709F47CC001311C4509F097C02D
:100C7000809146028F7B91C004319CE5190709F4ED
:100C800083C008F475C005311C4509F088C0809107
:100C9000460282FB222720F991E0922790FB82F9FD
:100CA00090FB83F97AC00A3F2CE5120709F450C083
:100CB00058F4083F8CE5180729F1093F1C4509F055
:100CC0006EC0809147025CC00C3FECE51E0709F442
:100CD00054C070F10D3F1C4509F061C0809147027E
:100CE000982F909591708E7F892B90FB81F949C048
:100CF00080914602816051C08091460217C0809168
:100D0000470219C08091470282603BC08091460231
:100D1000806143C08091460280623FC0809146025C
:100D200080643BC080914602806837C0846035C0D3
:100D3000809147028260816024C0809146028E7F4C
:100D40002CC08091460217C080914602877F25C043
:100D5000809147028D7F15C0809146028F7E1DC015
:100D6000809146028F7D19C0809146028F7715C011
:100D700080914602877F8B7F10C0809147028D7FD4
:100D80008E7F809347020BC08091460287FB22270B
:100D900020F991E0922790FB87F9809346026091B9
:100DA00046021091470284E090E00E94352B612FAB
:100DB00081E290E00E94352B1092FF0128960FB639
:100DC000F894DEBF0FBECDBFDF91CF911F910F9181
:100DD000FF90EF90DF90CF90BF90AF909F908F905B
:100DE0000C94AF280115FCE51F0709F044C0F6017B
:100DF0008281882309F489C51092FF010E94AF28DF
:100E0000FFEF04E31CE0F15000401040E1F700C0A8
:100E10000000F89481E08093E00080E28093D800A5
:100E20001092C9008FE19EE40197F1F700C0000025
:100E30001DBA109268001CBC10BE1FBA10927A0036
:100E400010926E0010926F0010927100109272005A
:100E50001092C9001092BC0014B817B81AB81DB887
:100E600010BA1092BC0015B818B81BB81EB811BA49
:100E70000C94003F4AC501301C4509F0F1C0F60151
:100E80008281882309F441C580916402982F90954E
:100E900090FB80F98093640238C506313CE5130766
:100EA000A9F59091FF01F6018281882381F09A7A59
:100EB00081E009F480E08093F001811102C069E2D1
:100EC00001C065E38CE792E00E947B200BC080911B
:100ED000F001811102C069E201C065E38CE792E094
:100EE0000E94502028960FB6F894DEBF0FBECDBFEB
:100EF000DF91CF911F910F91FF90EF90DF90CF90F6
:100F0000BF90AF909F908F900C944921023C1C455C
:100F100009F0A6C0F6018281882309F4F6C4809105
:100F2000F80180FF2CC08E7F8093F8016091F8015A
:100F30007091F9018091FA019091FB010E944E0E8F
:100F400010927A02FFEF00E712E0F15000401040EB
:100F5000E1F700C0000028960FB6F894DEBF0FBE80
:100F6000CDBFDF91CF911F910F91FF90EF90DF9058
:100F7000CF90BF90AF909F908F900C949D0D81600B
:100F80008093F801869585CC0C3C2CE5120708F47B
:100F900076C0033D9CE5190709F047C4F60182813C
:100FA000882309F4B2C488E174CC0D3DFCE51F0729
:100FB00049F4F6018281882309F4A7C482E0809372
:100FC0007B02A3C40E3D2CE5120738F5053D3CE538
:100FD000130739F4F6018281882309F496C483E269
:100FE00058CC053D8CE5180768F4F601828188230A
:100FF00009F48BC40E94330E8951893008F4ABCDBB
:1010000089E147CC0C3D1C4559F5F60182818823C6
:1010100009F47BC410927B0278C40E3DECE51E07F8
:10102000C9F4F6018281882309F46FC428960FB6AB
:10103000F894DEBF0FBECDBFDF91CF911F910F910E
:10104000FF90EF90DF90CF90BF90AF909F908F90E8
:101050000C94CF20C801875F9C45079708F499CD71
:10106000F601828100811181882331F1C8010E943B
:101070008F21F82E682FC8010E94082221C0033C4E
:101080003CE5130709F42FCD08F04ECD06319CE561
:10109000190708F053C30230ECE51E0708F079CDBC
:1010A0000115FCE51F0709F4A2CE01301C4509F427
:1010B000E6CEF60100811181C8010E94DB21F82EE5
:1010C000B8018F2D0E942710182F382FF601258187
:1010D00022952F70028101111092110380910F034C
:1010E0008770A9F0002399F080E2810F883078F0B2
:1010F00082E02F8338879E830E94692280910F03AC
:101100008770EE24E3942F8138859E818111E12C34
:10111000A92EA2944FE0A422B12CFCE0AF16B1049A
:1011200008F0D9C2F501EA5AFF4F0C94912B892F90
:10113000807F9F70F92E882319F0F29480EFF822B7
:101140000023B9F0FF2009F457C280E2810F8830F4
:1011500010F0311106C09091FF01F92AF092FF01C1
:1011600005C090911103F92AF09211030E944921C0
:1011700043C2812F38870E94D7283885FF2009F481
:10118000AAC2105EF094183010F0311106C0909190
:10119000FF01F922F092FF0105C090911103F9229D
:1011A000F09211030E94492196C2492F407F892F56
:1011B0008F70403211F08295807F332319F03130E7
:1011C000E9F025C0002381F030911203222351F071
:1011D000213041F4982F932B391709F47CC2909356
:1011E000120379C2832B17C0222319F0213009F48E
:1011F00072C28E830E9443218E811DC0002321F084
:10120000223008F068C207C0211165C214C0002353
:1012100029F02111F1C10E94CD285DC2222359F08D
:10122000193309F0FBC10FEF27EE33E001502040E6
:101230003040E1F7F1C10E94C2284DC2292F269506
:101240002695237030E02115310521F0213031053C
:1012500059F041C2002319F0812F937002C080E041
:1012600090E00E94892540C2002319F0812F9370DD
:1012700002C080E090E00E94732536C20023F9F09E
:10128000153F51F0163F71F0143FA9F48091F10120
:101290009091F20181600BC08091F1019091F20177
:1012A000826005C08091F1019091F2018460909379
:1012B000F2018093F101812F0E944D1F1EC0153F46
:1012C00051F0163F71F0143FA9F48091F101909113
:1012D000F2018E7F0BC08091F1019091F2018D7F20
:1012E00005C08091F1019091F2018B7F9093F20102
:1012F0008093F101812F0E94A61E0E941120F4C14B
:10130000892F837009F070C00111ECC1812F829583
:1013100086958770880F880F412F4F7050E060E0EE
:1013200070E04A015B01082E04C0880C991CAA1CBD
:10133000BB1C0A94D2F714FF12C00FE010E020E0AB
:1013400030E004C0000F111F221F331F8A95D2F70F
:10135000B901A801409550956095709503C040E093
:1013600050E0BA01969596959370892F90E082305F
:10137000910529F183309105C9F000911303109173
:1013800014032091150330911603019759F0482951
:1013900059296A297B29CB01BA0160237123822351
:1013A00093230AC0802A912AA22AB32ACB01BA0128
:1013B000682979298A299B290E94A32293C1482957
:1013C00059296A297B298091130390911403A091D4
:1013D0001503B09116038A019B01082719272A27B4
:1013E0003B27C901B801E8CF002319F0892F81708C
:1013F00001C08695882309F475C1812F8295869551
:101400008770880F880F412F4F7050E060E070E0C8
:101410004A015B01082E04C0880C991CAA1CBB1C45
:101420000A94D2F714FF12C00FE010E020E030E081
:1014300004C0000F111F221F331F8A95D2F7B90174
:10144000A801409550956095709503C040E050E02C
:10145000BA01969596959370892F90E08230910508
:10146000E9F08330910579F100910B0310910C03A1
:1014700020910D0330910E03019759F04829592905
:101480006A297B29CB01BA0160237123822393232C
:1014900020C0802A912AA22AB32A15C04829592996
:1014A0006A297B2980910B0390910C03A0910D0375
:1014B000B0910E038A019B01082719272A273B2791
:1014C000C901B80106C0CB01BA01682979298A2966
:1014D0009B290E94382206C19F70F92E002339F003
:1014E000892F0E948222812F0E94CD28FBC0812F4C
:1014F0000E94C2288F2D0E944422F4C0812F323FC7
:10150000C9F128F4303F49F0313F79F170C0333FE1
:10151000C1F1343F09F44DC06AC0002311F121111B
:10152000DAC0292F2F7181E090E0A0E0B0E0AC019B
:10153000BD0104C0440F551F661F771F2A95D2F7BF
:1015400080910B0390910C03A0910D03B0910E03B9
:101550008A019B01082719272A273B27C901B801BF
:1015600025C0223008F0B7C0DCCF002329F0892F36
:101570008F712EC00023D9F3892F8F710E944422CE
:10158000AAC0002381F0292F2F7181E090E0A0E014
:10159000B0E0BC01CD0104C0660F771F881F991F02
:1015A0002A95D2F703C060E070E0CB010E94382298
:1015B00092C0002381F0192F1F71812F0E94822277
:1015C00028E0129FC0011124836080930F03812FB4
:1015D0000E94822280C081E02F830E9469222F8195
:1015E000223008F478C082E00E94692274C000238F
:1015F00039F0222309F4BBCF812F0E9451296BC0FF
:10160000222309F4B9CF893349F43FEF87EE93E001
:10161000315080409040E1F700C00000812F0E94CF
:10162000D72859C0323FB1F028F4303F49F0313F5C
:10163000F9F028C0343FB9F058F0353F71F022C0BE
:10164000002309F451C09091700381E0892708C0FC
:1016500081E008270093700347C0011145C081E075
:101660008093700341C001113FC0109270033CC0D1
:10167000002329F080916F03882329F329C02223B6
:1016800011F332C080916F032223C1F0882341F00F
:101690009091700381E089278093700310926F030B
:1016A000812F002319F00E9451291EC00E94D728C3
:1016B00086E0F60111928A95E9F716C08823A1F019
:1016C000011112C09091700381E08927809370030B
:1016D00010926F0309C0F8E0AF1AB10804E0A01639
:1016E000B10410F40E949F25EE2009F40EC18091F0
:1016F0000F0380FD0AC1F6011282859585958595B7
:101700000E948222C6010E94720380910F03859578
:101710008595859528960FB6F894DEBF0FBECDBF90
:10172000DF91CF911F910F91FF90EF90DF90CF90BD
:10173000BF90AF909F908F900C94442206313CE56F
:10174000130709F4AECB023C1C4509F4E3CBB1CC42
:10175000F6018281882309F4D8C06091FA012FEF45
:10176000620F08F46FEF11C0093C3CE5130789F0E4
:1017700008F04FC0F6018281882309F4C6C0609149
:10178000FA012FEF621B08F460E021E04091FB01B9
:101790000EC0F6018281882309F4B7C04091FB0195
:1017A0002CE0420F08F44FEF21E06091FA018091A4
:1017B000F90128960FB6F894DEBF0FBECDBFDF91BA
:1017C000CF911F910F91FF90EF90DF90CF90BF903E
:1017D000AF909F908F900C94340FF60182818823F4
:1017E00009F493C08091F90121E04091FB016091DF
:1017F000FA01845FDECFF6018281882309F485C077
:101800008091F90121E04091FB016091FA018C5037
:10181000D0CFF6018281882309F477C04091FB0183
:101820002CE0421B08F440E0BFCF043DECE51E076E
:1018300010F40C9434044BC0F6018281882309F41F
:1018400064C00E94330E8650823008F484C986E05A
:101850000C944904F6018281882309F456C00E9441
:10186000330E8250833008F476C982E00C94490428
:10187000013D9CE5190771F4F6018281882309F482
:1018800044C00E94330E8F50853008F464C98FE045
:101890000C944904023D1C4568F4F60182818823BA
:1018A000A1F10E94330E8950853008F454C989E0B3
:1018B0000C944904F6018281882339F10E94330E89
:1018C0008551823008F447C985E10C9449040D3DE7
:1018D000FCE51F0709F46DCB60F4053D3CE51307FB
:1018E00009F478CB08F481CB0C3D1C4509F48DCB71
:1018F000E0CB0E3DECE51E0709F493CBC801875FF2
:101900009C45079708F445C9D4CB28960FB6F894A0
:10191000DEBF0FBECDBFDF91CF911F910F91FF9022
:10192000EF90DF90CF90BF90AF909F908F900895F1
:101930009091460292FF0DC0282F2871283019F48B
:10194000877F846006C0282F2471243011F48B7F98
:10195000886093FF0DC0282F2871283119F4877EE5
:10196000846106C0282F2471243111F48B7E886194
:101970002091470220FF0DC0382F3871383019F4FC
:10198000877F816006C0382F3171313011F48E7F2E
:10199000886021FF0DC0282F2871283119F4877E17
:1019A000816106C0282F2171213111F48E7E88615A
:1019B00094FD877E0895282F277081E090E001C074
:1019C000880F2A95EAF780959091110389238093D7
:1019D00011030C944921282F277081E090E001C069
:1019E000880F2A95EAF790911103892B80931103B0
:1019F0000C944921CF93E82F873080F5809107011F
:101A000090910801892B09F047C0CE2F64E670E061
:101A100080E40E94712A9093080180930701892B2A
:101A2000D1F464E670E082E10E94C82A9093080134
:101A300080930701892B79F481E090E001C0880F41
:101A4000CA95EAF764E670E080950E94C82A9093F0
:101A5000080180930701CF910C941D2B90E0FC01AD
:101A60003797E730F105C0F4EE59FF4F0C94912BF6
:101A7000209A289811C0219A29980EC0229A2A9853
:101A80000BC0239A2B9808C0529A5A9805C0539AB3
:101A90005B9802C03E9A4698CF910895CF938730C5
:101AA00008F03FC08091070190910801892B09F04F
:101AB00041C064E670E080E40E94712A90930801BE
:101AC00080930701892B11F0C0E027C064E670E025
:101AD00083E10E94C82A9093080180930701892B13
:101AE00099F764E670E081E40E94712A90930801FE
:101AF00080930701892B41F784E690E00E94F82A41
:101B000097FF05C09093080180930701DDCFC82F90
:101B1000C09510920801109207010E941D2B8C2F76
:101B20000AC09FB18FB1807F869586959370892B6F
:101B3000809501C080E0CF910895EF92FF920F93BE
:101B40001F93CF93DF938091F80180FF2EC0EFB6F3
:101B5000F090BC00F8948091BC008B7F8093BC0017
:101B60008BB18C7F8BB95098589A5198599A35E01F
:101B70003A95F1F700008AB18C7F8AB985E08A95A1
:101B8000F1F70000519A5998E5E0EA95F1F7000065
:101B9000509A5898F5E0FA95F1F7000084E80E9411
:101BA000AB25CFE1D3E08E010DC080E090E0FC01D9
:101BB000E15EFC4F11821082128204968C339105F3
:101BC000B1F7C5CFF3E00B351F0731F0F801819174
:101BD0008F010E94AB25F6CF5098589A35E03A9580
:101BE000F1F700005198599A85E08A95F1F70000C5
:101BF000EFBEF092BC00579A8BB18F779BB1906883
:101C00002FB7F894E3E0CB35DE0789F0399148E04F
:101C10009BB9000000C037FF8BB9330F000000C034
:101C200000C000C08BB900C04A9591F7EBCF2FBF21
:101C3000DF91CF911F910F91FF90EF9008959091B8
:101C4000F80190FF0FC020E030E0F901E15EFC4FA9
:101C50008183608342832C5F3F4F2C333105A9F78A
:101C60000C949D0D08958091F80180FF02C0869527
:101C7000089580E008958091F801282F269530E09E
:101C80002115310519F48170826005C025323105B6
:101C900024F0817088648093F8010895CF93DF93D6
:101CA00000D000D0CDB7DEB7AB01BC0149835A8369
:101CB0006B837C830E943B0E49815A816B817C81BE
:101CC00088E090E00F900F900F900F90DF91CF91F0
:101CD0000C94472BE8EFF1E083E0808311828FEFD3
:101CE00082838383148260817181828193810C94C9
:101CF0004E0EAF92BF92CF92DF92EF92FF920F9370
:101D00001F93CF93DF93D82EC62EE901E42FF0E086
:101D1000611106C0E85FFC4F4491E42F842F7BC023
:101D2000E62EF12C26E0829FC00111240FEF10E077
:101D3000B8010E94692B5BEA56039001579F300D52
:101D400011242D0D311D2D0D311D822F880F280FCF
:101D5000C8018E199F098E9FD0018F9FB00D9E9F45
:101D6000B00D11249B2F2C9D60011124CD2CDD245E
:101D70005801AC18BD08AE9E6001AF9ED00CBE9E4F
:101D8000D00C11245801A21AB108AE9C9001AF9C4E
:101D9000300DBE9C300D1124232F3327021B130B53
:101DA0000E9F90010F9F300D1E9F300D1124832F29
:101DB0006230710591F04CF461157105E9F0613004
:101DC0007105C1F4842F4D2D17C06430710571F079
:101DD00044F06630710581F00DC0842F4B2F932F96
:101DE0000BC0E42F4B2F9E2F8D2D06C08B2F942FD1
:101DF000432F02C08B2F9D2DE42FF0E0E85FFC4FB6
:101E00004491E82FF0E0E85FFC4F8491E92FF0E087
:101E1000E85FFC4FE49149838883EA83DF91CF91A7
:101E20001F910F91FF90EF90DF90CF90BF90AF90F8
:101E30000895CF93DF9300D000D0CDB7DEB7909157
:101E4000F80190FF0AC09E012F5F3F4F0E94790E5C
:101E50004B8169818A810E941F0E0F900F900F9015
:101E60000F90DF91CF9108955F926F927F928F9242
:101E70009F92AF92BF92CF92DF92EF92FF920F9319
:101E80001F93CF93DF9300D000D0CDB7DEB7182FCC
:101E9000762E042F622E9091F80190FF6DC0E92FED
:101EA000E695AE2FB0E0A05EBE4F8C918093790294
:101EB0009E7F923061F49E012F5F3F4F812F0E94E1
:101EC000790E4B8169818A810E941F0E43C0823046
:101ED00019F40091FB013EC0863019F41091F9010C
:101EE00039C08930D9F38931A9F5E9518E2F817034
:101EF000582EE695F0E0E85FFB4FA590B4908FE197
:101F0000C82E83E0D82EE12CF12CBB249FE0892E33
:101F1000912CEA9CC001EB9C900DFA9C900D112431
:101F2000B4010E94692B812F511002C0860F01C09D
:101F3000861B9601402F672D0E94790E8FEFE81ABD
:101F4000F80A84E0C80ED11C8FE0E816F10409F706
:101F50000E949D0D1093F9017092FA010093FB010C
:101F6000662051F06091F8017091F9018091FA01B9
:101F70009091FB010E944E0E0F900F900F900F90CA
:101F8000DF91CF911F910F91FF90EF90DF90CF9055
:101F9000BF90AF909F908F907F906F905F900895CB
:101FA0009091F80190FF36C09170811102C092604B
:101FB00006C0853210F0986402C0880F982B909369
:101FC000F801662351F06091F8017091F901809158
:101FD000FA019091FB010E944E0E6091F801669506
:101FE00070E04BE050E083E191E00E94C42C892B2B
:101FF00019F010927A0202C00E94322681E080938A
:10200000760220E04091FB016091FA018091F90194
:102010000C94340F089561E00C94D00F8091F80176
:102020008695815009F484E261E00C94D00F809190
:10203000F80186958F5F853208F081E061E00C94AD
:10204000D00F609130028CE090E00C94352BCF9350
:10205000DF9326E0729FF001112434E5839FE00DA9
:10206000F11D1124E60FF11DEE0FFF1FE05FFE4F83
:10207000C591D491CE01C238D10569F1B0F4C13314
:10208000D10509F475C048F4C932D10509F469C015
:10209000CA32D10509F473C079C0C533D10509F43A
:1020A00059C0C933D105B9F071C0C33ED10571F132
:1020B00038F4C03ED105B1F0C23ED10511F166C081
:1020C000C63ED105B9F1C73ED105C9F1C43ED1051F
:1020D00009F05CC024C02091460220FD29C221FDE8
:1020E00027C22BC22091460220FD1CC2209147022C
:1020F00020FF23C28091460284FDC6C183EE90E09A
:102100001CC22091460222FF18C2F4CF80914602E1
:1021100082FD0BC28091470280FD0AC2EBCF209165
:10212000470221FF0AC28091460284FDADC187EEBD
:1021300090E003C22091460223FFFFC1F4CF8091BB
:10214000460283FDF8C18091470281FFECCF84EE07
:1021500090E0F3C12091460225FFEFC189E290E0B3
:10216000ECC12091460225FFE8C185E390E0E5C17E
:102170002091460226FFE1C18AE290E0DEC1209173
:10218000460226FFDAC181E390E0D7C1C11540E5E0
:10219000D40708F047C0C11520E4D20708F034C1C5
:1021A000C83ED10518F5C03ED10508F0C6C1C83AF1
:1021B000D10570F4C53AD10508F0B1C0C130D105E0
:1021C00009F4BBC108F460C1249708F45DC1B5C12E
:1021D000CF3BD10508F4AEC0C03CD10508F454C1D2
:1021E000FE01EE0FFF1FE857FE4F03C1C11530E29D
:1021F000D30760F4C11541E0D40708F09EC1C03F89
:10220000D10508F441C1CE01906597C1C11580E3A5
:10221000D80708F0F1C0FE01FF70EE0FFF1FE85F66
:10222000FC4FE7C0C11595E5D90708F044C0C115BA
:1022300024E5D20708F002C1C11532E5D30710F535
:10224000C11541E5D40708F0E4C08C2F837021E06C
:1022500030E002C0220F331F8A95E2F73C68CE01BE
:1022600074E0969587957A95E1F78370382BEC2F7B
:10227000EF70E695E69540E2E49FC0011124822BC1
:10228000932B5BC12C2F26952695AE0143705527C5
:10229000C115D34508F0C3C080E2289F90011124E6
:1022A00081E090E002C0880F991F4A95E2F7822BE7
:1022B000932B9C6842C1C1159AE5D907A8F4C115B2
:1022C00029E5D20708F0C9C0C11536E5D30708F4DF
:1022D000BBC0C11548E5D40708F4D6C0FC2FEE27D3
:1022E000CF01806F906A29C1C1158BE5D80708F42A
:1022F000CBC0C1159CE5D90708F4C2C0CE019056E9
:102300008115904208F0C0C08D2F8F710E94980CEB
:10231000FE01FF27F0628F719F01382BAFC0C53AD5
:10232000D10509F4B4C0C63AD10509F0B3C082E8BA
:1023300090E403C1C83AD10509F4AFC0C93AD10548
:1023400009F4AEC0CA3AD10509F4ADC0CB3AD10503
:1023500009F4ACC0CC3AD10509F4ABC0CB3BD105F4
:1023600009F4AAC0CC3BD10509F4A9C0CD3AD105E6
:1023700009F4A8C0C03BD10509F4A7C0CE3AD105E5
:1023800009F4A6C0CF3AD10509F4A5C0C13BD105D7
:1023900009F4A4C0C23BD10509F4A3C0C33BD105D5
:1023A00009F4A2C0C43BD10509F4A1C0C53BD105C5
:1023B00009F4A0C0C63BD10509F49FC0C73BD105B5
:1023C00009F49EC0C83BD10509F49DC0C93BD105A5
:1023D00009F49CC0CD3BD10509F49BC0CE3BD1058F
:1023E00009F49AC0CA3BD10509F499C080E094E48D
:1023F000A4C085919491A1C0CE019927D3FF02C0BA
:10240000986C9BC0906C99C0FE01FF70CF01906AE0
:1024100094C0FC2FEE27CF01816F906A8EC090E2AE
:10242000299F9001112481E090E002C0880F991F3C
:102430004A95E2F7822B932B9A687FC0FC2FEE27F8
:10244000CF01846F906A79C08C2F0E94980C8F7195
:1024500090E0982F8827906270C08C2F8F700E9418
:10246000980CFE0194E0F695E7959A95E1F7EF70E8
:10247000F0E0FE2FEE27F0699F01282BC9015DC017
:10248000CE019927906659C080E090E056C081E85F
:1024900090E453C083E890E450C082EE94E44DC0D1
:1024A00089EE94E44AC08AEE94E447C085EB94E454
:1024B00044C086EB94E441C083EB94E43EC084EBDB
:1024C00094E43BC087EB94E438C08CEC94E435C0D2
:1024D0008DEC94E432C083E895E42FC08AE895E45B
:1024E0002CC082E995E429C084E995E426C081E204
:1024F00096E423C083E296E420C084E296E41DC003
:1025000085E296E41AC086E296E417C087E296E474
:1025100014C08FE694E411C080E794E40EC08AE210
:1025200096E40BC089E390E008C082EE90E005C01D
:1025300080EE90E002C086EE90E0DF91CF910895AA
:10254000CF92DF92EF92FF920F931F936C01EE24D4
:10255000FF24C114D104E104F10411F0E0E103C04F
:102560006B017C01E0E033272F2D1E2D0D2D011571
:1025700011052105310519F0E85F6801790197011E
:102580008601F4E03695279517950795FA95D1F7CA
:10259000011511052105310519F0EC5F680179017C
:1025A0009701860152E036952795179507955A951C
:1025B000D1F7011511052105310519F0EE5F68010C
:1025C0007901970186013695279517950795012B77
:1025D000022B032B09F0EF5F56985E9825982D98F3
:1025E00026982E9827982F980E2F10E0F8013197F3
:1025F000E730F105A8F4E759FF4F0C94912B259A89
:102600002D9A0EC0259A2D9A269A2E9A09C0259A9F
:102610002D9A04C0259A2D9A269A2E9A279A2F9A97
:102620001F910F91FF90EF90DF90CF90089580E27F
:1026300090E090930801809307018091F601811149
:102640000EC00E946B2A81E08093F6012FEF83ED8C
:1026500090E3215080409040E1F700C0000064E624
:1026600070E080E40E94712A909308018093070132
:10267000892B09F04EC064E670E080E00E94C82A11
:102680009093080180930701892B09F042C064E60A
:1026900070E080E00E94C82A9093080180930701AF
:1026A000892BB9F564E670E08FE30E94C82A909305
:1026B000080180930701892B61F50E941D2B64E6B8
:1026C00070E080E40E94712A9093080180930701D2
:1026D000892BF9F464E670E08CE00E94C82A90939C
:1026E000080180930701892BA1F464E670E080E083
:1026F0000E94C82A9093080180930701892B49F40E
:1027000064E670E08FE30E94C82A909308018093EA
:1027100007010E941D2B809107010895CF93DF933D
:1027200056985E9825982D9826982E9827982F9839
:10273000C8E8D0E08FEF90E099838883AAE8B0E002
:1027400011969C938E93ECE8F0E091838083259A18
:102750002D9A2FEF80E792E0215080409040E1F7E2
:1027600000C00000269A2E9A2FEF80E792E02150B9
:1027700080409040E1F700C00000279A2F9A2FEF89
:1027800080E792E0215080409040E1F700C00000D7
:1027900025982D982FEF80E792E0215080409040BF
:1027A000E1F700C0000026982E982FEF80E792E016
:1027B000215080409040E1F700C0000027982F98FA
:1027C0008091340287702FEF829FC001112495956C
:1027D00087959595879599279983888311969C93DA
:1027E0008E939183808356985E9825982D9826988D
:1027F0002E9827982F98DF91CF91089584B1807FEC
:1028000084B985B1807F85B98AB1837F8AB98BB15C
:10281000837F8BB93E984698089580B38C7080BBB7
:1028200081B3836F81BB08959F92AF92BF92CF9285
:10283000DF92EF92FF920F931F93CF93DF938091DC
:10284000070190910801892B91F08091F5018F5F2C
:102850008093F50181110BC00E94171390E09093B3
:10286000080180930701892B11F40E948E1308E35D
:1028700012E02FE3E22E22E0F22E6801C0E0912C5C
:1028800097E0A92EAC0E8C2F0E94FA0C8A2D0E9484
:10289000FA0C8C2F0E944E0DF6019081981721F0B2
:1028A0008083BB24B39401C0B12C8A2D0E944E0DAD
:1028B000F7019081981719F0808381E001C080E0D2
:1028C000B82A9B280E94FE13CF5FFFEFCF1ADF0AC2
:1028D0008FEFE81AF80AC73099F60E9405206AEFD0
:1028E00070E00E94692B9C01682F8091F40188237D
:1028F000E9F11092F401E0912E02F0912F02DF0134
:102900001E9690E07BEF8AEFE82EF12C80818B3FC2
:10291000A9F0482F50E0681728F0E901C41BD50B37
:10292000AE0106C06701C41AD50AA601420F531FA3
:102930004E31510514F0708301C091E03196EA17D1
:10294000FB0721F79093F401911002C0911110C080
:102950001092F301A0912E02B0912F029091F401F8
:10296000ECE4F2E080E03EE03E0F07C09110F0CFD3
:102970008091F3018111ECCF16C0E80129918E01FD
:102980004081421741F04C914B3F21F46C932083DE
:1029900091E001C081E0119631963E13EECF909305
:1029A000F4018093F301892DDF91CF911F910F9155
:1029B000FF90EF90DF90CF90BF90AF909F900895E1
:1029C000CF93DF93EC0180EEFE01099581EEFE01CD
:1029D000DF91CF910994CF92DF92FF920F931F93D3
:1029E000CF93DF931F92CDB7DEB7F82E8B0199837B
:1029F0000E94A719998181111CC0CF2CD92E0115D5
:102A00001105B1F08091E80085FD0AC08091E800D1
:102A10008E778093E8000E94A719882381F309C06C
:102A2000F60181916F018093F10001501109E7CF08
:102A300080E00F90DF91CF911F910F91FF90DF9079
:102A4000CF9008951F93CF93DF93CDB7DEB7AA97AA
:102A50000FB6F894DEBF0FBECDBFE6E2F2E088E02D
:102A60008E0F9091F10091938E13FBCF80912702EE
:102A7000833009F460C030F4813071F0823009F4A1
:102A80009CC0B3C08A3009F488C08B3009F46BC095
:102A9000893009F0AAC020C080912602813A09F04D
:102AA000A4C08091E800877F8093E80080912A028B
:102AB00090912B02892B21F460E282E092E003C026
:102AC00060E080E090E070E00E942D1A8091E800C4
:102AD0008B778093E80089C080912602813209F0CB
:102AE00084C080912A0290912B02029708F07DC049
:102AF0008091E800877F8093E8008091E80082FD64
:102B000005C0809124028111F8CF6FC02091F3009D
:102B10008091F20090E0922B029729F48091F100CD
:102B20008B7F813021F48091F100809301028091AC
:102B3000E8008B7756C080912602813A09F055C093
:102B400080912A0290912B02892B09F04EC080912E
:102B5000E800877F8093E8008091E80080FFFCCF49
:102B60008091060139C0809126028132F1F5809171
:102B70002A0290912B02892BC1F58091E800877F72
:102B80008093E8000E94D919809128028093060161
:102B90001092FF010E94AF2828C080912602813246
:102BA00021F58091E800877F8093E8000E94D91981
:102BB000809129028093000218C080912602813AF8
:102BC000A1F48091E800877F8093E8008091E8007D
:102BD00080FFFCCF809100028093F1008091E8009B
:102BE0008E778093E8000E94D9198091E80083FFD6
:102BF000D6C18091260290912702492F50E04A3099
:102C0000510508F0CCC1FA01E059FF4F0C94912B0B
:102C1000803821F0823809F0C2C108C080912202B8
:102C200090912302992389F082600FC080912A023B
:102C30008F70873008F0B3C18093E9008091EB007A
:102C400085FB882780F91092E9009091E800977F32
:102C50009093E8008093F1001092F10074C1282F46
:102C60002D7F09F09CC1882319F0823061F097C153
:102C700080912802813009F092C1933009F080E000
:102C8000809323022EC08091280281112AC0809156
:102C90002A028F702FEF280F263008F080C1809312
:102CA000E9002091EB0020FF1CC0933021F48091BB
:102CB000EB00806214C09091EB0090619093EB0068
:102CC00021E030E0A90102C0440F551F8A95E2F7C8
:102CD0004093EA001092EA008091EB0088608093B4
:102CE000EB001092E9008091E800877F2FC18111ED
:102CF00056C1109128021F778091E3008078812BC4
:102D00008093E3008091E800877F8093E8000E9431
:102D1000D9198091E80080FFFCCF8091E3008068A2
:102D20008093E300111102C082E001C083E0809330
:102D3000240235C18058823008F031C180912802C8
:102D4000909129028C3D53E0950779F583E08A83C1
:102D50008AE289834FB7F894DE01139620E03EE0C3
:102D600051E2E32FF0E050935700E49120FF03C0BD
:102D7000E295EF703F5FEF708E2F90E0EA3010F039
:102D8000C79601C0C0968D939D932F5F243149F75C
:102D90004FBF8091E800877F8093E8006AE270E08F
:102DA000CE0101960E942D1ABDC040912A02509179
:102DB0002B02292F332723303105B9F06CF4213051
:102DC000310509F4FBC02230310509F0E8C08BE37E
:102DD00090E0EDE0F5E054C02132310509F433C054
:102DE0002232310509F43CC0DAC0992781309105BF
:102DF000D1F05CF4892B09F0D2C0E0E9F5E0E49170
:102E00008E2F90E0E0E9F5E038C08230910599F02E
:102E1000039709F0C4C0EAE5F5E0E4918E2F90E055
:102E2000EAE5F5E02AC0E8E7F5E0E4918E2F90E0CE
:102E3000E8E7F5E022C0E0E6F5E0E4918E2F90E0CF
:102E4000E0E6F5E01AC04115510509F4BCC0413077
:102E5000510509F0A4C089E090E0E8E3F5E010C076
:102E60004115510509F4B4C04130510509F097C02E
:102E700080EC90E0EDE0F4E003C0009709F48FC02F
:102E80002091E800277F2093E80020912C023091C8
:102E90002D022817390708F4C90140E0009789F18D
:102EA00020912402222309F43DC02530D9F120913C
:102EB000E80023FD37C02091E80022FD2FC02091BB
:102EC000E80020FFEBCF4091F3002091F20030E0CA
:102ED000342B009759F02830310540F44491409349
:102EE000F100319601972F5F3F4FF3CF41E028303B
:102EF000310509F040E02091E8002E772093E800AA
:102F0000CDCF4111CDCF0AC080912402882351F04A
:102F1000853041F08091E80083FD04C08091E80095
:102F200082FFF2CF8091E8008B778093E80037C072
:102F30008038A9F58091E800877F8093E800809130
:102F400025028093F1008091E8008E778093E8005D
:102F50000E94D91924C0811122C010912802123078
:102F6000F0F48091E800877F8093E80010932502B9
:102F70000E94D919111106C08091E30087FD02C09B
:102F800081E001C084E08093240242E061EC81E0B2
:102F90000E94F81942E261EC82E00E94F8198091E7
:102FA000E80083FF1AC08091E800877F8093E800E3
:102FB0008091EB0080628093EB000FC082E190E093
:102FC000E8E4F5E05DCF89E090E0EFE1F5E058CF8F
:102FD00080E490E0EDECF4E053CFAA960FB6F894BD
:102FE000DEBF0FBECDBFDF91CF911F9108951F921D
:102FF0000F920FB60F9211242F933F934F935F932D
:103000006F937F938F939F93AF93BF93CF93DF93F0
:10301000EF93FF93C091E900CF708091EC00D82F1F
:10302000D17080FDD0E81092E9008091F000877F98
:103030008093F00078940E9422151092E90080910C
:10304000F00088608093F000CD2BCF70C093E90032
:10305000FF91EF91DF91CF91BF91AF919F918F91B0
:103060007F916F915F914F913F912F910F900FBE84
:103070000F901F901895E8EDF0E080818E7F80839F
:103080001092E2001092DA001092E100A0EEB0E09F
:103090008C9181608C9380818F77808319BCA7EDA0
:1030A000B0E08C918E7F8C9380818F7E8083109294
:1030B000F7010895CF92DF92EF92FF920F931F9343
:1030C000CF93DF93C8EDD0E088818F7E8883E7EDD2
:1030D000F0E080818160808384E082BF81E0809322
:1030E000F70188818E7F888302EE10E0F80110825C
:1030F0001092DA0081EEC82ED12CF6011082888160
:103100008F77888388818068888388818F7D888392
:1031100019BC1092240210922502109223021092E0
:10312000220290EEE92EF12CF70180818B7F8083C3
:1031300088818160888342E060E080E00E94F81925
:10314000F60180818E7F8083F80180818160808399
:10315000808188608083F70180818E7F8083888171
:1031600080618883DF91CF911F910F91FF90EF9045
:10317000DF90CF9008951F920F920FB60F921124F7
:103180002F933F934F935F936F937F938F939F936F
:10319000AF93BF93EF93FF938091E10082FF09C04B
:1031A0008091E20082FF05C08091E1008B7F8093D7
:1031B000E1008091DA0080FF2AC08091D80080FF72
:1031C00026C08091DA008E7F8093DA008091D9004A
:1031D00080FF18C080E189BD82E189BD09B400FE8D
:1031E000FDCF81E0809324028091F70181110FC00F
:1031F0000E943B180E945A188091E20084608093DC
:10320000E20005C019BC109224021092F7018091CF
:10321000E10080FF17C08091E20080FF13C0809121
:10322000E2008E7F8093E2008091E20080618093D3
:10323000E2008091D80080628093D80019BC85E0BC
:10324000809324028091E10084FF45C08091E200D8
:1032500084FF41C080E189BD82E189BD09B400FEDF
:10326000FDCF8091D8008F7D8093D8008091E100C0
:103270008F7E8093E1008091E2008F7E8093E20058
:103280008091E20081608093E20080912502882392
:1032900011F084E007C08091E30087FD02C081E067
:1032A00001C083E0809324021092FF010E94AF28A6
:1032B0000E949F251092FE018091FD01882349F014
:1032C0008091F80181608093F80160E086950E940A
:1032D000D00F0E9432268091E10083FF27C08091A9
:1032E000E20083FF23C08091E100877F8093E100AB
:1032F00082E080932402109225028091E1008E7F6B
:103300008093E1008091E2008E7F8093E2008091C3
:10331000E20080618093E20042E060E080E00E9491
:10332000F8198091F00088608093F000FF91EF9190
:10333000BF91AF919F918F917F916F915F914F91CD
:103340003F912F910F900FBE0F901F9018952091D5
:10335000E4003091E50095E64091EC00842F817007
:1033600040FF22C08091E80080FD1CC080912402B3
:10337000882391F0853091F08091EB0085FD10C09D
:103380004091E4005091E5004217530729F39A0158
:10339000915011F784E0089582E0089583E0089544
:1033A00081E0089580E008954091E80042FFDECF7B
:1033B00008958091260287FF11C08091E80082FD68
:1033C00005C0809124028111F8CF11C08091E800DE
:1033D0008B770BC080912402882349F08091E8000C
:1033E00080FFF8CF8091E8008E778093E800089501
:1033F000982F973058F59093E900981739F070910D
:10340000EC002091ED005091F00003C0242F762FA6
:1034100050E021FF19C03091EB003E7F3093EB006C
:103420003091ED003D7F3093ED003091EB00316045
:103430003093EB007093EC002093ED005093F0007C
:103440002091EE0027FF07C09F5FD3CF8F7080933E
:10345000E90081E0089580E0089520912C023091E8
:103460002D022617370748F06115710539F42091B0
:10347000E8002E772093E80001C0B90140E0611513
:103480007105A9F120912402222309F443C02530BB
:1034900009F442C02091E80023FD40C02091E800DB
:1034A00022FD32C02091E80020FFE9CF4091F300D7
:1034B0002091F20030E0342BFC01CF016115710541
:1034C00059F02830310540F481918093F10061502A
:1034D00071092F5F3F4FF1CF41E02830310509F0EE
:1034E00040E02091E8002E772093E800C8CF4111FA
:1034F000C9CF0AC080912402882361F0853061F031
:103500008091E80083FD0AC08091E80082FFF2CF3D
:1035100080E0089582E0089583E0089581E00895B1
:1035200080917B02811107C080912402843011F0C8
:1035300081E0089582E00895CF93DF93CDB7DEB7A1
:103540002C970FB6F894DEBF0FBECDBF84B7877F30
:1035500084BF0FB6F894A89580916000886180932D
:103560006000109260000FBE80E8809361001092AE
:10357000610085B7806885BF85B7806885BF0E9478
:103580003B180E945A188091E20084608093E20008
:103590007894809124028823A1F01091E9001F7093
:1035A0009091EC00892F817090FD80E8182B10928B
:1035B000E9008091E80083FD0E9422151F7010939E
:1035C000E90082E084BD93E095BD9AEF97BD8093BA
:1035D0006E000E94171390E09093080180930701FA
:1035E0000E94FE130E940D14A8E3B2E0ECE4F2E0A6
:1035F0006EE0D62EDE0E11921D92DE12FCCF8EE012
:1036000090E00E94972B80932E0290932F02FC0152
:103610000E962BEF2193E817F907E1F70E94C420DB
:10362000811102C00E94CF208CE090E00E94212BEB
:1036300090E0A0E0B0E08093300290933102A0933C
:103640003202B093330289EA8093800089E080934C
:10365000810024982C983F988AB18F7C8AB96E9803
:10366000479A8BB180638BB9769A8FE090E00E9485
:10367000292B609334027093350280933602909325
:10368000370267702FEF629FB0011124759567951F
:10369000759567957727709389006093880070937C
:1036A0008B0060938A0070938D0060938C000E9461
:1036B0008E130E94C420811102C00E94CF2082E09C
:1036C00090E00E94212B809364020E94B32090938B
:1036D00047028093460283E090E00E94212B682FEE
:1036E00070E080E090E00E94A32280914802811166
:1036F00038C0809164028160809364020E94C4207B
:10370000811104C00E94CF200E946A0E88E090E0E0
:103710000E94292B6093F8017093F9018093FA01BC
:103720009093FB016E7F71F40E946A0E88E090E036
:103730000E94292B6093F8017093F9018093FA019C
:103740009093FB010E943B0E10927A028091F80147
:1037500080FF04C060E086950E94D00F81E08093D6
:10376000480289E091E090934A028093490244E93B
:10377000E42E45E0F42E80912402853009F065C0E6
:1037800080912402843009F441C010924B0220E45D
:1037900088E190E00FB6F894A895809360000FBE82
:1037A0002093600010927A028091FE01811117C06F
:1037B00081E08093FE018091F801982F91709093A1
:1037C000FD018E7F8093F8013FEF40E782E03150AA
:1037D00040408040E1F700C000000E949D0D83B78B
:1037E000817F846083BF83B7816083BF789488952D
:1037F00083B78E7F83BF0FB6F894A8958091600041
:10380000886180936000109260000FBE8091230257
:10381000882309F4B0CF0E94171390E09093080119
:10382000809307010E94FE130E940D14ECE4F2E065
:103830001192DE12FDCF0E941414ECE4F2E08191AB
:10384000811184C1DE12FBCF96CF0E941414E5E6ED
:10385000F2E0ACE4B2E000E010E0302F2D914191B5
:103860004227B9F180E090E050E0682F5A01082E1D
:1038700002C0B594A7940A94E2F7A0FE26C08983FB
:103880003A8381E090E05C0102C0AA0CBB1C6A95FF
:10389000E2F7822F90E08A219B2121E0892B09F415
:1038A00020E02B830E9405208160782F9D838C83EC
:1038B00049815A816B818D810E949D24F801EB59C9
:1038C000FD4F8081A826A0821AC0019686309105FE
:1038D00061F60F5F1F4F0E30110509F0BECF8FEF5D
:1038E0008E838F8318860E9405208160782F9A87A7
:1038F00089874E815F8168858A850E949D24809199
:103900006102909162020E94DB1F9C019091600213
:10391000992321F02F30310508F478C080915C02A2
:1039200010915D0281110BC0111126C120915E0220
:10393000211122C120915F0221111EC167C09F3F4A
:1039400019F09F5F90936002181624F40E942D1FB7
:1039500080935C0280915C0287FF05C00E942D1F4E
:10396000819580935C02111624F40E942D1F809390
:103970005D0280915D0287FF05C00E942D1F819529
:1039800080935D0230915C023323E1F020915D026F
:103990002223C1F045EB3403C0011124892F990F74
:1039A000990B009709F481E080935C0235EB2303C7
:1039B000C0011124892F990F990B009709F481E018
:1039C00080935D0280915E02181624F40E942B1FE2
:1039D00080935E0280915E0287FF05C00E942B1FCC
:1039E000819580935E0280915F02181624F40E94F4
:1039F0002B1F80935F0280915F0287FF05C00E94AA
:103A00002B1F819580935F020E9411201091630209
:103A10000E949F25181721F00E949F258093630222
:103A200080917A02882309F4A6CE80917902E091F0
:103A3000F801E695E81BE0937502823049F4F0E066
:103A4000EE55FA4FE4910E2F10E029E834E248C019
:103A5000863049F4F0E0E156FA4FE4910E2F10E081
:103A600029E734E23DC0893051F4E695F0E0E456B0
:103A7000FA4FE4910E2F10E02DE034E231C08F3088
:103A800051F4E695F0E0E756FA4FE4910E2F10E07E
:103A90002DE933E225C0853149F4F0E0EA56FA4FCA
:103AA000E4910E2F10E021E433E21AC0883179F05E
:103AB000833231F4F7010591149127E334E210C009
:103AC000843251F404EF11E024ED32E209C008EE33
:103AD00013E02CE033E204C000ED17E027EB32E204
:103AE000809176028823A9F0109276022B873C877A
:103AF0000E940520A80140955095840F951F909332
:103B000074028093730210927802109277023C85BF
:103B10002B8580917302909174022B873C870E94C1
:103B2000DB1F2B853C858017910708F424CEE0919C
:103B30007302F09174020E0F1F1F10937402009312
:103B4000730283E792E0F901099515CE80E189BD02
:103B500082E189BD09B400FEFDCF8091D8008F7D40
:103B60008093D8008091E00082608093E000809193
:103B7000E00081FDFCCFFFCD9F3F09F0E2CEEACE11
:103B8000809101020895CF93DF9300D01F92CDB7AB
:103B9000DEB720912402243031F523E029838058B8
:103BA00091099B838A8382E08093E9008FEF909153
:103BB000E800815095FD06C095ED9A95F1F700005B
:103BC0008111F5CF8091E80085FF0DC040E050E005
:103BD00063E070E0CE0101960E94EB148091E80052
:103BE0008E778093E8000F900F900F90DF91CF9128
:103BF00008950F931F93CF93DF9300D01F92CDB7FB
:103C0000DEB78C010E94901A823011F0843021F5C9
:103C100084E089831B830A8382E08093E9008FEF2D
:103C20009091E800815095FD06C095ED9A95F1F7C9
:103C300000008111F5CF8091E80085FF0DC040E0C4
:103C400050E063E070E0CE0101960E94EB14809199
:103C5000E8008E778093E8000F900F900F90DF912F
:103C6000CF911F910F910895CF93DF93EC010E94A4
:103C7000901A823011F08430F9F482E08093E900E8
:103C80009FEF8091E800915085FD06C085ED8A95F3
:103C9000F1F700009111F5CF8091E80085FF0CC08D
:103CA00040E050E066E070E0CE010E94EB148091AD
:103CB000E8008E778093E800DF91CF910895CF934D
:103CC000DF93EC010E94901A823011F08430D9F514
:103CD00080910601882339F08091460287FF03C056
:103CE00060E282E002C068E081E08093E9008FEF4B
:103CF0009091E800815095FD06C095ED9A95F1F7F9
:103D000000008111F5CF8091E80085FF1CC08091F3
:103D10000601811105C040E050E068E070E003C09A
:103D200070E040E050E0CE010E94EB148091E8008A
:103D30008E778093E80080E2FE01A2E0B2E001907D
:103D40000D928A95E1F7DF91CF910895803F39F484
:103D500080915D0287FF6CC010925D0269C0813F57
:103D600029F480915D021816BCF362C090915C0248
:103D7000823F29F497FF5CC010925C0259C0833FD8
:103D800019F41916CCF354C0893F41F480915E02B6
:103D900018160CF04DC010925E024AC08A3F29F4FA
:103DA00080915E0287FF44C0F6CF8B3F39F480914B
:103DB0005F0287FF3DC010925F023AC08C3F29F43A
:103DC00080915F021816BCF333C0843F21F48091C8
:103DD0005B028E7F17C0853F21F480915B028D7F4F
:103DE00011C0863F21F480915B028B7F0BC0873F1F
:103DF00021F480915B02877F05C0883F31F4809178
:103E00005B028F7E80935B0213C08D3F21F4809113
:103E10001B038E7F0BC08E3F21F480911B038D7F8F
:103E200005C08F3F29F480911B038B7F80931B0378
:103E300080915C0281110EC080915D0281110AC0E7
:103E400080915E02811106C080915F02811102C0E3
:103E500010926002089581E0089580911B0380FD17
:103E600014C081FD14C082FD16C0809160028823B9
:103E700081F08E3180F42DE2829FC00111246EE129
:103E800070E00E947D2B862F08958BE0089586E1D7
:103E9000089585E008958DE20895803F21F40E9401
:103EA0002D1F819504C0813F29F40E942D1F80930E
:103EB0005D020895823F21F40E942D1F819504C068
:103EC000833F29F40E942D1F80935C020895893F4F
:103ED00019F40E942B1F05C08A3F31F40E942B1F4A
:103EE000819580935E0208958B3F21F40E942B1FE1
:103EF000819504C08C3F29F40E942B1F80935F02A0
:103F00000895843F21F480915B02816017C0853F52
:103F100021F480915B02826011C0863F21F4809180
:103F20005B0284600BC0873F21F480915B02886054
:103F300005C0883F31F480915B02806180935B0211
:103F400008958D3F21F480911B0381600BC08E3F4B
:103F500021F480911B03826005C08F3F29F480917A
:103F60001B03846080931B03089578941F920F9223
:103F70000FB60F9211248F939F93AF93BF938091AD
:103F8000170390911803A0911903B0911A03019699
:103F9000A11DB11D8093170390931803A0931903DB
:103FA000B0931A03BF91AF919F918F910F900FBE65
:103FB0000F901F901895CF92DF92EF92FF920F9380
:103FC0001F932FB7F89440911703509118036091F5
:103FD000190370911A032FBF6A017B01EE24FF249D
:103FE0008C0120E030E0C016D106E206F30610F4A2
:103FF000415051099A01281B390BC9011F910F919A
:10400000FF90EF90DF90CF9008952FB7F8948091B4
:10401000170390911803A0911903B0911A032FBFB1
:104020000895E0914902F0914A02309749F082E008
:1040300080935A020480F581E02D8AE592E009958B
:104040000E940520909362028093610208951F925E
:104050000F920FB60F9211248F939F93AF93BF933C
:1040600080914B02811113C0809117039091180326
:10407000A0911903B0911A034196A11DB11D80931F
:10408000170390931803A0931903B0931A03BF91D9
:10409000AF919F918F910F900FBE0F901F90189529
:1040A00020910601222321F02091460227FD04C021
:1040B000FC013296089619C0262F2695269526953E
:1040C0002E31C0F4FC01E20FF11D677081E090E039
:1040D00001C0880F6A95EAF78095928189238283CF
:1040E00008953196E817F90729F020812613F9CFB2
:1040F0001082F7CF089520910601222321F020910C
:10410000460227FD05C0FC0132962FEF30E019C0B2
:10411000262F2695269526952E3120F5FC01E20FB7
:10412000F11D677081E090E001C0880F6A95EAF7A1
:104130009281892B828308952F3F39F03F5F36307B
:1041400041F041914613F8CF0DC04111F7CF232F15
:10415000F5CF2F3F39F0FC01E20FF11D27FDFA9555
:10416000628308950895CF9384E090E00E94212B0C
:10417000C82F81E290E00E94212B2C2F30E0A90172
:10418000582BCA01CF91089580E090E00E942F2B18
:1041900021E08F3E9E4F09F020E0822F08956FEEC0
:1041A0007EEF80E090E00E94532B60E082E090E0A0
:1041B0000E94352B60E083E090E00E94352B109246
:1041C000130310921403109215031092160360E06B
:1041D00084E090E00E94352B60E081E290E00E9454
:1041E000352B60E085E090E00E94352B60E086E0B2
:1041F00090E00E94352B6FEF87E090E00E94352B16
:1042000040E050E0BA0188E090E00E94472B60E077
:104210008DE090E00E94352B40E050E0BA0188E14B
:1042200090E00E94472B60E087E190E00E94352BF0
:1042300040E050E0BA018CE190E00E94472B60E042
:1042400080E290E00E94352B1092340210923502E9
:10425000109236021092370284E08061809334021B
:1042600040913402509135026091360270913702CC
:104270008FE090E00E94472B40E050E0BA0183E1DC
:1042800090E00C94472B809112038111109212033D
:104290000895909111038091FF01892B20911003C3
:1042A000982F922B90937C02809112038823D9F04F
:1042B000892B80937C0280910601882331F08091C4
:1042C000460287FF02C08EE101C086E0EEE7F2E021
:1042D00090E0815028F021912223D9F39F5FF9CFFC
:1042E00091110E944321E0914902F0914A023097D6
:1042F000A9F080910601882359F08091460287FF3A
:1043000007C080917C0280937D0285E080937C02CF
:104310000280F381E02D8CE792E009940895BF922A
:10432000CF92DF92EF92FF920F931F93CF93DF9381
:104330008C01C0901303D0901403E0901503F0900B
:10434000160380910B0390910C03A0910D03B09183
:104350000E03C82AD92AEA2AFB2ACFE1D0E0D701E6
:10436000C6010C2E04C0B695A795979587950A941B
:10437000D2F780FF07C0BC2EB8018C2F0E942710F7
:10438000019719F4219758F7B12C8B2DDF91CF911C
:104390001F910F91FF90EF90DF90CF90BF90089505
:1043A000CF93DF93EC010E948F21BE010E94271062
:1043B000DF91CF910895292F220F920F990F890F26
:1043C000682F669566956695982F977085E0689F2B
:1043D000B001112440E050E080E0FA01E60FF71F41
:1043E000EC52FD4F208130E0092E02C03695279512
:1043F0000A94E2F721703327042E01C0220F0A9499
:10440000EAF7822B4F5F5F4F4530510531F7089532
:10441000292F220F920F990F890FA82FA695A695E5
:10442000A695877051E001C0550F8A95EAF785E09F
:10443000A89FD001112420E030E070E0F901EA0FDC
:10444000FB1FEC52FD4F4081CB01022E02C096951E
:1044500087950A94E2F781709927819584278523AF
:10446000842780832F5F3F4F2530310539F708952A
:104470000E94A01260930B0370930C0380930D03B2
:1044800090930E030C9494280F931F9341E050E0F7
:1044900060E070E004C0440F551F661F771F8A95C7
:1044A000D2F7409550956095709580910B0390914F
:1044B0000C03A0910D03B0910E038A019B01082308
:1044C00019232A233B23C901B8011F910F910C9492
:1044D000382220910F038095822380930F03982F19
:1044E000977079F430E0482F082E000C550B2417F4
:1044F000350739F08595859585950E94442210925F
:104500000F0308950F931F9341E050E060E070E0C7
:1045100004C0440F551F661F771F8A95D2F78091FC
:104520000B0390910C03A0910D03B0910E038A012F
:104530009B01082B192B2A2B3B2BC901B8011F917A
:104540000F910C943822609313037093140380939B
:104550001503909316030C9494288091D3029091A4
:10456000A202891719F08F5F8770FBCF0895089515
:10457000882319F05198599A02C0519A5998509825
:10458000589A95E09A95F1F70000509A589895E05E
:104590009A95F1F70000882311F0519A599885E017
:1045A0008A95F1F700000895EF92FF920F931F9301
:1045B000CF93DF937C01CFE1D3E000E010E0F7017F
:1045C0008481073011051CF4882339F002C0811161
:1045D00004C09E014091FB0102C09E0140E0609139
:1045E000FA018091F9010E94790E0F5F1F4F249606
:1045F0000F30110521F70E949D0DF701248130E055
:104600002F5F3F4F217033272483DF91CF911F917C
:104610000F91FF90EF900895EF92FF920F931F93E9
:10462000CF93DF93EC012C813D812F5F3F4F2170B1
:1046300033273D832C838FE1E82E83E0F82E10E0B2
:1046400005E5812F86954C815D81480F511D842F92
:10465000817097014091FB016091FA01809F802D4C
:1046600011240E94790E1F5F84E0E80EF11C1F30B8
:1046700041F7DF91CF911F910F91FF90EF900C9434
:104680009D0D0F931F93CF93DF9380E090E0FC018B
:10469000E15EFC4F11821082128204968C339105E8
:1046A000B1F7C0E0D0E00FE010E0CE01B8010E9409
:1046B0007D2BFC0180911D03082E000C990BEE0F41
:1046C000FF1FEE0FFF1FC817D907A4F080911F012D
:1046D000082E000C990B8C179D0764F09F01215E3A
:1046E0003C4F4091FB016091FA018091F9010E94D9
:1046F000790E05C0E15EFC4F118210821282219674
:10470000CF30D10591F60E949D0D80911E019091B0
:104710001D03980F90931D0320911F01280F2093D4
:104720001F01121614F49E301CF0819580931E0117
:10473000DF91CF911F910F910895AF92BF92CF92C9
:10474000DF92EF92FF920F931F93CF93DF93FC01C1
:10475000828180FF03C0BB24BA9402C0BB24B394FF
:104760002FE1E22E23E0F22E01E213E0C0E0D0E0E0
:10477000F80131971082F7011082F801108294E05D
:10478000C92ED12CA12C80911C038A0D87FD815F3D
:10479000082E000C990BC817D90791F48091FB01E2
:1047A0008C9DA0018D9D500D1124559547955595D3
:1047B000479597016091FA018091F9010E94790E65
:1047C000AB0CF1E0CF1AD108F1F6219684E0E80EA7
:1047D000F11C0C5F1F4FCF30D10551F60E949D0D8B
:1047E00080911C0391E0B91206C0811102C08EE0D5
:1047F00007C0815005C090E00196BE010E947D2B4C
:1048000080931C03DF91CF911F910F91FF90EF9048
:10481000DF90CF90BF90AF900895EF92FF921F93DB
:10482000CF93DF93EC018FE1E82E83E0F82E10E0C8
:104830008C8197014091FB016091FA01810F0E94E8
:10484000790E1F5E84E0E80EF11C1F3F89F70E947D
:104850009D0D8A819C8180FF02C09F5F01C09150A5
:104860009C83DF91CF911F91FF90EF9008950F935C
:104870001F93CF93DF9300D000D0CDB7DEB78C016C
:1048800080911E0381110AC09E012F5F3F4F4FEFA1
:104890006FEF0E94790E8A8180931E03F801848154
:1048A000813051F028F0823061F440911E030AC03B
:1048B00080911E0340E007C060911E0340E080E04D
:1048C00003C040E080E060E00E941F0EF8012481F8
:1048D00030E0C901019663E070E00E947D2B848383
:1048E0000F900F900F900F90DF91CF911F910F912C
:1048F0000895CF93DF93EC01E8EFF1E0438162810B
:104900008C810E94190F8C818F5F8C83DF91CF91F6
:104910000895CF93DF93EC01EC81F0E0EA55FA4F74
:104920004491E8EFF1E0628181810E94190F8C814E
:104930008F5F8C83DF91CF910895EF92FF920F9359
:104940001F93CF93DF93CDB7DEB767970FB6F89479
:10495000DEBF0FBECDBF4B8B5C8B6D8B7E8B8F8B89
:104960000E891F8901151105C1F15F3F11F44F3FF9
:10497000A1F1E42EF12CA1E0B0E0042E01C0AA0FB9
:104980000A94EAF7852F90E0662319F020917003CE
:1049900006C09C012F593C4FF90120812A23222374
:1049A000A9F046E0489F9001499F300D1124F7017E
:1049B000E20FF31FEE0FFF1FEB5BFE4F40815181B3
:1049C000FC01EF59FC4F9081A92B06C0FC01EF5967
:1049D000FC4FA0958081A823A08386E0FE013D9630
:1049E000DF01982F1D929A95E9F74D875E876F87B3
:1049F000198B088BDE01179601900D928A95E1F7CD
:104A0000CE0107960E94CA26811137C086E0FE01BA
:104A10003796DE01119601900D928A95E1F7FF819C
:104A2000E8856A857B856115710539F1EF3F11F4E1
:104A3000FF3F19F12091A20230E0C9010196877071
:104A400099274091D30250E08417950779F1F983B3
:104A5000EA837D836C8396E0929FD001939FB00D93
:104A60001124AD55BD4FFE01319601900D929A95DE
:104A7000E1F78093A2020E94AD2216E08091D3025A
:104A80009091A202891711F1189FC00111248D5530
:104A90009D4F0E94CA268823C9F08091D30290E0DE
:104AA0000196877099278093D302E8CF1092FF0177
:104AB0000E94AF281092A2021092D302ECE9F2E019
:104AC00086E0DF011D928A95E9F7D7CF67960FB68A
:104AD000F894DEBF0FBECDBFDF91CF911F910F9134
:104AE000FF90EF90089520915F033091600382174B
:104AF000930771F09093600380935F03E091490204
:104B0000F0914A02309721F00084F185E02D09945C
:104B1000089520915D0330915E038217930771F031
:104B200090935E0380935D03E0914902F0914A0205
:104B3000309721F00680F781E02D09940895E091E7
:104B40004902F0914A02309721F00190F081E02D66
:104B5000099480E00895CF93DF93D82FC8E08D2F7C
:104B600080780E94B822DD0FC150C9F780E00E9412
:104B7000B82285E08A95F1F7000085E08A95F1F783
:104B8000000080E0DF91CF9108950F931F93CF93A2
:104B9000DF93C62FD42F022FFC0182818823C9F016
:104BA0006093EF010E94052090935C0380935B0368
:104BB00080E28C0F883008F050C0C77081E001C0DF
:104BC000880FCA95EAF7DF91CF911F910F910C944E
:104BD000CD281091EF01161330C080915B039091A6
:104BE0005C030E94DB1F8937910538F5C0E2CD0FC9
:104BF0001D17B9F080E2810F883040F4177081E012
:104C000001C0880F1A95EAF70E94C228C83048F4FC
:104C100081E09D2F977001C0880F9A95EAF70E9456
:104C2000CD28802F0E943E29C830B8F4D77081E08B
:104C300001C0880FDA95EAF70AC080E28C0F88304D
:104C400060F4C77081E001C0880FCA95EAF7DF9170
:104C5000CF911F910F910C94C228DF91CF911F919A
:104C60000F9108956091F801669570E04BE050E077
:104C700083E191E00E94C42C892B19F481E0809398
:104C80007A020E9405209093740280937302089523
:104C90008091A10282958F7009F054C080919E028C
:104CA000882309F44FC08091D302A091A2026091A1
:104CB0009C0270919D0240919F025091A002B6E02B
:104CC0008A1709F43FC090E041155105C1F17F3FBB
:104CD00011F46F3FA1F1B89FF001B99FF00D1124BD
:104CE000ED55FD4F218172132AC02081621327C028
:104CF0002281211124C0238134812417350710F427
:104D000021503109241B350B29373105C0F420917E
:104D1000A1022F7020612093A10226E0289FF001BC
:104D2000299FF00D1124E855FD4F80818F7080611F
:104D300080838CE992E00E9472030C94AD2201966C
:104D40008770BECF08950E94D021292F2F70929591
:104D50009F70E92FF0E03297EE30F105B8F4E65895
:104D6000FF4F0C94912B803F99F018F4883E70F41B
:104D70000FC0843F59F40CC0883E50F0813F31F49D
:104D800007C0822F869586958695089580E00895C0
:104D900081E00895BF92CF92DF92EF92FF920F933E
:104DA0001F93CF93DF93CDB7DEB761970FB6F8941B
:104DB000DEBF0FBECDBF8C0185E0F801DE011D9680
:104DC00001900D928A95E1F7D8013C9111962C91B2
:104DD00011971296EC9012971396CD90DC90149741
:104DE00050919C0260919D0280919F029091A0023F
:104DF000009709F44FC16F3F19F45F3F09F44AC1AE
:104E0000B0909E02BB2009F4ECC04091A102C816EC
:104E1000D90628F0F601E81BF90BCF0104C08095F4
:104E200090958C0D9D1DFF24F3948937910548F0D2
:104E3000F12C407F09F09FC08CE992E00E94720340
:104E400021C1842F807F09F044C0621312C0531324
:104E500010C0E1100EC04F7040614093A1028CE978
:104E600092E00E9472038091A102D80115968C9362
:104E70002EC0CD2819F12F3F11F43F3FF9F0FE2C41
:104E8000E1101CC08091D3024091A20256E0841729
:104E900009F458C090E0589FF001599FF00D11247B
:104EA000ED55FD4F6181261306C06081361303C0A6
:104EB0006281611103C001968770E9CFFE2CEE205C
:104EC00009F421C18091A10281608093A102F12C9B
:104ED0001AC162130AC0531308C0E11006C08091C2
:104EE000A102D80115968C93B0C03D872E878D8581
:104EF0009E850E94A3268823D1F1EE20C1F1209146
:104F0000A102822F82958F7090E0029774F08091B9
:104F10009C0290919D0298878F831986DB86CA86B2
:104F20002C87CE0107960E94720386E0F801ACE957
:104F3000B2E001900D928A95E1F70E944826FF2485
:104F4000F394E1C03D872E878D859E850E94D021F8
:104F5000292F22952F7030E0223031050CF0C7C088
:104F60009F7009F0C1C0805E883008F4CCC0C801D1
:104F70000E947203E4CF621314C0531312C0E110F5
:104F800010C08091A102F8018583C8010E947203BC
:104F900086E0ECE9F2E0DF011D928A95E9F7FB2C4F
:104FA000B2C03D872E878D859E850E94A3268823CB
:104FB000F1F2EE20E1F22091A102822F82958F7012
:104FC00090E002970CF4B1CF80919C0290919D02E9
:104FD0009A8389831B82DD82CC822E83CE01019647
:104FE000A2CFC816D90638F0C81AD90AB9E7CB1625
:104FF000D10450F007C0809590958C0D9D1D893788
:10500000910510F0F12C3EC0FE2CEE2009F4AFCF3C
:10501000621327C0531325C02091A10220FD18C0A0
:10502000822F82958F70482F50E04115510581F0F5
:10503000F80125834F30510541F08F5F982F9295ED
:10504000907F822F8F70892B8583C8010E94720305
:1050500086E0F801ACE9B2E001900D928A95E1F7A3
:1050600052C03D872E878D859E850E94A326811183
:105070005CCF8091A10281608093A102C8010E944F
:10508000720341C0ECE9F2E086E0DF011D928A95EF
:10509000E9F739C0EE2009F46ACF3D872E878D8568
:1050A0009E850E94A326F82E882309F460CF86E00F
:1050B000F801ACE9B2E001900D928A95E1F7809198
:1050C0009C0290919D020E94D02192959F709630F3
:1050D00041F48091700391E089278093700390934D
:1050E0006F030E9448260FC081113DCF0CC02430B1
:1050F00031050CF03CCF9F7009F435CFF801958154
:10510000907F09F030CF8F2D61960FB6F894DEBFF7
:105110000FBECDBFDF91CF911F910F91FF90EF9008
:10512000DF90CF90BF90089510921103109210035A
:105130000E944921EAE5F2E086E0DF011D928A95AE
:10514000E9F71092600210921B030E94112080E088
:1051500090E00E94892580E090E00C947325809176
:105160000601882331F08091460287FF02C08EE15C
:1051700001C086E0EEE7F2E0DF011D928A95E9F7D3
:105180000C949428882341F080959091FF01892305
:105190008093FF010C9449210895882339F0909160
:1051A000FF01892B8093FF010C94492108958823E6
:1051B00009F463C0823869F40E949F2581FF5DC0B5
:1051C00069E38CE792E00E947B200E94492169E319
:1051D0000EC0833891F40E949F2580FF4EC063E586
:1051E0008CE792E00E947B200E94492163E58CE7D6
:1051F00092E00E9450200C944921843869F40E9466
:105200009F2582FF3AC067E48CE792E00E947B20F2
:105210000E94492167E4EBCF9CEF980F913A10F47C
:10522000682FE5CF90E2980F983088F4877021E0DE
:1052300030E0A90102C0440F551F8A95E2F7CA0168
:1052400080959091FF0189238093FF01D4CF9BE546
:10525000980F933020F480E090E00C94892598E535
:10526000980F973120F480E090E00C947325803FF4
:1052700020F00E94A61E0C9411200895CF93C82FF1
:105280000E945129C93349F42FEF87EE93E0215052
:1052900080409040E1F700C000008C2FCF910C942B
:1052A000D728882309F416C18238B1F40E949F25BB
:1052B00081FD10C169E38CE792E00E947B200E948F
:1052C00049212FEF41EE54E0215040405040E1F79A
:1052D00000C0000069E317C08338D9F40E949F25FD
:1052E00080FDF8C063E58CE792E00E947B200E947D
:1052F00049218FEF91EE24E0815090402040E1F76A
:1053000000C0000063E58CE792E00E9450200C94FE
:1053100049218438B1F40E949F2582FDDBC067E4F7
:105320008CE792E00E947B200E9449214FEF51EED2
:1053300084E0415050408040E1F700C0000067E445
:10534000E2CF9CEF980F913A30F4682F8CE792E00F
:105350000E947B20DCCF90E2980F983080F4877019
:1053600021E030E0A90102C0440F551F8A95E2F701
:10537000CA019091FF01892B8093FF01C8CF9BE563
:10538000980F933070F4853A29F0863A31F083E82B
:1053900090E005C081E890E002C082E890E00C94C3
:1053A000892598E5980F973108F08EC0883A09F45E
:1053B00045C0893A09F445C08A3A09F445C08B3A98
:1053C00009F445C08C3A09F445C08B3B09F445C04B
:1053D0008C3B09F445C08D3A09F445C0803B09F483
:1053E00045C08E3A09F445C08F3A09F445C0813B67
:1053F00009F445C0823B09F445C0833B09F445C02C
:10540000843B09F445C0853B09F445C0863B09F45B
:1054100045C0873B09F445C0883B09F445C0893B3A
:1054200009F445C08D3B09F445C08E3B09F445C0E5
:105430008A3B09F445C080E090E044C082EE90E0F1
:1054400041C089EE90E03EC08AEE90E03BC085EB23
:1054500090E038C086EB90E035C083EB90E032C03E
:1054600084EB90E02FC087EB90E02CC08CEC90E0B8
:1054700029C08DEC90E026C083E891E023C08AE843
:1054800091E020C082E991E01DC084E991E01AC05A
:1054900081E292E017C083E292E014C084E292E0DD
:1054A00011C085E292E00EC086E292E00BC087E276
:1054B00092E008C08FE690E005C080E790E002C06F
:1054C0008AE292E00C947325803F20F00E944D1FE9
:1054D0000C94112008951092B9008CE08093B800CC
:1054E0000895EF92FF920F931F93CF93DF93182F9E
:1054F000EB011092BC0084EA8093BC000E9405205E
:105500007C019091BC0097FD0EC0CF3F8FEFD80774
:10551000C1F30E9405208E199F098C179D0788F3FF
:105520008EEF9FEF2EC09091B900987F983041F098
:105530009091B900987F903119F08FEF9FEF21C0C3
:105540001093BB0084E88093BC000E9405208C016E
:105550009091BC0097FD0CC0CF3F8FEFD807C1F3EF
:105560000E940520801B910B8C179D0788F3D8CFD4
:105570008091B900887F883111F08034F1F680E0A5
:1055800090E0DF91CF911F910F91FF90EF900895E0
:105590000F931F93CF93DF93EB018093BB0084E8BD
:1055A0008093BC000E9405208C019091BC0097FD67
:1055B0000EC0CF3F8FEFD807C1F30E940520801B9C
:1055C000910B8C179D0788F38EEF9FEF0CC02091F5
:1055D000B900287F81E090E0283211F480E090E06B
:1055E000919581959109DF91CF911F910F91089528
:1055F0000F931F93CF93DF93EC0184E88093BC005B
:105600000E9405208C019091BC0097FD0EC0CF3FF9
:105610008FEFD807C1F30E940520801B910B8C17D8
:105620009D0788F38EEF9FEF03C08091BB0090E051
:10563000DF91CF911F910F91089584E98093BC0071
:105640000895F999FECF92BD81BDF89A992780B54A
:105650000895A6E1B0E044E050E00C945B2BA8E193
:10566000B0E042E050E00C945B2B262FF999FECF7E
:1056700092BD81BDF89A019700B4021639F01FBAA5
:1056800020BD0FB6F894FA9AF99A0FBE08950396C2
:10569000272F0E94362B0E94352B252F0E94362B58
:1056A000242F0C94362B0196272F0E94362B0C9416
:1056B000352BDC01CB01FC01F999FECF06C0F2BD10
:1056C000E1BDF89A319600B40D9241505040B8F7C0
:1056D0000895AA1BBB1B51E107C0AA1FBB1FA61739
:1056E000B70710F0A61BB70B881F991F5A95A9F78B
:1056F00080959095BC01CD01089597FB072E16F477
:10570000009407D077FD09D00E94692B07FC05D0D3
:105710003EF4909581959F4F0895709561957F4FC8
:105720000895EE0FFF1F0590F491E02D0994CF939B
:10573000DF938230910510F482E090E0E0917303F2
:10574000F091740320E030E0C0E0D0E0309711F138
:105750004081518148175907C0F04817590761F433
:1057600082819381209719F09B838A832BC0909329
:1057700074038093730326C02115310519F0421775
:10578000530718F49A01BE01DF01EF010280F38193
:10579000E02DDCCF2115310509F1281B390B243010
:1057A000310590F412968D919C91139761157105B6
:1057B00021F0FB019383828304C090937403809350
:1057C0007303FD01329644C0FD01E20FF31F819384
:1057D0009193225031092D933C933AC0209171034B
:1057E00030917203232B41F4209102013091030187
:1057F00030937203209371032091000130910101D5
:105800002115310541F42DB73EB740910401509167
:105810000501241B350BE0917103F0917203E2172F
:10582000F307A0F42E1B3F0B2817390778F0AC01C3
:105830004E5F5F4F2417350748F04E0F5F1F5093A0
:105840007203409371038193919302C0E0E0F0E012
:10585000CF01DF91CF9108950F931F93CF93DF93E3
:10586000009709F48CC0FC013297138212820091D8
:105870007303109174030115110581F420813181A6
:10588000820F931F209171033091720328173907FB
:1058900079F5F0937203E093710371C0D80140E091
:1058A00050E0AE17BF0750F412962D913C9113971C
:1058B000AD012115310509F1D901F3CF9D01DA01BF
:1058C0003383228360817181860F971F821793072C
:1058D00069F4EC0128813981260F371F2E5F3F4F75
:1058E000318320838A819B8193838283452B29F492
:1058F000F0937403E093730342C01396FC93EE930A
:105900001297ED01499159919E01240F351FE2171D
:10591000F30771F480819181840F951F029611968F
:105920009C938E938281938113969C938E9312976E
:10593000E0E0F0E0D80112968D919C9113970097CA
:1059400019F0F8018C01F6CF8D919C9198012E5F92
:105950003F4F820F931F20917103309172032817DC
:10596000390769F4309729F4109274031092730385
:1059700002C0138212821093720300937103DF91AD
:10598000CF911F910F910895FC014150504030F08C
:1059900001900616D1F73197CF01089588279927EE
:0659A0000895F894FFCF0A
:1059A600000075032000012000C01D5F1E341EC3C9
:1059B6001DF91D01191A1B1C1D1E1F202122010283
:1059C6000001020202020606060909090909090F71
:1059D6000F0F0F0F0F151515181919191919191970
:1059E6001919192324000D010D020D030D040D05CF
:1059F6000D000C010C020C030C040C050C000B0131
:105A06000B020B030B040B050B000A010A020A0327
:105A16000A040A050A00090109020903090409051D
:105A26000900080108020803080408050800070120
:105A36000702070307040705070006010602060317
:105A4600060406050600050105020503050405050D
:105A56000500040104020403040404050400030110
:105A66000302030303040305030002010202020307
:105A760002040205020001010102010301040105FD
:0E5A8600010000010002000300040005000002
:00000001FF
